:100000000C9492010C94C3010C94C3010C94C30191
:100010000C94C3010C94C3010C94C3010C94C30150
:100020000C94C3010C94C3010C94C3010C94C30140
:100030000C94C3010C94C3010C94C3010C94C30130
:100040000C94C3010C94C3010C94C3010C94C30120
:100050000C94C3010C94C3010C94C3010C9451097A
:100060000C94C3010C94C5090C949B090C94C30116
:100070000C94C3010C94C3010C94C3010C94C301F0
:100080000C94C3010C94C3010C94C3010C94C301E0
:100090000C94C3010C94C3010C94C3010C94C301D0
:1000A0000C94C3010C94C3010C94C3010C94C301C0
:1000B0000C94C3010C94C3010C94C3010C94C301B0
:1000C0000C94C3010C94C3010C94C3010C94C301A0
:1000D0000C94C3010C94C3010C94C3010C94C30190
:1000E0000C94C30107634236B79BD8A71A396856E8
:1000F00018AEBAAB558C1D3CB7CC5763BD6DEDFD4A
:10010000753EF6177231BF000000803F0800000006
:10011000BE922449123EABAAAA2ABECDCCCC4C3EFC
:1001200000000080BEABAAAAAA3E00000000BF00EB
:100130000000803F0000000000084178D3BB4387E7
:10014000D1133D190E3CC3BD4282AD2B3E68EC82FB
:1001500076BED98FE1A93E4C80EFFFBE01C4FF7F80
:100160003F00000000000C94F3050C949D030C94D8
:1001700044040C94B1030C9410020C941F020C94D0
:10018000E8050C942B080C942F020C9437020C9465
:10019000BF030C948E030C9425080C948E050C94CC
:1001A00025020C9433020C94B6050C940A020C94AC
:1001B00041020C943D020C9433050C9414020C94EF
:1001C0009F040C94E1080C941C020C9461030C94A1
:1001D0004D060C944A020C9428080C9429020C94A5
:1001E000C2050C9418020C94FB090C9445020C9463
:1001F000F7030C944B020C944F020C94C1050C9421
:100200002E0800002100240027002A002D003000C5
:10021000330001010000040107010A01000022006F
:10022000250028002B002E003100340002010000C0
:10023000050108010B010000200023002600290011
:100240002C002F003200000100000301060109010B
:1002500005050505070508080808020202020A0A42
:100260000808040404040101010101010101030360
:10027000030303030303040707070C0C0C0C0C0C0B
:100280000C0C0202020206060606060606060B0B08
:100290000B0B0B0B0B0B0102102020080810204049
:1002A000102040800201020108040201010204083A
:1002B00010204080804020100804020180040201C8
:1002C0008040201008040201080402010102040811
:1002D00010204080010204081020408000000A0B1A
:1002E00002090C0D0E0807030401000000000000C5
:1002F00000000000000000000000000000000000FE
:1003000000000000000000001211100000000000BA
:1003100000000000000000000000000000000000DD
:100320000000FB0911241FBECFEFD1E2DEBFCDBF1D
:1003300000E00CBF12E0A0E0B2E0ECE1F8E200E087
:100340000BBF02C007900D92AE34B107D9F724E07D
:10035000AEE4B2E001C01D92A431B207E1F711E0B2
:10036000C2E9D1E000E006C021970109802FFE011B
:100370000E94DF12C139D10780E00807A9F70E9467
:10038000950A0C940C140C940000FC01A089B1890E
:1003900082E08C93A485B5851C92A685B7858FE3F2
:1003A0008C93108EA489B58986E08C93A289B38939
:1003B0008C9180618C93A289B3898C9188608C9395
:1003C000A289B3898C9180688C930288F389E02D8F
:1003D00080818F7D808308958150823108F05AC0DA
:1003E000E82FF0E08827E850FE4F8F4F0C94DF1283
:1003F00018021C020A02100214024A021F022502FD
:1004000029022F02330237023D0241024A0245020D
:100410004B024F02809180008F7780938000089577
:10042000809180008F7DF9CF80918000877FF5CF0C
:1004300084B58F7784BD089584B58F7DFBCF80917F
:10044000B0008F778093B00008958091B0008F7DC9
:10045000F9CF809190008F778093900008958091DC
:1004600090008F7DF9CF80919000877FF5CF8091AC
:10047000A0008F778093A00008958091A0008F7DC9
:10048000F9CF8091A000877FF5CF809120018F77F1
:10049000809320010895809120018F7DF9CF809174
:1004A0002001877FF5CFCF93DF93282F30E0F9012C
:1004B000E452FD4F8491F901EA56FD4FD491F901C0
:1004C000E05BFD4FC491CC23A1F081110E94EC01AF
:1004D000EC2FF0E0EE0FFF1FEA5CFD4FA591B49109
:1004E000EC91ED2381E090E009F480E0DF91CF9181
:1004F000089580E090E0FACF1F93CF93DF93282FE9
:1005000030E0F901E452FD4F8491F901EA56FD4FC4
:10051000D491F901E05BFD4FC491CC23A9F0162FD3
:1005200081110E94EC01EC2FF0E0EE0FFF1FE45E62
:10053000FD4FA591B4918FB7F894EC91111108C0BB
:10054000D095DE23DC938FBFDF91CF911F9108956B
:10055000DE2BF8CFCF93DF9390E0FC01EA56FD4FFE
:100560002491805B9D4FFC0184918823C9F090E029
:10057000880F991FFC01EE5FFD4FA591B491FC011E
:10058000E45EFD4FC591D49161110DC09FB7F89401
:100590008C91209582238C938881282328839FBF68
:1005A000DF91CF910895623051F49FB7F8943C9158
:1005B000822F809583238C93E8812E2BEFCF8FB7EA
:1005C000F894EC912E2B2C938FBFEACF863308F052
:1005D000865320917B00982F9870277F922B9093C1
:1005E0007B008770806480937C0080917A008064B7
:1005F00080937A0080917A0086FDFCCF809178000C
:10060000909179000895CF93DF93009791F1EC01D9
:1006100062307105C1F02CF46130710529F161E09F
:100620001AC063307105B1F064307105C1F760E044
:100630000E94AA0260E08C2F0E947C028C2FDF9126
:10064000CF910C94E60260E00E94AA0260E08C2F39
:100650000E947C0262E08C2F0E94AA0261E08C2F33
:10066000DF91CF910C947C0261E00E94AA0260E0CD
:10067000F6CFDF91CF9108953FB7F89480919D0216
:1006800090919E02A0919F02B091A00226B5A89BD6
:1006900005C02F3F19F00196A11DB11D3FBFBA2F14
:1006A000A92F982F8827BC01CD01620F711D811DD4
:1006B000911D42E0660F771F881F991F4A95D1F759
:1006C0000895AF92BF92CF92DF92EF92FF920F9375
:1006D0001F93CF93DF936C017B018B01040F151FD8
:1006E000EB015E01AE18BF08C017D10759F0699140
:1006F000D601ED91FC910190F081E02DC601199594
:10070000892B79F7C501DF91CF911F910F91FF9050
:10071000EF90DF90CF90BF90AF900895FC01538D84
:10072000448D252F30E0842F90E0821B930B5417CB
:1007300010F0CF96089501970895FC01918D828D58
:10074000981761F0A28DAE0FBF2FB11D5D968C91F1
:10075000928D9F5F9F73928F90E008958FEF9FEF30
:100760000895FC01918D828D981731F0828DE80FEC
:10077000F11D858D90E008958FEF9FEF0895FC01A6
:10078000918D228D892F90E0805C9F4F821B910973
:100790008F739927089581E793E00E94BF0321E0BA
:1007A000892B09F420E0822F0895FC01A48DA80F65
:1007B000B92FB11DA35ABF4F2C91848D90E00196A3
:1007C0008F739927848FA689B7892C93A089B189C3
:1007D0008C91837080648C93938D848D981306C064
:1007E0000288F389E02D80818F7D80830895EF92C8
:1007F000FF920F931F93CF93DF93EC0181E0888FDB
:100800009B8D8C8D98131AC0E889F989808185FFAA
:1008100015C09FB7F894EE89FF896083E889F9894C
:1008200080818370806480839FBF81E090E0DF914E
:10083000CF911F910F91FF90EF900895F62E0B8DA1
:1008400010E00F5F1F4F0F731127E02E8C8D8E115C
:100850000CC00FB607FCFACFE889F989808185FFC3
:10086000F5CFCE010E94D503F1CFEB8DEC0FFD2F1C
:10087000F11DE35AFF4FF0829FB7F8940B8FEA897E
:10088000FB8980818062CFCFCF93DF93EC01888D8D
:100890008823B9F0AA89BB89E889F9898C9185FDFB
:1008A00003C0808186FD0DC00FB607FCF7CF8C9189
:1008B00085FFF2CF808185FFEDCFCE010E94D50369
:1008C000E9CFDF91CF91089580E090E0892B29F066
:1008D0000E94CB0381110E94000080E090E0892BF0
:1008E00049F080E090E0892B29F00E9400008111FE
:1008F0000E94000080E090E0892B49F080E090E0C9
:10090000892B29F00E94000081110E94000080E0E4
:1009100090E0892B49F080E090E0892B29F00E943B
:10092000000081110C9400000895DC018D919C91D0
:10093000DC01ED91FC910190F081E02D1994FC0116
:100940002FB7F8948091990290919A02A0919B02FE
:10095000B0919C022FBF86839783A087B1871286B0
:100960001386158614860895CF92DF92EF92FF9238
:100970000F931F93CF93DF93C0908802D09089028A
:10098000A8E6B2E050E040E0F0E0E0E070E060E0D7
:100990004C155D0544F58D919D919C012C5B3F4F5D
:1009A000E901288139812230310559F48C010E5B2F
:1009B0001F4F7F01DFE0ED22FF24E801F982E8828A
:1009C0003196235031092230310550F48E5B9F4F10
:1009D0009B012F703327EC01398328836F5F7F4F92
:1009E0004F5F5F4FD5CFDF91CF911F910F91FF9058
:1009F000EF90DF90CF9008950F931F93CF93DF93E5
:100A0000EC01FC01EC5BFF4F82E090E0918380837E
:100A10003296208131812230310511F0918380831B
:100A20000881198163E070E0F801868197810E9456
:100A3000030361E070E0F801808591850E94030363
:100A400061E070E0F801828593850E940303CE0186
:100A500004969B838A830E949F04DF91CF911F910C
:100A60000F910C94B404FC012FB7F8948091990273
:100A700090919A02A0919B02B0919C022FBF868315
:100A80009783A087B187128682E390E0908B878757
:100A900088EE93E0928B818B158A168A178A108EC6
:100AA000148E138E168E158E10A2178E08950F9326
:100AB0001F93CF93DF93EC01FC01EC5BFF4F83E0CE
:100AC00090E09183808332962081318123303105FB
:100AD00011F0918380830881198164E070E0F8014E
:100AE000868197810E94030370E060E0F8018085B1
:100AF00091850E94030361E070E0F801828593858F
:100B00000E940303CE0142969B838A830E94330591
:100B1000DF91CF911F910F910C94B404FC018FB71A
:100B2000F8944091990250919A0260919B027091C1
:100B30009C028FBF86819781A085B185481B590B88
:100B40006A0B7B0B84819581092E000CAA0BBB0BD1
:100B5000481759076A077B0718F4128680E0089542
:100B60008285811102C081E082870895DC0112969E
:100B7000ED91FC91EE5BFF4F8081918180559F4FFD
:100B800008950895CF93DF9337FF1FC06F706150B2
:100B90006031D8F4E901D42F606B8091CB02909141
:100BA000CC020E9495046D2F6F778091CB029091BB
:100BB000CC020E9495046C2F6F778091CB029091AC
:100BC000CC02DF91CF910C949504DF91CF910895E1
:100BD000DC0112968D919C91DC01ED91FC910190CC
:100BE000F081E02D1994FF920F931F93CF93DF9321
:100BF000EC01F42E89018A819B81DC01ED91FC914D
:100C00000190F081E02D19958A819B81DC01ED91A5
:100C1000FC910190F081E02D6F2D199517FD0FC00B
:100C20008A819B81DC01ED91FC910190F081E02DA6
:100C3000602FDF91CF911F910F91FF901994DF9159
:100C4000CF911F910F91FF900895CF92DF92EF9275
:100C5000FF920F931F93CF93DF938C017B016A0167
:100C6000C2E5D2E089919991009771F0DC01ED9194
:100C7000FC910190F081E02D9601A701B801199532
:100C8000B2E0C636DB0771F7DF91CF911F910F916C
:100C9000FF90EF90DF90CF900895CF92DF92EF9288
:100CA000FF920F931F93CF93DF93EC01E881F981BB
:100CB0000284F385E02D1995882309F4F8C0898D05
:100CC0009A8D9C8F8B8FEA81FB810190F081E02DC2
:100CD00086810E94E6029C010196CF84D8888C15FB
:100CE0009D050CF46C01D88ACF86C9010197E9896A
:100CF000FA89E817F9070CF4FC01FA8BE98B0D2C43
:100D0000000CEE08FF08032E000C440B550B2C19A9
:100D10003D094E095F09AFEFB3E00E94E50E9F0168
:100D2000FF0F440B550B2C193D094E095F090E941A
:100D3000C60E3A8F298F8FA18823C1F088A599A567
:100D4000B901681B790BCB0177FF03C091958195A1
:100D500091096AA57BA5681779070CF03FC01FA20F
:100D60008DA19EA19AA389A33C8F2B8F8B8D9C8DE7
:100D7000B901681B790BCB01880F991F69A17AA172
:100D8000860F971F97FD9CC09AA389A389A19AA15A
:100D9000181619061CF401979AA389A36DA17EA1C8
:100DA000E9A1FAA188279927861B970B8E179F0721
:100DB0000CF4CF01681779070CF4CB019AA389A32F
:100DC00097FF03C09195819591096BA17CA186172E
:100DD000970744F481E08FA339A728A78B8D9C8DBA
:100DE0009A8F898FCD88DE88EF88F88C698D7A8D0F
:100DF000072E000C880B990B0E94C60FA7019601C5
:100E00000E94210F209100023091010240910202C4
:100E1000509103020E945710A70196010E94220FD1
:100E20006B017C01CD8ADE8AEF8AF88E20E030E00B
:100E3000A9010E94521020E030E040E05FE387FD0E
:100E400041C0C701B6010E94220F0E948E0F8A8501
:100E5000882369F180915102811139C08B0123E00F
:100E6000159507952A95E1F717FF02C010E000E0FD
:100E70000038110514F00FE710E08D8D9E8D80175E
:100E8000910799F0E881F9810680F781E02DCE0184
:100E900019957C01E881F9810480F581E02DCE016E
:100EA0001995A801B7010E9425061E8F0D8FDF91AD
:100EB000CF911F910F91FF90EF90DF90CF90089509
:100EC000019662CFC701B6010E94210FBECF84E018
:100ED000660F771F8A95E1F77B01E894E7F8FF2416
:100EE0008B01000F012F001F110B17FF02C010E034
:100EF00000E00038110514F00FE710E08F8D98A185
:100F0000E816F90629F48D8D9E8D0817190799F0BA
:100F1000E881F9810084F185E02DCE0119956C01FD
:100F2000E881F9810480F581E02DCE011995A701B2
:100F3000B6010E9425068D8D9E8D0817190799F020
:100F4000E881F9810680F781E02DCE0119956C01C9
:100F5000E881F9810480F581E02DCE011995A80181
:100F6000B6010E9425061E8F0D8FF8A2EF8E9FCF2F
:100F7000CF93DF93EC0161E070E08E819F810E944E
:100F8000030361E070E0888599850E94030361E0B6
:100F900070E08A859B85DF91CF910C940303CF93FA
:100FA000DF93EC01FC01EC5BFF4F81E090E091836B
:100FB00080833296208131812130310511F0918377
:100FC00080838A819B81009739F0DC01ED91FC914F
:100FD0000280F381E02D1995888199810E94B807DC
:100FE000C85BDF4F19821882DF91CF910895CF93AC
:100FF000DF93EC0170E060E08E819F810E9403032B
:1010000061E070E0888599850E94030361E070E0EB
:101010008A859B85DF91CF910C940303CF93DF9357
:10102000EC0164E070E08E819F810E94030361E027
:1010300070E0888599850E94030361E070E08A85ED
:101040009B85DF91CF910C9403038BE290E0089590
:101050008BE090E0089580E490E0089580E290E0D5
:1010600008954F925F926F927F928F929F92AF926C
:10107000BF92CF92DF92EF92FF920F931F93CF9385
:10108000DF935C014B013A0129018CE090E00E9462
:10109000E712EC01998288827B826A825D824C82AF
:1010A0001F830E83F986E886DB86CA8663E070E0DC
:1010B000C4010E94030362E070E08A819B810E9468
:1010C000030363E070E08C819D810E940303F501BE
:1010D000D183C083DF91CF911F910F91FF90EF904B
:1010E000DF90CF90BF90AF909F908F907F906F9048
:1010F0005F904F900895CF93DF9388E00E94530252
:1011000021E0892B09F020E0209351028EE30E9418
:10111000E602EC0180910402909105028C179D0774
:1011200039F481E080935002D0934F02C0934E0275
:1011300080915002882389F080914E0290914F0255
:101140009E01281B390BC90137FF03C0919581957A
:101150009109039714F0109250028091500281116E
:1011600029C08EE30E94E602BC01990F880B990BFF
:101170000E94C60F20E030E040E85AE30E9457107A
:1011800020E030E040E850E40E94C41024EA30E758
:101190004DE75FE30E9457102AE037ED43E25CE33E
:1011A0000E94220F6093000270930102809302025A
:1011B00090930302D0930502C0930402DF91CF9174
:1011C00008950F931F93CF93DF93EC01E881F9818A
:1011D0000284F385E02D1995EA81FB810190F0816D
:1011E000E02D86810E9453022C853D85892B09F0D4
:1011F0004CC02431310524F42F5F3F4F3D872C87AD
:101200008B85811121C08C859D8544970CF444C049
:1012100081E08B878A858823B9F0E881F98106808F
:10122000F781E02DCE0119958C01E881F9810480C8
:10123000F581E02DCE0119954FE750E0B8010E94ED
:1012400025068B85882341F18C859D851816190606
:101250001CF11B868A858823F9F0E881F9810680D4
:10126000F781E02DCE0119958C01E881F981048088
:10127000F581E02DCE01199550E040E0B801DF91F5
:10128000CF911F910F910C942506121613060CF0A6
:10129000B7CF21503109B2CFDF91CF911F910F917C
:1012A00008951F920F920FB60F9211242F933F9320
:1012B0008F939F93AF93BF938091990290919A02DD
:1012C000A0919B02B0919C023091980223E0230FE1
:1012D0002D3758F50196A11DB11D209398028093DA
:1012E000990290939A02A0939B02B0939C028091E2
:1012F0009D0290919E02A0919F02B091A002019642
:10130000A11DB11D80939D0290939E02A0939F0208
:10131000B093A002BF91AF919F918F913F912F9178
:101320000F900FBE0F901F90189526E8230F02967E
:10133000A11DB11DD2CF1F920F920FB60F92112493
:101340000BB60F922F933F934F935F936F937F93BF
:101350008F939F93AF93BF93EF93FF9381E793E0B6
:101360000E94D503FF91EF91BF91AF919F918F9113
:101370007F916F915F914F913F912F910F900BBE95
:101380000F900FBE0F901F9018951F920F920FB6DF
:101390000F9211240BB60F922F938F939F93EF937D
:1013A000FF93E0918103F09182038081E0918703B4
:1013B000F091880382FD1DC0908180918A038F5F28
:1013C0008F7320918B03821741F0E0918A03F0E044
:1013D000EF58FC4F958F80938A03FF91EF919F9177
:1013E0008F912F910F900BBE0F900FBE0F901F90FB
:1013F00018958081F2CFE1E7F3E01382128288EE44
:1014000093E0A0E0B0E084839583A683B78380E473
:1014100092E09183808385EC90E09587848784ECCB
:1014200090E09787868780EC90E0918B808B81ECB1
:1014300090E0938B828B82EC90E0958B848B86EC92
:1014400090E0978B868B118E128E138E148EF093F4
:101450000F04E0930E04E1EAF2E01182108213829D
:1014600012821582148217821682118610861386C4
:1014700012861586148617861686118A108A138A94
:10148000128A158A148A178A168A118E108E138E64
:10149000128E158E148E178E168E11A210A213A204
:1014A00012A215A214A217A216A211A610A68EE0CF
:1014B00094E093A782A714A615A616A613AA12AAAB
:1014C00015AA14AA8FEF9FEF97AB86AB91AF80AFB1
:1014D00083E08093DB0213AE14AE15AE16AE10920D
:1014E0006003E0EEF2E080E8DF011D928A95E9F703
:1014F00010926303109264031092650310926603C6
:1015000010926703109268031092690310926A03A5
:1015100010926B0310926C0310926D0310926E0385
:1015200010926F03109270030895CF93DF93CDB79D
:10153000DEB72C970FB6F894DEBF0FBECDBF789400
:1015400084B5826084BD84B5816084BD85B58260C8
:1015500085BD85B5816085BD80916E008160809379
:101560006E001092810080918100826080938100E2
:1015700080918100816080938100809180008160F2
:10158000809380008091B10084608093B10080914D
:10159000B00081608093B000809191008260809360
:1015A00091008091910081608093910080919000E2
:1015B0008160809390008091A10082608093A1005F
:1015C0008091A10081608093A1008091A000816042
:1015D0008093A000809121018260809321018091FD
:1015E000210181608093210180912001816080939D
:1015F000200180917A00846080937A0080917A0043
:10160000826080937A0080917A00816080937A0072
:1016100080917A00806880937A001092C10062E025
:1016200088E00E94AA0261E088E00E947C0260E0FB
:101630008EE30E94AA0260E08EE30E947C028EE3A9
:101640000E94E6020E947B08E091CB02F091CC025E
:10165000808191810E94C5011092CD021092CF022B
:101660001092CE021092D6021092D5021092D4029D
:101670001092D3028FEF9FEF9093D8028093D702FE
:101680009093DA028093D9022FB7F894809199024F
:1016900090919A02A0919B02B0919C022FBF8093DF
:1016A000630390936403A0936503B0936603109261
:1016B00060031092DD021092DC021092DE021092A2
:1016C000DF0210926203109261038091DB0281704D
:1016D000826081608093DB022EE832E03A832983C6
:1016E000B12CA12C88EE882E83E0982E9DEC492EFB
:1016F0009CEC592E652C9DE3792E8BE490E00E94A2
:10170000E7129C838B83DC0111961C921E92139628
:101710001C921E92129719969C928E921897FC0119
:10172000128613861486158616869783868320E193
:1017300032E0358324831786118A108A04960E942A
:101740009F04AB81BC8157969C928E925697FD0167
:10175000108E118E128E138E148EB58BA48B20E2F8
:1017600032E0338B228B5D964D925D926D927C922E
:10177000909796961C921E92959717A210A611A666
:1017800012A614A613A616A615A610AA17A612AA84
:1017900011AA14AA13AA28E230E036AB25AB90AE0A
:1017A00087AA11AE13AE12AE83E090E095AF84AF7E
:1017B000CD0142960E943305AB81BC81DF961C921D
:1017C0001E92DE97A05CBF4F11961C921E92EB8179
:1017D000FC81EE5BFF4F118210822B803C80E4E4A1
:1017E0002E0E311CF10111821082EB81FC81EA5B2B
:1017F000FF4F11821082EB81FC81E85BFF4F118269
:101800001082EB81FC81E65BFF4F108280918802A1
:10181000909189028031910584F4FC01EE0FFF1F45
:10182000E859FD4F2B813C81318320838D939C931C
:1018300001969093890280938802A981BA81EB81F5
:10184000FC81ED93FD93BA83A983F1E0AF16B10457
:1018500009F435C122E0A216B10409F43FC1B6E192
:10186000CB2ED12C18E1E12EF12C06E310E027E17C
:1018700030E049E150E06BE170E08B819C810E9497
:101880003108D1018D919C91019721F08B819C8130
:101890000E94CF07BFEFAB1ABB0AE3E0AE16B1045C
:1018A00009F02BCF84E090E00E94E71220E332E0C1
:1018B000DC0111963C932E9321E733E013963C9381
:1018C0002E93129720916602309167022A303105DB
:1018D0006CF4F901EE0FFF1FEE5AFD4F91838083E8
:1018E0002F5F3F4F309367022093660282E090E0C3
:1018F0000E94E71228E332E0FC013183208320912B
:101900006602309167022A3031056CF4F901EE0F5E
:10191000FF1FEE5AFD4F918380832F5F3F4F30931F
:1019200067022093660281E793E00E94C5010E944E
:101930003C034B015C0148EEC42E43E0D42EE12C65
:10194000F12C0E943C03681979098A099B09683EB9
:10195000734081059105A8F3F1E0CF1AD108E108A1
:10196000F10828EE820E23E0921EA11CB11CC114C6
:10197000D104E104F10429F735E0632E712C0E94B3
:101980003C032091940230919502AB01421B530B12
:101990004436510574F484E690E0841B950B813045
:1019A000910539F0880F991F880F991F05970197A6
:1019B000F1F78EE892E09C838B83AB81BC81ED9143
:1019C000FD91BC83AB83FC87EB870190F081E02D18
:1019D00084810E9453022B853C852C5B3F4F19016B
:1019E000892B79F4EB85FC85E85BFF4F118210822F
:1019F000D9018D919C91019751F08B859C850E9416
:101A0000CF07F10180819181019709F0A6C1AB85D3
:101A1000BC85ED91FC911197A65BBF4FBA83A9835A
:101A2000309751F080810E945302892B09F465C0E0
:101A300021E0E981FA812083E981FA8180812B8587
:101A40003C85285B3F4F6901882309F4E6C0D90132
:101A50008D919C91893EB3E09B0720F40196F9019A
:101A600091838083D6018D919C91883E934009F0AB
:101A7000D7C0EB85FC85808191810E940E08AB85E3
:101A8000BC850D90BC91A02DB887AF83E8E6F2E04D
:101A9000FE83ED835F0110E000E080918802909169
:101AA0008902081719076CF5D501ED91FD915D01CB
:101AB000808191810E94B8070F5F1F4FEECFF0E247
:101AC000CF2ED12CA2E2EA2EF12C07E310E021E286
:101AD00030E043E250E065E270E0CFCE7AE2C72E1C
:101AE000D12CECE2EE2EF12C08E310E02BE230E0FA
:101AF0004DE250E06FE270E0C0CEA981BA811C9245
:101B00009BCFF12CE12C8091880290918902E816FC
:101B1000F9060CF0E9C0ED81FE81A190B190FE8341
:101B2000ED83D5014D905C904114510449F0EF8153
:101B3000F8850FEF13E0912C812CE415F50529F4BD
:101B4000FFEFEF1AFF0ADFCF8C01940121703327DA
:101B50003A872987C20180FCA4C00E94B8078FE0A1
:101B600090E00197F1F7AF81B88516968C910E94AD
:101B7000E602E985FA85EF2B09F096C080179107F8
:101B80000CF096C0FFEF8F1A9F0A24E6821691048C
:101B9000D9F6F501EC5BFF4F80819181059799F0B3
:101BA00071826082329680819181059711F07182F5
:101BB0006082D5018D919C910E94F707F5011382F7
:101BC00012820E94B404F10180819181049701F195
:101BD00084E090E091838083EB85FC85EA5BFF4F96
:101BE000208131812430310511F091838083AB85D0
:101BF000BC858D919C910E940E088B859C85429698
:101C0000EB85FC85938382830E9433050E94B40494
:101C1000A981BA818C91811103C0F60111821082D1
:101C2000E4E9F2E02B813C81E217F30709F0C5CE2D
:101C3000C0908A02D0908B02E0908C02F0908D02CE
:101C4000C701B6012AE030E040E050E00E94C60E35
:101C5000672B682B692B11F40E947B0830E8C316B0
:101C600036E9D30638E9E306F1040CF086C08FEFBD
:101C7000C81AD80AE80AF80AC0928A02D0928B02DF
:101C8000E0928C02F0928D020E943C0360939402D9
:101C90007093950280939602909397020E94640439
:101CA0006ECE0E94F7075BCF081719070CF46ACFB6
:101CB000F501EC5BFF4F80819181118210828230AF
:101CC000910551F08330910559F0019709F038CF13
:101CD000C5010E94CF0734CFC5010E94FC0430CF5C
:101CE000C5010E9457052CCFAB85BC850D911C9179
:101CF00064E070E0F801868197810E94030370E040
:101D000060E0D80118968D919C910E94030362E0D7
:101D100070E0F801828593850E940303AB85BC8542
:101D2000ED91FC9182850E945302892B59F0D101DB
:101D30008D919C91029709F46BCF8B859C850E94B5
:101D4000FC0466CFF10180819181039709F460CF93
:101D50008B859C850E9457055BCFAB85BC85129611
:101D60008D919C91009709F45BCFDC01ED91FC9182
:101D70000190F081E02D199553CF10928A021092B4
:101D80008B0210928C0210928D027ECF052E97FB53
:101D90001EF400940E94DD0E57FD07D00E94F00E45
:101DA00007FC03D04EF40C94DD0E50954095309511
:101DB00021953F4F4F4F5F4F0895909580957095B7
:101DC00061957F4F8F4F9F4F08950E94120FA59FDF
:101DD000900DB49F900DA49F800D911D1124089526
:101DE000A1E21A2EAA1BBB1BFD010DC0AA1FBB1F1F
:101DF000EE1FFF1FA217B307E407F50720F0A21B91
:101E0000B30BE40BF50B661F771F881F991F1A94FD
:101E100069F760957095809590959B01AC01BD0127
:101E2000CF010895A29FB001B39FC001A39F700D81
:101E3000811D1124911DB29F700D811D1124911DD2
:101E400008955058BB27AA270E94390F0C941810E8
:101E50000E940A1038F00E94111020F039F49F3FC0
:101E600019F426F40C9407100EF4E095E7FB0C949B
:101E70000110E92F0E94291058F3BA17620773075F
:101E80008407950720F079F4A6F50C944B100EF416
:101E9000E0950B2EBA2FA02D0B01B90190010C017A
:101EA000CA01A0011124FF27591B99F0593F50F492
:101EB000503E68F11A16F040A22F232F342F4427EA
:101EC000585FF3CF469537952795A795F0405395E2
:101ED000C9F77EF41F16BA0B620B730B840BBAF0B2
:101EE0009150A1F0FF0FBB1F661F771F881FC2F71D
:101EF0000EC0BA0F621F731F841F48F48795779531
:101F00006795B795F7959E3F08F0B0CF9395880FEA
:101F100008F09927EE0F9795879508950E94950FE1
:101F20006894B1110C944C1008950E94311088F0FF
:101F30009F5798F0B92F9927B751B0F0E1F0660F8D
:101F4000771F881F991F1AF0BA95C9F714C0B130CE
:101F500091F00E944B10B1E008950C944B10672F44
:101F6000782F8827B85F39F0B93FCCF386957795FD
:101F70006795B395D9F73EF49095809570956195E6
:101F80007F4F8F4F9F4F0895E89409C097FB3EF411
:101F900090958095709561957F4F8F4F9F4F9923B6
:101FA000A9F0F92F96E9BB279395F6958795779534
:101FB0006795B795F111F8CFFAF4BB0F11F460FFF4
:101FC0001BC06F5F7F4F8F4F9F4F16C0882311F04C
:101FD00096E911C0772321F09EE8872F762F05C060
:101FE000662371F096E8862F70E060E02AF09A95FB
:101FF000660F771F881FDAF7880F9695879597F9F0
:10200000089597F99F6780E870E060E008959FEF7A
:1020100080EC089500240A9416161706180609067F
:10202000089500240A94121613061406050608954E
:10203000092E0394000C11F4882352F0BB0F40F4D6
:10204000BF2B11F460FF04C06F5F7F4F8F4F9F4F16
:10205000089557FD9058440F551F59F05F3F71F098
:102060004795880F97FB991F61F09F3F79F08795FF
:102070000895121613061406551FF2CF4695F1DF88
:1020800008C0161617061806991FF1CF8695710518
:10209000610508940895E894BB2766277727CB014C
:1020A00097F908950E944E1108F48FEF08950E9449
:1020B0006A100C9418100E940A1038F00E94111037
:1020C00020F0952311F00C9401100C9407101124AA
:1020D0000C944C100E94291070F3959FC1F3950F3A
:1020E00050E0551F629FF001729FBB27F00DB11D9C
:1020F000639FAA27F00DB11DAA1F649F6627B00D2C
:10210000A11D661F829F2227B00DA11D621F739F14
:10211000B00DA11D621F839FA00D611D221F749F22
:102120003327A00D611D231F849F600D211D822F69
:10213000762F6A2F11249F5750409AF0F1F0882390
:102140004AF0EE0FFF1FBB1F661F771F881F9150BD
:102150005040A9F79E3F510580F00C9401100C945B
:102160004C105F3FE4F3983ED4F3869577956795DE
:10217000B795F795E7959F5FC1F7FE2B880F911DE7
:102180009695879597F90895FA01EE0FFF1F3096FF
:1021900021053105A1F16115710561F48038BFE3B6
:1021A0009B0749F168949038810561F08038BFEF52
:1021B0009B0741F099234AF5FF3FE10531052105D1
:1021C00019F1E8940894E795D901AA2329F4AB2FD3
:1021D000BE2FF85FD0F310C0FF5F70F4A695E0F754
:1021E000F73950F019F0FF3A38F49F779F930DD0EC
:1021F0000F9007FC9058089546F00C94071060E08B
:1022000070E080E89FE308954FE79F775F934F93D7
:102210003F932F930E94E3112F913F914F915F9134
:102220000E9457100C941C1129F416F00C94011004
:102230000C944B100C9407100E943110A8F39638A0
:10224000A0F707F80F92E8942BE33AEA48EB5FE730
:102250000E946D100F920F920F924DB75EB70F92C2
:102260000E942B12E4EEF0E00E9472114F915F91F8
:10227000EF91FF91E595EE1FFF1F49F0FE57E068D3
:102280004427EE0F441FFA95E1F74195550B0E9444
:10229000A5110F9007FE0C9499110895990F00084D
:1022A000550FAA0BE0E8FEEF16161706E807F90728
:1022B000C0F012161306E407F50798F0621B730BC3
:1022C000840B950B39F40A2661F0232B242B252B44
:1022D00021F408950A2609F4A140A6958FEF811DE7
:1022E000811D0895DF93CF931F930F93FF92EF9279
:1022F000DF927B018C01689406C0DA2EEF010E9408
:102300006A10FE01E894A59125913591459155916A
:10231000A6F3EF010E94390FFE019701A801DA949C
:1023200069F7DF90EF90FF900F911F91CF91DF91B0
:1023300008959B01AC0160E070E080E89FE30C949D
:102340005F120C9401100C94D1120E943110D8F33A
:102350009923C9F3940F511DA3F39150504094F069
:1023600059F0882332F0660F771F881F9150504034
:10237000C1F79E3F51052CF7880F911D96958795C3
:1023800097F908955F3FACF0983E9CF0BB27869587
:1023900077956795B79508F4B1609395C1F7BB0F32
:1023A00058F711F460FFE8CF6F5F7F4F8F4F9F4F5B
:1023B000E3CF0C944C1016F00C94D1120C9407102F
:1023C00068940C9401100E943110A8F39923C1F372
:1023D000AEF3DF93CF931F930F93FF92C92FDD27A7
:1023E00088232AF02197660F771F881FDAF720E0ED
:1023F00030E040E85FEB9FE3883920F0803E38F022
:1024000021968F770E94220FECE0F1E004C00E9439
:10241000220FE9E3F1E00E9472118B01BE01EC0191
:10242000FB2E6F5771097595771F880B990B0E94CA
:10243000C60F28E132E741E35FE30E946A10AF2D47
:102440009801AE01FF900F911F91CF91DF910E94F3
:10245000390F0C941810FA01DC01AA0FBB1F9B0165
:10246000AC01BF5728F4222733274427507820C0D7
:10247000B75190F4AB2F0024469537952795011C52
:10248000A395D2F3002071F0220F331F441FB395A0
:10249000DAF30ED00C94210F61307105A0E88A07A1
:1024A000B94630F49B01AC016627772788279078DE
:1024B000309621F0208331834283538308950E9414
:1024C00073120C9418100E94111058F00E940A10F8
:1024D00040F029F45F3F29F00C94011051110C9445
:1024E0004C100C9407100E94291068F39923B1F343
:1024F000552391F3951B550BBB27AA27621773072A
:10250000840738F09F5F5F4F220F331F441FAA1FBD
:10251000A9F335D00E2E3AF0E0E832D09150504079
:10252000E695001CCAF72BD0FE2F29D0660F771F27
:10253000881FBB1F261737074807AB07B0E809F00D
:10254000BB0B802DBF01FF2793585F4F3AF09E3F92
:10255000510578F00C9401100C944C105F3FE4F39B
:10256000983ED4F3869577956795B795F7959F5FD5
:10257000C9F7880F911D9695879597F90895E1E021
:10258000660F771F881FBB1F621773078407BA0780
:1025900020F0621B730B840BBA0BEE1F88F7E095DB
:1025A00008959F3F31F0915020F487957795679576
:1025B000B795880F911D9695879597F90895EE0F19
:1025C000FF1F881F8BBF0790F691E02D19940F9382
:1025D0001F93CF93DF938230910510F482E090E057
:1025E000E0911204F091130430E020E0B0E0A0E0AC
:1025F000309799F42115310509F44AC0281B390B8D
:1026000024303105D8F58A819B816115710589F1E6
:10261000FB0193838283FE0111C0408151810281BD
:10262000138148175907E0F04817590799F4109794
:1026300061F012960C93129713961C933296CF0169
:10264000DF91CF911F910F91089500931204109381
:102650001304F4CF2115310551F04217530738F018
:10266000A901DB019A01BD01DF01F801C1CFEF0132
:10267000F9CF9093130480931204CDCFFE01E20FA3
:10268000F31F819391932250310939832883D7CF47
:102690002091100430911104232B41F42091080261
:1026A0003091090230931104209310042091060206
:1026B000309107022115310541F42DB73EB7409105
:1026C0000A0250910B02241B350BE0911004F0918B
:1026D0001104E217F307A0F42E1B3F0B281739074C
:1026E00078F0AC014E5F5F4F2417350748F04E0F6E
:1026F0005F1F5093110440931004819391939FCFD7
:10270000F0E0E0E09CCFCF93DF930097E9F0FC018D
:10271000329713821282A0911204B0911304ED013A
:1027200030E020E01097A1F420813181820F931FC7
:1027300020911004309111042817390709F061C065
:10274000F0931104E0931004DF91CF910895EA0112
:10275000CE17DF07E8F54A815B819E0141155105DF
:10276000B1F7E901FB83EA8349915991C40FD51F61
:10277000EC17FD0761F4808191810296840F951F0B
:10278000E90199838883828193819B838A83F0E026
:10279000E0E012968D919C9113970097B9F52D91D9
:1027A0003C911197CD010296820F931F2091100446
:1027B000309111042817390739F6309751F51092E6
:1027C000130410921204B0931104A0931004BCCF10
:1027D000D383C28340815181840F951FC817D907C5
:1027E00061F44E5F5F4F88819981480F591F518373
:1027F00040838A819B81938382832115310509F06F
:10280000B0CFF0931304E09312049ECFFD01DC01DE
:0C281000C0CF13821282D7CFF894FFCF04
:10281C000000003FFFFF00001404800000000000D7
:10282C00E1089F04B6052B082E088E050000000059
:10283C004D063305B605280825088E050000000056
:10284C00F305E80500000000C205C105000000000A
:0E285C00F70361038E034404BF039D03B10321
:00000001FF
