:020000040000FA
:100000000C9473010C94A4010C94A4010C94A4010D
:100010000C94A4010C94A4010C94A4010C94A401CC
:100020000C94A4010C94A4010C94A4010C94A401BC
:100030000C94A4010C94A4010C94A4010C94A401AC
:100040000C94A4010C94A4010C94A4010C94A4019C
:100050000C94A4010C94A4010C94A4010C94FC082D
:100060000C94A4010C9470090C9446090C94A401FE
:100070000C94A4010C94A4010C94A4010C94A4016C
:100080000C94A4010C94A4010C94A4010C94A4015C
:100090000C94A4010C94A4010C94A4010C94A4014C
:1000A0000C94A4010C94A4010C94A4010C94A4013C
:1000B0000C94A4010C94A4010C94A4010C94A4012C
:1000C0000C94A4010C94A4010C94A4010C94A4011C
:1000D0000C94A4010C94A4010C94A4010C94A4010C
:1000E0000C94A4010C9461040C94F1010C9431065D
:1000F0000C9467030C942A030C9432030C947B0336
:100100000C9444030C9406020C94A6090C948304EA
:100110000C942B020C9422020C9430020C94F901E2
:100120000C943D080C940C030C9499030C94250436
:100130000C94FD010C9463060C94BB040C942C02EB
:100140000C94C3050C9400020C94EC050C94FF0273
:100150000C948F030C944E030C9452040C941603CD
:100160000C9408050C948C080C9418020C947103E0
:100170000C9458030C9410020C940A020C94EB019A
:100180000C9420030C9432060C9458060C944008EE
:100190000C9485030C9426020C943A080C94BD062A
:1001A0000C9475040C943A030C94F5010C9410060D
:1001B0000C9437080C9405060C9407030C94140255
:1001C0000C941E0200002100240027002A002D00AC
:1001D0003000330001010000040107010A010000A2
:1001E0002200250028002B002E00310034000201DF
:1001F0000000050108010B0100002000230026007B
:1002000029002C002F00320000010000030106012C
:10021000090105050505070508080808020202028C
:100220000A0A080804040404010101010101010192
:100230000303030303030303040707070C0C0C0C5D
:100240000C0C0C0C02020202060606060606060646
:100250000B0B0B0B0B0B0B0B0102102020080810D3
:100260002040102040800201020108040201010226
:1002700004081020408080402010080402018004FF
:10028000020180402010080402010804020101025A
:100290000408102040800102040810204080000063
:1002A0000A0B02090C0D0E080703040100000000F0
:1002B000000000000000000000000000000000003E
:1002C00000000000000000000000121110000000FB
:1002D000000000000000000000000000000000001E
:1002E00000000000A60911241FBECFEFD1E2DEBF3F
:1002F000CDBF00E00CBF12E0A0E0B2E0E8EEF4E217
:1003000000E00BBF02C007900D92AC34B107D9F7E3
:1003100024E0ACE4B2E001C01D92A630B207E1F7E0
:1003200011E0C3E7D1E000E006C021970109802F6A
:10033000FE010E944511C237D10780E00807A9F7E6
:100340000E94400A0C9472120C940000FC01A089D7
:10035000B18982E08C93A485B5851C92A685B7856A
:100360008FE38C93108EA489B58986E08C93A28943
:10037000B3898C9180618C93A289B3898C918860B8
:100380008C93A289B3898C9180688C930288F389BD
:10039000E02D80818F7D808308958150823108F027
:1003A0005AC0E82FF0E08827E752FE4F8F4F0C9499
:1003B0004511F901FD01EB01F101F5012B020002EC
:1003C00006020A021002140218021E0222022B0266
:1003D00026022C023002809180008F77809380006B
:1003E0000895809180008F7DF9CF80918000877F74
:1003F000F5CF84B58F7784BD089584B58F7DFBCF0D
:100400008091B0008F778093B00008958091B00004
:100410008F7DF9CF809190008F7780939000089521
:10042000809190008F7DF9CF80919000877FF5CFEC
:100430008091A0008F778093A00008958091A00004
:100440008F7DF9CF8091A000877FF5CF809120012B
:100450008F77809320010895809120018F7DF9CFBF
:1004600080912001877FF5CFCF93DF93282F30E055
:10047000F901E256FD4F8491F901E85AFD4FD491FC
:10048000F901EE5EFD4FC491CC23A1F081110E94D1
:10049000CD01EC2FF0E0EE0FFF1FE850FE4FA591CD
:1004A000B491EC91ED2381E090E009F480E0DF91DC
:1004B000CF91089580E090E0FACF1F93CF93DF9320
:1004C000282F30E0F901E256FD4F8491F901E85AF6
:1004D000FD4FD491F901EE5EFD4FC491CC23A9F0FC
:1004E000162F81110E94CD01EC2FF0E0EE0FFF1FBF
:1004F000E252FE4FA591B4918FB7F894EC9111118F
:1005000008C0D095DE23DC938FBFDF91CF911F9180
:100510000895DE2BF8CFCF93DF9390E0FC01E85AEB
:10052000FD4F24918E5E9D4FFC0184918823C9F07C
:1005300090E0880F991FFC01EC53FE4FA591B491F8
:10054000FC01E252FE4FC591D49161110DC09FB7DD
:10055000F8948C91209582238C938881282328837A
:100560009FBFDF91CF910895623051F49FB7F89407
:100570003C91822F809583238C93E8812E2BEFCFA3
:100580008FB7F894EC912E2B2C938FBFEACF1F934B
:10059000CF93DF93182FEB0161E00E948B0220972D
:1005A00039F460E0812FDF91CF911F910C945D02AF
:1005B000CF3FD10511F461E0F5CFE12FF0E0E25635
:1005C000FD4FE491E150E23108F0B3C0F0E088273C
:1005D000E351FD4F8F4F0C944511FF0207030C03AD
:1005E0001603200399032A0332033A0344034E03FC
:1005F00058036703710399037B0385038F0384B555
:10060000806884BDC7BDDF91CF911F91089584B5E7
:10061000806284BDC8BDF7CF8091800080688093E0
:100620008000D0938900C0938800EDCF8091800036
:10063000806280938000D0938B00C0938A00E3CFC8
:1006400080918000886080938000D0938D00C0935B
:100650008C00D9CF8091B00080688093B000C093A7
:10066000B300D1CF8091B00080628093B000C0937E
:10067000B400C9CF80919000806880939000D0939F
:100680009900C0939800BFCF8091900080628093C2
:100690009000D0939B00C0939A00B5CF80919000BA
:1006A000886080939000D0939D00C0939C00ABCF56
:1006B0008091A00080688093A0008091A0008F7B33
:1006C0008093A000D093A900C093A8009CCF8091F4
:1006D000A00080628093A000D093AB00C093AA00DA
:1006E00092CF8091A00088608093A000D093AD004D
:1006F000C093AC0088CF8091200180688093200156
:10070000D0932901C09328017ECF8091200180627F
:1007100080932001D0932B01C0932A0174CF809144
:100720002001886080932001D0932D01C0932C017B
:100730006ACFC038D1050CF03ECF33CF863308F0F6
:10074000865320917B00982F9870277F922B90934F
:100750007B008770806480937C0080917A00806445
:1007600080937A0080917A0086FDFCCF809178009A
:10077000909179000895CF93DF93009791F1EC0168
:1007800062307105C1F02CF46130710529F161E02E
:100790001AC063307105B1F064307105C1F760E0D3
:1007A0000E948B0260E08C2F0E945D028C2FDF91F3
:1007B000CF910C949E0360E00E948B0260E08C2F2E
:1007C0000E945D0262E08C2F0E948B0261E08C2F00
:1007D000DF91CF910C945D0261E00E948B0260E09A
:1007E000F6CFDF91CF9108953FB7F89480918F02B3
:1007F00090919002A0919102B091920226B5A89B8F
:1008000005C02F3F19F00196A11DB11D3FBFBA2FA2
:10081000A92F982F8827BC01CD01620F711D811D62
:10082000911D42E0660F771F881F991F4A95D1F7E7
:1008300008952FB7F89460918B0270918C0280918B
:100840008D0290918E022FBF0895AF92BF92CF92EA
:10085000DF92EF92FF920F931F93CF93DF936C0180
:100860007B018B01040F151FEB015E01AE18BF0861
:10087000C017D10759F06991D601ED91FC91019013
:10088000F081E02DC6011995892B79F7C501DF911B
:10089000CF911F910F91FF90EF90DF90CF90BF907D
:1008A000AF900895FC01538D448D252F30E0842FA7
:1008B00090E0821B930B541710F0CF960895019788
:1008C0000895FC01918D828D981761F0A28DAE0F75
:1008D000BF2FB11D5D968C91928D9F5F9F73928FFC
:1008E00090E008958FEF9FEF0895FC01918D828D28
:1008F000981731F0828DE80FF11D858D90E00895F5
:100900008FEF9FEF0895FC01918D228D892F90E04C
:10091000805C9F4F821B91098F739927089583E60E
:1009200093E00E94830421E0892B09F420E0822FC8
:100930000895FC01A48DA80FB92FB11DA35ABF4F74
:100940002C91848D90E001968F739927848FA689CE
:10095000B7892C93A089B1898C91837080648C9322
:10096000938D848D981306C00288F389E02D8081D1
:100970008F7D80830895EF92FF920F931F93CF9303
:10098000DF93EC0181E0888F9B8D8C8D98131AC0CA
:10099000E889F989808185FF15C09FB7F894EE89B1
:1009A000FF896083E889F98980818370806480830E
:1009B0009FBF81E090E0DF91CF911F910F91FF9059
:1009C000EF900895F62E0B8D10E00F5F1F4F0F7301
:1009D0001127E02E8C8D8E110CC00FB607FCFACFBC
:1009E000E889F989808185FFF5CFCE010E949904BD
:1009F000F1CFEB8DEC0FFD2FF11DE35AFF4FF0828D
:100A00009FB7F8940B8FEA89FB8980818062CFCFF2
:100A1000CF93DF93EC01888D8823B9F0AA89BB8935
:100A2000E889F9898C9185FD03C0808186FD0DC020
:100A30000FB607FCF7CF8C9185FFF2CF808185FF41
:100A4000EDCFCE010E949904E9CFDF91CF910895B7
:100A500080E090E0892B29F00E948F0481110E9490
:100A6000000080E090E0892B49F080E090E0892B45
:100A700029F00E94000081110E94000080E090E0B7
:100A8000892B49F080E090E0892B29F00E9400003A
:100A900081110E94000080E090E0892B49F080E005
:100AA00090E0892B29F00E94000081110C94000035
:100AB0000895DC018D919C91DC01ED91FC910190F8
:100AC000F081E02D1994CF93DF93EC0188816623A8
:100AD00059F06FEF70E00E94C70285E090E09B83C1
:100AE0008A83DF91CF91089570E060E00E94C70291
:100AF0001B821A82F6CFCF92DF92EF92FF920F9372
:100B00001F93CF93DF93C0906C02D0906D02ACE442
:100B1000B2E050E040E0F0E0E0E070E060E04C1572
:100B20005D0544F58D919D919C012E5B3F4FE90140
:100B3000288139812230310559F48C01005C1F4F26
:100B40007F01DFE0ED22FF24E801F982E88231969F
:100B5000235031092230310550F4805C9F4F9B01B6
:100B60002F703327EC01398328836F5F7F4F4F5FEE
:100B70005F4FD5CFDF91CF911F910F91FF90EF90F5
:100B8000DF90CF9008950F931F93CF93DF93EC01E5
:100B90000E9419040F81188529853A85AB01BC0193
:100BA000401B510B620B730B8D819E81092E000C33
:100BB000AA0BBB0B481759076A077B0738F41B863B
:100BC00080E0DF91CF911F910F9108958B85811166
:100BD000F8CF81E08B87F5CFDC011296ED91FC9187
:100BE000E05CFF4F8081918180559F4F089508956B
:100BF000CF93DF93EC010E9419046F837887898774
:100C00009A871B86DF91CF910895CF93DF93EC01F4
:100C10000E94F8051C861E861D86DF91CF910895DF
:100C2000CF93DF93EC010E94F80582E390E0998B6B
:100C3000888B88EE93E09B8B8A8B1E8A1F8A188E86
:100C4000198E1D8E1C8E1F8E1E8E19A218A20E9438
:100C500019046AA37BA38CA39DA31EA2DF91CF914D
:100C600008950895CF93DF9337FF1FC06F706150D1
:100C70006031D8F4E901D42F606B8091BD0290916E
:100C8000BE020E9459056D2F6F778091BD02909131
:100C9000BE020E9459056C2F6F778091BD02909122
:100CA000BE02DF91CF910C945905DF91CF91089549
:100CB000DC0112968D919C91DC01ED91FC910190EB
:100CC000F081E02D1994FF920F931F93CF93DF9340
:100CD000EC01F42E89018A819B81DC01ED91FC916C
:100CE0000190F081E02D19958A819B81DC01ED91C5
:100CF000FC910190F081E02D6F2D199517FD0FC02B
:100D00008A819B81DC01ED91FC910190F081E02DC5
:100D1000602FDF91CF911F910F91FF901994DF9178
:100D2000CF911F910F91FF900895CF92DF92EF9294
:100D3000FF920F931F93CF93DF938C017B016A0186
:100D4000CEE6D2E089919991009771F0DC01ED91A6
:100D5000FC910190F081E02D9601A701B801199551
:100D6000B2E0C238DB0771F7DF91CF911F910F918D
:100D7000FF90EF90DF90CF9008958F929F92AF9267
:100D8000BF92CF92DF92EF92FF920F931F93CF9378
:100D9000DF93EC01E881F9810284F385E02D199558
:100DA000EA81FB810190F081E02D86810E949E0303
:100DB0009C010196C888D9888C159D050CF46C019E
:100DC000D98AC88AC9010197EA89FB89E817F90716
:100DD0000CF4FC01FB8BEA8B0D2C000CEE08FF08D9
:100DE000032E000C440B550B2C193D094E095F09CD
:100DF000AFEFB3E00E94350F9F01FF0F440B550B7F
:100E00002C193D094E095F090E94160F69018901DD
:100E10008EA1882399F18EA1811156C0DD8ECC8ED2
:100E20008E889F88A88CB98CB601DD0C880B990B35
:100E30000E942310A50194010E94790F2C853D8505
:100E40004E855F850E94D810A50194010E947A0FFB
:100E50006B017C01CE8ADF8AE88EF98E20E030E0DB
:100E6000A9010E94D31087FF49C020E030E040E094
:100E70005FE3C701B6010E94790F48C08C8D9D8D3C
:100E80008217930744F681E08EA30E9419046AA397
:100E90007BA38CA39DA32FA138A54901330FAA08DA
:100EA000BB08681579058A059B050CF0B4CFDF9166
:100EB000CF911F910F91FF90EF90DF90CF90BF9057
:100EC000AF909F908F9008958C8D9D8D0817190776
:100ED0000CF0A4CF1EA20E9419046AA37BA38CA3CA
:100EE0009DA32FA138A58901330F220B330B601767
:100EF0007107820793070CF091CFD9CF20E030E043
:100F000040E05FE3C701B6010E947A0F0E94EB0F39
:100F10008B85882361F28C8181112AC08B0123E0AB
:100F2000159507952A95E1F717FF02C010E000E03C
:100F30000038110514F00FE710E08E8D9F8D80179B
:100F4000910799F0E881F9810680F781E02DCE01C3
:100F500019957C01E881F9810480F581E02DCE01AD
:100F60001995A801B7010E9495061F8F0E8F9FCF7C
:100F700084E0660F771F8A95E1F77B01E894E7F834
:100F8000FF248B01000F012F001F110B17FF02C060
:100F900010E000E00038110514F00FE710E088A120
:100FA00099A1E816F90629F48E8D9F8D0817190767
:100FB00099F0E881F9810084F185E02DCE01199541
:100FC0006C01E881F9810480F581E02DCE0119954D
:100FD000A701B6010E9495068E8D9F8D08171907EF
:100FE00099F0E881F9810680F781E02DCE0119950D
:100FF0006C01E881F9810480F581E02DCE0119951D
:10100000A801B6010E9495061F8F0E8FF9A2E8A2D3
:101010004ECFCF93DF93EC0164E070E08E819F812F
:101020000E94BB0361E070E0888599850E94BB0344
:1010300061E070E08A859B85DF91CF910C94BB03C2
:10104000CF93DF93EC0161E070E08E819F810E947D
:10105000BB0361E070E0888599850E94BB0361E075
:1010600070E08A859B85DF91CF910C94BB038BE266
:1010700090E008958BE090E0089580E490E008957A
:1010800080E290E0089590E080E008956F927F9272
:101090008F929F92AF92BF92CF92DF92EF92FF9288
:1010A0000F931F93CF93DF936C014B015A013901CA
:1010B0008CE090E00E944D11EC0199828882BB8205
:1010C000AA827D826C821F830E83F986E8861B8646
:1010D0001A8663E070E0C4010E94BB0362E070E026
:1010E0008A819B810E94BB0363E070E08C819D81BB
:1010F0000E94BB03F601D183C083DF91CF911F9182
:101100000F91FF90EF90DF90CF90BF90AF909F90A6
:101110008F907F906F9008950F931F93CF93DF93DD
:10112000EC01E881F9810284F385E02D1995EA81CB
:10113000FB810190F081E02D86810E9434022D8593
:101140003E85892B09F04CC02431310524F42F5FF2
:101150003F4F3E872D878C85811121C08D859E85CF
:1011600044970CF444C081E08C878B858823B9F0C8
:10117000E881F9810680F781E02DCE0119958C0177
:10118000E881F9810480F581E02DCE0119954FE7C2
:1011900050E0B8010E9495068C85882341F18D8529
:1011A0009E85181619061CF11C868B858823F9F07C
:1011B000E881F9810680F781E02DCE0119958C0137
:1011C000E881F9810480F581E02DCE01199550E088
:1011D00040E0B801DF91CF911F910F910C949506DB
:1011E000121613060CF0B7CF21503109B2CFDF91A0
:1011F000CF911F910F9108951F920F920FB60F92EA
:1012000011242F933F938F939F93AF93BF9380911C
:101210008B0290918C02A0918D02B0918E02309140
:101220008A0223E0230F2D3758F50196A11DB11D29
:1012300020938A0280938B0290938C02A0938D025C
:10124000B0938E0280918F0290919002A0919102B2
:10125000B09192020196A11DB11D80938F029093CF
:101260009002A0939102B0939202BF91AF919F918F
:101270008F913F912F910F900FBE0F901F90189557
:1012800026E8230F0296A11DB11DD2CF1F920F9207
:101290000FB60F9211240BB60F922F933F934F93DB
:1012A0005F936F937F938F939F93AF93BF93EF93CE
:1012B000FF9383E693E00E949904FF91EF91BF9121
:1012C000AF919F918F917F916F915F914F913F91DE
:1012D0002F910F900BBE0F900FBE0F901F9018957F
:1012E0001F920F920FB60F9211240BB60F922F93ED
:1012F0008F939F93EF93FF93E0917303F0917403A7
:101300008081E0917903F0917A0382FD1DC0908184
:1013100080917C038F5F8F7320917D03821741F052
:10132000E0917C03F0E0ED59FC4F958F80937C03B6
:10133000FF91EF919F918F912F910F900BBE0F9086
:101340000FBE0F901F9018958081F2CFE3E6F3E077
:101350001382128288EE93E0A0E0B0E0848395834C
:10136000A683B7838EE392E09183808385EC90E03F
:101370009587848784EC90E09787868780EC90E05F
:10138000918B808B81EC90E0938B828B82EC90E050
:10139000958B848B86EC90E0978B868B118E128ECA
:1013A000138E148EF0930104E0930004E3E9F2E05D
:1013B0001182108213821282158214821782168281
:1013C0001186108613861286158614861786168651
:1013D000118A108A138A128A158A148A178A168A21
:1013E000118E108E138E128E158E148E178E168EF1
:1013F00011A210A213A212A215A214A217A216A241
:1014000011A610A680E094E093A782A714A615A6C3
:1014100016A613AA12AA15AA14AA8FEF9FEF97ABCC
:1014200086AB91AF80AF83E08093CD0213AE14AE54
:1014300015AE16AE10925203E2EDF2E080E8DF0145
:101440001D928A95E9F71092550310925603109257
:101450005703109258031092590310925A03109296
:101460005B0310925C0310925D0310925E03109276
:101470005F0310926003109261031092620308955B
:10148000CF93DF9300D000D0CDB7DEB7789484B58A
:10149000826084BD84B5816084BD85B5826085BD70
:1014A00085B5816085BD80916E00816080936E00FE
:1014B00010928100809181008260809381008091F0
:1014C00081008160809381008091800081608093A1
:1014D00080008091B10084608093B1008091B00061
:1014E00081608093B0008091910082608093910030
:1014F0008091910081608093910080919000816043
:10150000809390008091A10082608093A1008091DF
:10151000A10081608093A1008091A00081608093F0
:10152000A00080912101826080932101809121019E
:10153000816080932101809120018160809320014E
:1015400080917A00846080937A0080917A00826032
:1015500080937A0080917A00816080937A008091F4
:101560007A00806880937A001092C100E091BD02F9
:10157000F091BE02808191810E94A6011092BF026B
:101580001092C1021092C0021092C8021092C702BB
:101590001092C6021092C5028FEF9FEF9093CA027D
:1015A0008093C9029093CC028093CB020E941904CD
:1015B0006093550370935603809357039093580399
:1015C000109252031092CF021092CE021092D002CB
:1015D0001092D10210925403109253038091CD02C5
:1015E0008170826081608093CD0284E090E00E94EF
:1015F0004D119A838983DC0113961C921E921297D7
:1016000086E290E08D939C9361E00E948B0270E0F3
:1016100060E0E981FA8180810E94C70229813A81D4
:10162000309385022093840260E0C9010E94630523
:1016300086E892E09A838983D12CC12C18EE212E62
:1016400013E0312E0DEC402E0CEC502E652C0DE3EA
:10165000702E89E490E00E944D119E838D83DC0101
:1016600011961C921E9213961C921E921297189617
:101670001C9218971A963C922E921997FC01138689
:101680001486158616861786978386832EE032E0A9
:1016900035832483108A128A118A04960E940506D3
:1016A000AD81BE8157961C92579759963C922E92C7
:1016B0005897FD01128E138E148E158E168EB68BD2
:1016C000A58B2EE132E0348B238B5F964D925D9299
:1016D0006D927C92929798961C921E92979711A663
:1016E00012A613A614A616A615A610AA17A612AA25
:1016F00011AA14AA13AAD5961D921D921D921C928E
:10170000D897D9961C92D997E2E0F0E0DB96FC934B
:10171000EE93DA97CD0143960E941006AD81BE810B
:10172000DD961C921E92DC97DF961C921E92DE972D
:10173000FD01E05CFF4F118210824D01B2E48B0E7F
:10174000911CF40111821082AD80BE80F4E4AF0ED2
:10175000B11CD5011D921C92ED81FE81EA5BFF4F09
:10176000FC83EB8311821082ED81FE81E85BFF4FE9
:10177000108280916C0290916D02803191059CF4F1
:10178000FC01EE0FFF1FE45BFD4F2D813E81318395
:101790002083D901DF969C938E93DE9701969093D8
:1017A0006D0280936C02E981FA812D813E81219343
:1017B0003193FA83E98331E0C316D10409F474C18B
:1017C000E7E1EE2EF12C06E310E029E130E048E1FC
:1017D00050E066E170E08D819E810E944608D40150
:1017E0008D919C9111970197B1F0E1E0F0E0ED93BC
:1017F000FC93D5018D919C911197019711F0ED9378
:10180000FC93ED81FE81808191810E942008AB8153
:10181000BC811D921C92CA94CD2809F041C184E07C
:1018200090E00E944D112EE232E0FC0131832083D2
:1018300023E633E0338322832091820230918302B6
:101840002A3031056CF4F901EE0FFF1FE259FD4F0C
:10185000918380832F5F3F4F3093830220938202D6
:1018600082E090E00E944D1126E332E0DC012D93EE
:101870003C9320918202309183022A3031056CF42E
:10188000F901EE0FFF1FE259FD4F918380832F5F17
:101890003F4F309383022093820283E693E00E94BD
:1018A000A6010E94F4034B015C0148EEC42E43E004
:1018B000D42EE12CF12C0E94F403681979098A09CD
:1018C0009B09683E734081059105A8F3B1E0CB1AEE
:1018D000D108E108F108E8EE8E0EE3E09E1EA11C9F
:1018E000B11CC114D104E104F10429F726E832E067
:1018F0003C832B83AB81BC81ED91FD91BC83AB8399
:10190000FE83ED830190F081E02D84810E943402FA
:101910000D811E810E5B1F4F892B29F5ED80FE8006
:10192000F6E4EF0EF11CD7011D921C92F8018081A4
:1019300091810197F1F081E090E091838083ED81C6
:10194000FE81EC5BFF4F208131812130310511F0A8
:1019500091838083AD81BE818D919C910E942008EE
:10196000F70111821082D8018D919C91019709F0A5
:10197000ADC1AD81BE81ED91FC911197A85BBF4FC8
:101980007D01309749F080810E943402892B09F44F
:1019900097C021E0F7012083F70180812D813E81EE
:1019A0002A5B3F4F3A832983882309F44AC1D9012E
:1019B0008D919C918131B7E29B0720F40196F9014A
:1019C00091838083A981BA818D919C9180319742C6
:1019D00009F03BC1ED81FE81808191810E9409085F
:1019E000AD81BE814D905C90C0908402D090850204
:1019F000F60182809380312C66246A9433E0732E42
:101A0000B12CA12C632D6170C6010E946305D20127
:101A100016968C910E949E03A0FC55C086159705D2
:101A20000CF055C0FFEFAF1ABF0A3394232D21707D
:101A3000322E3C0134E6A316B10421F76FEF70E0BB
:101A4000D6018C910E94C70225E030E0F601338375
:101A50002283D8018D919C911197049709F4EDC0D0
:101A6000E4E0F0E0ED93FC93ED81FE81EC5BFF4F51
:101A700080819181049721F024E030E0318320833C
:101A8000AD81BE818D919C910E9409088D819E81BE
:101A90004396ED81FE81938382830E941006CBC022
:101AA000CC24C394D12CD5CD7FE1E72EF12C07E3D4
:101AB00010E021E230E040E250E06EE170E08BCED9
:101AC000D7011C9269CF681679060CF4ABCF61E0A0
:101AD000892809F460E0C6010E946305ED81FE815A
:101AE000808191810E940908AD81BE81AD90BC903A
:101AF000F6016280738094E6C92ED12C512C412CC2
:101B000022242A9423E0322ED50116968C910E942D
:101B10009E03821593050CF41C01481659060CF41B
:101B20002C0180908402909085020E94BE0E60E09D
:101B3000C4010E9463058BE891E00197F1F7B1E0E1
:101B4000CB1AD10809F7C0908402D0908502B30166
:101B5000770C880B990B0E9423104B015C0120E04D
:101B600030E0A9010E94D31018160CF077C020E0D5
:101B700030E040EA50E4C501B4010E94E60F87FD61
:101B800006C0812C912C80EAA82E80E4B82EC501D5
:101B9000B4010E94EB0FF6017383628320E030E012
:101BA0004CE452E4C501B4010E94D8100E94EB0F2E
:101BB000D6018C910E94C70242185308F801808117
:101BC0009181B3E04B1651040CF44CC00297A9F17B
:101BD00022E030E031832083ED81FE81EC5BFF4F1A
:101BE00080819181029711F031832083AD81BE8184
:101BF0000D911C9163E070E0F801868197810E944D
:101C0000BB0361E070E0D80118968D919C910E9411
:101C1000BB0361E070E0F801828593850E94BB03FD
:101C20008D819E810496AD81BE8113969C938E9387
:101C300012970E9405060E947B05F70180818111A1
:101C400004C0A981BA811D921C92EB81FC81EA58E3
:101C5000F24009F04FCE0E94280548CE812C912CED
:101C6000540195CF039749F323E030E0318320837B
:101C7000ED81FE81EC5BFF4F80819181039711F034
:101C800031832083AD81BE810D911C9164E070E0B1
:101C9000F801868197810E94BB0370E060E0D80163
:101CA00018968D919C910E94BB0361E070E0F80151
:101CB000828593850E94BB038D819E814396AD8171
:101CC000BE8113969C938E931297E7CEED81FE8191
:101CD00082819381DC01ED91FC910190F081E02DF6
:101CE0001995B3CF8F929F92AF92BF92CF92DF920E
:101CF000EF92FF92CF93DF93EC01688179818A8123
:101D00009B81611571058105910521F464E279EDEE
:101D10008BE597E02DE133EF41E050E00E94160F94
:101D200049015A019B01AC01A7EAB1E40E94350FB9
:101D30006B017C01ACEEB4EFA50194010E94430F4E
:101D4000C60ED71EE81EF91EF7FE06C081E0C81AAF
:101D5000D108E10880E8F80AC882D982EA82FB82C9
:101D6000C701B6019F77DF91CF91FF90EF90DF9091
:101D7000CF90BF90AF909F908F9008958F929F9239
:101D8000AF92BF92CF92DF92EF92FF9260910002EA
:101D90007091010280910202909103026115710518
:101DA0008105910521F464E279ED8BE597E02DE161
:101DB00033EF41E050E00E94160F49015A019B01A8
:101DC000AC01A7EAB1E40E94350F6B017C01ACEED7
:101DD000B4EFA50194010E94430FC60ED71EE81E62
:101DE000F91EF7FE06C081E0C81AD108E10880E8B4
:101DF000F80AC0920002D0920102E0920202F09230
:101E00000302C701B6019F77FF90EF90DF90CF905C
:101E1000BF90AF909F908F90089560930002709351
:101E2000010280930202909303020895052E97FB0E
:101E30001EF400940E942D0F57FD07D00E94480FFA
:101E400007FC03D04EF40C942D0F5095409530951F
:101E500021953F4F4F4F5F4F089590958095709516
:101E600061957F4F8F4F9F4F08950E946A0FA59FE6
:101E7000900DB49F900DA49F800D911D1124089585
:101E8000B7FF0C94350F0E94350F821B930B0895FA
:101E9000A1E21A2EAA1BBB1BFD010DC0AA1FBB1F6E
:101EA000EE1FFF1FA217B307E407F50720F0A21BE0
:101EB000B30BE40BF50B661F771F881F991F1A944D
:101EC00069F760957095809590959B01AC01BD0177
:101ED000CF010895A29FB001B39FC001A39F700DD1
:101EE000811D1124911DB29F700D811D1124911D22
:101EF00008955058BB27AA270E94910F0C9499105F
:101F00000E948B1038F00E94921020F039F49F3F0D
:101F100019F426F40C9488100EF4E095E7FB0C9469
:101F20008210E92F0E94AA1058F3BA1762077307AC
:101F30008407950720F079F4A6F50C94CC100EF4E4
:101F4000E0950B2EBA2FA02D0B01B90190010C01C9
:101F5000CA01A0011124FF27591B99F0593F50F4E1
:101F6000503E68F11A16F040A22F232F342F442739
:101F7000585FF3CF469537952795A795F040539531
:101F8000C9F77EF41F16BA0B620B730B840BBAF001
:101F90009150A1F0FF0FBB1F661F771F881FC2F76C
:101FA0000EC0BA0F621F731F841F48F48795779580
:101FB0006795B795F7959E3F08F0B0CF9395880F3A
:101FC00008F09927EE0F9795879508950E945E1067
:101FD00008F481E008950E94F20F6894B1110C9406
:101FE000CD1008950E94B21088F09F5798F0B92F35
:101FF0009927B751B0F0E1F0660F771F881F991F3E
:102000001AF0BA95C9F714C0B13091F00E94CC1003
:10201000B1E008950C94CC10672F782F8827B85F13
:1020200039F0B93FCCF3869577956795B395D9F795
:102030003EF490958095709561957F4F8F4F9F4F9F
:102040000895E89409C097FB3EF4909580957095AB
:1020500061957F4F8F4F9F4F9923A9F0F92F96E9F4
:10206000BB279395F695879577956795B795F11169
:10207000F8CFFAF4BB0F11F460FF1BC06F5F7F4F06
:102080008F4F9F4F16C0882311F096E911C0772318
:1020900021F09EE8872F762F05C0662371F096E821
:1020A000862F70E060E02AF09A95660F771F881FF0
:1020B000DAF7880F9695879597F90895990F000894
:1020C000550FAA0BE0E8FEEF16161706E807F9070A
:1020D000C0F012161306E407F50798F0621B730BA5
:1020E000840B950B39F40A2661F0232B242B252B26
:1020F00021F408950A2609F4A140A6958FEF811DC9
:10210000811D089597F99F6780E870E060E0089569
:102110009FEF80EC089500240A94161617061806FF
:102120000906089500240A941216130614060506DB
:102130000895092E0394000C11F4882352F0BB0F6C
:1021400040F4BF2B11F460FF04C06F5F7F4F8F4FCF
:102150009F4F089557FD9058440F551F59F05F3F0A
:1021600071F04795880F97FB991F61F09F3F79F0B9
:1021700087950895121613061406551FF2CF46953B
:10218000F1DF08C0161617061806991FF1CF8695BD
:102190007105610508940895E894BB2766277727A1
:1021A000CB0197F908950E945E1008F48FEF08950F
:1021B0000E94EB100C9499100E948B1038F00E9432
:1021C000921020F0952311F00C9482100C9488103A
:1021D00011240C94CD100E94AA1070F3959FC1F3A6
:1021E000950F50E0551F629FF001729FBB27F00DC5
:1021F000B11D639FAA27F00DB11DAA1F649F66271A
:10220000B00DA11D661F829F2227B00DA11D621F68
:10221000739FB00DA11D621F839FA00D611D221F22
:10222000749F3327A00D611D231F849F600D211D06
:10223000822F762F6A2F11249F5750409AF0F1F089
:1022400088234AF0EE0FFF1FBB1F661F771F881FF2
:1022500091505040A9F79E3F510580F00C94821098
:102260000C94CD105F3FE4F3983ED4F386957795B8
:102270006795B795F795E7959F5FC1F7FE2B880F98
:10228000911D9695879597F90895EE0FFF1F881F6A
:102290008BBF0790F691E02D19940F931F93CF9366
:1022A000DF938230910510F482E090E0E091040425
:1022B000F091050430E020E0B0E0A0E0309799F420
:1022C0002115310509F44AC0281B390B243031058A
:1022D000D8F58A819B816115710589F1FB01938392
:1022E0008283FE0111C04081518102811381481710
:1022F0005907E0F04817590799F4109761F01296C2
:102300000C93129713961C933296CF01DF91CF91C5
:102310001F910F9108950093040410930504F4CFC6
:102320002115310551F04217530738F0A901DB019F
:102330009A01BD01DF01F801C1CFEF01F9CF909300
:10234000050480930404CDCFFE01E20FF31F8193B7
:1023500091932250310939832883D7CF20910204E9
:1023600030910304232B41F420910602309107029F
:10237000309303042093020420910402309105025B
:102380002115310541F42DB73EB740910802509117
:102390000902241B350BE0910204F0910304E217BB
:1023A000F307A0F42E1B3F0B2817390778F0AC0178
:1023B0004E5F5F4F2417350748F04E0F5F1F509355
:1023C000030440930204819391939FCFF0E0E0E0F7
:1023D0009CCFCF93DF930097E9F0FC0132971382F3
:1023E0001282A0910404B0910504ED0130E020E0D8
:1023F0001097A1F420813181820F931F2091020454
:10240000309103042817390709F061C0F0930304E1
:10241000E0930204DF91CF910895EA01CE17DF0720
:10242000E8F54A815B819E0141155105B1F7E9014B
:10243000FB83EA8349915991C40FD51FEC17FD071F
:1024400061F4808191810296840F951FE90199833F
:102450008883828193819B838A83F0E0E0E01296F7
:102460008D919C9113970097B9F52D913C911197FF
:10247000CD010296820F931F209102043091030434
:102480002817390739F6309751F510920504109244
:102490000404B0930304A0930204BCCFD383C2838B
:1024A00040815181840F951FC817D90761F44E5F91
:1024B0005F4F88819981480F591F518340838A81DA
:1024C0009B81938382832115310509F0B0CFF0936E
:1024D0000504E09304049ECFFD01DC01C0CF13820C
:1024E0001282D7CFF894FFCF01000000000006044D
:1024F0008000000000008C080506EC053D0840083F
:10250000C30500000000BD061006EC053A083708B8
:10251000C3050000000063065806000000003206F4
:10252000310600000000BB042504520408058304A2
:0425300061047504C9
:020000040003F7
:10E000000D9489F10D94B2F10D94B2F10D94B2F129
:10E010000D94B2F10D94B2F10D94B2F10D94B2F1F0
:10E020000D94B2F10D94B2F10D94B2F10D94B2F1E0
:10E030000D94B2F10D94B2F10D94B2F10D94B2F1D0
:10E040000D94B2F10D94B2F10D94B2F10D94B2F1C0
:10E050000D94B2F10D94B2F10D94B2F10D94B2F1B0
:10E060000D94B2F10D94B2F10D94B2F10D94B2F1A0
:10E070000D94B2F10D94B2F10D94B2F10D94B2F190
:10E080000D94B2F10D94B2F10D94B2F10D94B2F180
:10E090000D94B2F10D94B2F10D94B2F10D94B2F170
:10E0A0000D94B2F10D94B2F10D94B2F10D94B2F160
:10E0B0000D94B2F10D94B2F10D94B2F10D94B2F150
:10E0C0000D94B2F10D94B2F10D94B2F10D94B2F140
:10E0D0000D94B2F10D94B2F10D94B2F10D94B2F130
:10E0E0000D94B2F141546D656761323536300041AF
:10E0F000726475696E6F206578706C6F72657220DE
:10E1000073746B3530305632206279204D4C530099
:10E11000426F6F746C6F616465723E004875683F52
:10E1200000436F6D70696C6564206F6E203D200048
:10E130004350552054797065202020203D20005FF9
:10E140005F4156525F415243485F5F3D2000415658
:10E1500052204C696243205665723D20004743437C
:10E160002056657273696F6E203D20004350552024
:10E1700049442020202020203D20004C6F7720663D
:10E18000757365202020203D20004869676820665F
:10E190007573652020203D200045787420667573D6
:10E1A00065202020203D20004C6F636B2066757336
:10E1B000652020203D20004D617220203720323024
:10E1C000313300312E362E3800342E332E350056A2
:10E1D00023202020414444522020206F7020636F70
:10E1E00064652020202020696E73747275637469E1
:10E1F0006F6E2061646472202020496E74657272B3
:10E20000757074006E6F20766563746F7200726A49
:10E210006D702020006A6D70200057686174207056
:10E220006F72743A00506F7274206E6F7420737541
:10E2300070706F72746564004D7573742062652030
:10E2400061206C6574746572002000577269747483
:10E25000696E672045450052656164696E672045B7
:10E26000450045452065727220636E743D00504F35
:10E27000525400303D5A65726F2061646472003FF1
:10E280003D43505520737461747300403D454550C3
:10E29000524F4D207465737400423D426C696E6B41
:10E2A000204C454400453D44756D70204545505215
:10E2B0004F4D00463D44756D7020464C415348001B
:10E2C000483D48656C70004C3D4C69737420492F83
:10E2D0004F20506F72747300513D51756974005234
:10E2E0003D44756D702052414D00563D73686F7707
:10E2F00020696E7465727275707420566563746FF0
:10E30000727300593D506F727420626C696E6B00BD
:10E310002A0011241FBECFEFD1E2DEBFCDBF01E046
:10E320000CBF12E0A0E0B2E0EEE1FDEF03E00BBFB6
:10E3300002C007900D92A030B107D9F712E0A0E01B
:10E34000B2E001C01D92AE30B107E1F70F9460F367
:10E350000D948DFE01E20EBF0FEF0DBF11241FBE05
:10E360000D9460F30D9400F020E030E040ED57E0B4
:10E3700005C0FA013197F1F72F5F3F4F2817390792
:10E38000C0F308959C01260F311DC901A0E0B0E043
:10E390002F5F3F4FABBFFC018791882361F08093D3
:10E3A000C6008091C00086FFFCCF8091C0008064D1
:10E3B0008093C000EACF08958DE08093C6008091DD
:10E3C000C00086FFFCCF8091C00080648093C000B5
:10E3D0008AE08093C6008091C00086FFFCCF8091C8
:10E3E000C00080648093C00008950F94C2F10F9420
:10E3F000DCF10895FC019081992359F09093C600B7
:10E400008091C00086FFFCCF8091C0008064809323
:10E41000C0003196992379F70895282F982F929567
:10E420009F70892F805D8A3308F0895F8093C600D2
:10E430008091C00086FFFCCF8091C00080648093F3
:10E44000C000822F8F70982F905D9A3308F0995FEB
:10E450009093C6008091C00086FFFCCF8091C000E1
:10E4600080648093C00008959C01FB01853691056E
:10E470001CF46330710594F0C90164E670E00F94F8
:10E480002EFE605D7F4F6093C6008091C00086FFC6
:10E49000FCCF8091C00080648093C0002B30310598
:10E4A00014F43297B4F0C90164E670E00F942EFEC4
:10E4B0006AE070E00F942EFE605D7F4F6093C600AF
:10E4C0008091C00086FFFCCF8091C0008064809363
:10E4D000C000C9016AE070E00F942EFEC0968093E0
:10E4E000C6008091C00086FFFCCF8091C000806490
:10E4F0008093C00008951F93182F8EE692EE60E07F
:10E500000F94C2F11093C6008091C00086FFFCCF2B
:10E510008091C00080648093C0000F94DCF11F9153
:10E5200008952F923F924F925F926F927F928F92B7
:10E530009F92AF92BF92CF92DF92EF92FF920F9392
:10E540001F93DF93CF93CDB7DEB762970FB6F894E2
:10E55000DEBF0FBECDBF382E622ECA01DB015C01CB
:10E560006D01772420E2222E2E010894411C511CBB
:10E570008BC081E0A81680E0B80681E0C80680E084
:10E58000D80628F0C601AA27BB270F940DF2BB2797
:10E59000AD2D9C2D8B2D0F940DF28A2D0F940DF225
:10E5A0002092C6008091C00086FFFCCF8091C00001
:10E5B00080648093C0009DE29093C6008091C0006B
:10E5C00086FFFCCF8091C00080648093C0002092C1
:10E5D000C6008091C00086FFFCCF8091C00080649F
:10E5E0008093C00019828601750188249924A1E0D6
:10E5F0003A1651F03A1620F0B2E03B1661F409C029
:10E600000BBFF701779007C0C7010F9477FE782EF4
:10E6100002C0F7017080872D0F940DF22092C60082
:10E620008091C00086FFFCCF8091C0008064809301
:10E63000C000872D8052F401EF70F0708F3520F408
:10E64000E40DF51D708204C0E40DF51D8EE280839B
:10E650000894E11CF11C011D111D0894811C911CE2
:10E6600090E18916910409F0C2CF80E190E0A0E02A
:10E67000B0E0A80EB91ECA1EDB1E198AC2010F9493
:10E68000FAF10F94DCF16A94662009F072CF629679
:10E690000FB6F894DEBF0FBECDBFCF91DF911F91B3
:10E6A0000F91FF90EF90DF90CF90BF90AF909F9031
:10E6B0008F907F906F905F904F903F902F90089534
:10E6C0002F923F924F925F926F927F928F929F9282
:10E6D000AF92BF92CF92DF92EF92FF920F931F9370
:10E6E000DF93CF93CDB7DEB7CD53D1400FB6F894BB
:10E6F000DEBF0FBECDBF01E20EBF0FEF0DBF94B75F
:10E70000F894A89514BE80916000886180936000A1
:10E7100010926000789493FF05C0E0910002F091A0
:10E7200001021995279A2F9A8091C00082608093E8
:10E73000C00080E18093C40088E18093C1000000A4
:10E74000EE24FF24870144E0A42EB12CCC24DD2448
:10E7500024C0C5010197F1F70894E11CF11C011DCB
:10E76000111D21E2E2162EE4F20620E0020720E06D
:10E77000120718F031E0C32ED12CC801B70127ECE5
:10E780003BE140E050E00F9441FE611571058105C9
:10E79000910519F485B1805885B98091C00087FD35
:10E7A00003C0C114D104A9F2A6014F5F5F4FC25E3E
:10E7B000DE4F59834883CE51D140C25EDE4F8881FF
:10E7C0009981CE51D140019711F00D9410FEC05D9A
:10E7D000DE4F19821882C053D14060E0C15DDE4F28
:10E7E0001882CF52D14088249924C35DDE4F19820C
:10E7F0001882CD52D140C05EDE4F188219821A8233
:10E800001B82C052D140CE5CDE4F188219821A8220
:10E810001B82C253D140EE24FF2487010BBFF701B6
:10E8200007911691C45CDE4F19830883CC53D14005
:10E830000D940BFEC25EDE4F28813981CE51D1404E
:10E840002130310509F52091C600C25EDE4F1982E4
:10E850001882CE51D14022C02F5F3F4F4F4F5F4FA4
:10E86000213082E138078AE7480780E0580780F0C6
:10E87000C45CDE4FE881F981CC53D140EF5FFF4F9C
:10E8800019F0EE27FF27099420E030E040E050E047
:10E890008091C00087FFE0CF2091C600C35DDE4FAE
:10E8A00048815981CD52D1404F5F5F4FC35DDE4FEC
:10E8B00059834883CD52D140213209F063C64A3092
:10E8C000510508F05FC60894811C911C53E0851621
:10E8D000910409F059C600E010E018C081E280936D
:10E8E000C6008091C00086FFFCCF8091C00080648C
:10E8F0008093C0002F5F3F4F2931310579F70F9486
:10E90000DCF10F5F1F4F0530110519F020E030E0FA
:10E91000E5CF10920A0210920B0210920C02109294
:10E920000D02109206021092070210920802109235
:10E930000902109202021092030210920402109235
:10E9400005028FEE90EE60E00F94F5F180E191EE1C
:10E9500060E00F94C2F18091C00087FFFCCF9091DE
:10E96000C600903608F09F759032B8F09093C600BC
:10E970008091C00086FFFCCF8091C00080648093AE
:10E98000C000A0E2A093C6008091C00086FFFCCF2B
:10E990008091C00080648093C000983409F4D7C18E
:10E9A0009934B8F4923409F459C1933458F490333B
:10E9B00019F1903308F4E3C59F33A1F1903409F0C5
:10E9C000DEC5BDC0953409F470C1963409F0D7C5D1
:10E9D00098C1923509F42BC2933538F49C3409F46C
:10E9E000F5C1913509F0CBC518C2963509F445C279
:10E9F000993509F0C4C567C483E792EE62E00F94CD
:10EA0000F5F110920602109207021092080210927D
:10EA1000090210920A0210920B0210920C0210923C
:10EA20000D0213C18FE792EE62E00F94F5F18FEEC5
:10EA300090EE60E00F94F5F181E291EE60E00F94CA
:10EA4000C2F187EB91EE60E00F94F5F180E391EE77
:10EA500060E00F94C2F184EE90EE60E00F94F5F167
:10EA60008FE391EE60E00F94C2F186E090E061E008
:10EA700070E00F9434F20F94DCF18DE591EE60E0DC
:10EA80000F94C2F189EC91EE60E00F94F5F18EE401
:10EA900091EE60E00F94C2F183EC91EE60E00F9490
:10EAA000F5F18CE691EE60E00F94C2F18EE10F94E7
:10EAB0000DF288E90F940DF281E00F940DF20F949E
:10EAC000DCF18BE791EE60E00F94C2F119E0E0E039
:10EAD000F0E010935700E4918E2F0F940DF20F94F5
:10EAE000DCF18AE891EE60E00F94C2F1E3E0F0E03F
:10EAF00010935700E4918E2F0F940DF20F94DCF1D8
:10EB000089E991EE60E00F94C2F1E2E0F0E0109349
:10EB10005700E4918E2F0F940DF20F94DCF188EAE8
:10EB200091EE60E00F94C2F1E1E0F0E01093570045
:10EB30001491812F0F940DF20F94DCF107CF8BE825
:10EB400092EE62E00F94F5F18BE492EE60E00F94A8
:10EB5000F5F10F94DCF100E010E019C0C8016F2D51
:10EB60000F947FFEFF2031F489E492EE60E00F9471
:10EB7000C2F10BC0F092C6008091C00086FFFCCFAE
:10EB80008091C00080648093C0000F5F1F4FC80158
:10EB900081519F41A0E0B0E0ABBFFC01F790BAE229
:10EBA000FB1621F0E2E000301E07C1F60F94DCF105
:10EBB0000F94DCF187E592EE60E00F94F5F10F948D
:10EBC000DCF1CC24DD2400E010E01EC0C8010F946D
:10EBD00077FEF82E882331F489E492EE60E00F94FA
:10EBE000C2F10BC08093C6008091C00086FFFCCFAD
:10EBF0008091C00080648093C000FE1419F00894D6
:10EC0000C11CD11C0F5F1F4FC80181519F41A0E063
:10EC1000B0E0ABBFFC01E790FAE2EF1621F022E092
:10EC20000030120799F60F94DCF10F94DCF182E6C4
:10EC300092EE60E00F94C2F1C60161E070E00F94C3
:10EC400034F20F94DCF10F94DCF110920202109276
:10EC50000302109204021092050278CE89E992EE26
:10EC600062E00F94F5F1279A2F9A16C02F9880E052
:10EC700090E0E0EDF7E03197F1F7019684369105E9
:10EC8000C1F72F9A80E090E0E0EDF7E03197F1F7DF
:10EC9000019684369105C1F78091C00087FFE6CFC9
:10ECA0008091C00087FFFCCF64C485EA92EE62E0E9
:10ECB0000F94F5F140910202509103026091040219
:10ECC0007091050281E020E10F9491F2809102029F
:10ECD00090910302A0910402B091050280509F4FD1
:10ECE000AF4FBF4F8093020290930302A0930402A0
:10ECF000B093050280509041A040B04008F426CE69
:10ED0000A4CF83EB92EE62E00F94F5F140910602FE
:10ED100050910702609108027091090280E020E1A1
:10ED20000F9491F28091060290910702A09108023F
:10ED3000B091090280509F4FAF4FBF4F80930602A2
:10ED400090930702A0930802B0930902FFCD80ECD4
:10ED500092EE62E00F94F5F183E792EE60E00F949B
:10ED6000F5F18FE792EE60E00F94F5F18BE892EE0B
:10ED700060E00F94F5F189E992EE60E00F94F5F10F
:10ED800085EA92EE60E00F94F5F183EB92EE60E09D
:10ED90000F94F5F180EC92EE60E00F94F5F187ECC2
:10EDA00092EE60E00F94F5F188ED92EE60E00F9442
:10EDB000F5F18FED92EE60E00F94F5F18AEE92EEB0
:10EDC00060E00F94F5F183E093EEBDCD87EC92EE19
:10EDD00062E00F94F5F181E40F947BF282E40F94EA
:10EDE0007BF283E40F947BF284E40F947BF285E45E
:10EDF0000F947BF286E40F947BF287E40F947BF20E
:10EE000088E40F947BF28AE40F947BF28BE40F94F6
:10EE10007BF28CE40F947BF299CD88ED92EE62E068
:10EE20000F94F5F1772473948824992409C48FED05
:10EE300092EE62E00F94F5F140910A0250910B02BC
:10EE400060910C0270910D0282E020E10F9491F22A
:10EE500080910A0290910B02A0910C02B0910D02D8
:10EE600080509F4FAF4FBF4F80930A0290930B0289
:10EE7000A0930C02B0930D0269CD8AEE92EE62E08F
:10EE80000F94F5F184EE90EE60E00F94F5F18FECC5
:10EE900091EE60E00F94F5F1662477244301CC5D98
:10EEA000DE4F19821882C452D140D401C301B695F5
:10EEB000A79597958795CA5DDE4F88839983AA8326
:10EEC000BB83C652D140CC5DDE4FA881B981C4520C
:10EED000D1401196CC5DDE4FB983A883C452D14096
:10EEE000CD0162E070E00F9434F2B0E2B093C6005E
:10EEF0008091C00086FFFCCF8091C0008064809329
:10EF0000C000EDE2E093C6008091C00086FFFCCF18
:10EF10008091C00080648093C000F0E2F093C6004E
:10EF20008091C00086FFFCCF8091C00080648093F8
:10EF3000C000CA5DDE4FE880F9800A811B81C6529D
:10EF4000D140BB27A12F902F8F2D0F940DF2CA5DBA
:10EF5000DE4F8881C652D1400F940DF2B0E2FB2EF5
:10EF6000F092C6008091C00086FFFCCF8091C00067
:10EF700080648093C0000DE30093C6008091C000C0
:10EF800086FFFCCF8091C00080648093C00010E2B7
:10EF90001093C6008091C00086FFFCCF8091C00016
:10EFA00080648093C0008BBEF3012791C65DDE4F65
:10EFB0002883CA52D140A22EBB24CC24DD2408943D
:10EFC000611C711C811C911C8BBEF3018791282E42
:10EFD0003324442455240894611C711C811C911C09
:10EFE0008BBEF3013791C55DDE4F3883CB52D140E4
:10EFF0000894611C711C811C911C8BBEF30147910C
:10F00000C45DDE4F4883CC52D140ADEFEA2EAFEF66
:10F01000FA2EAFEF0A2FAFEF1A2F6E0C7F1C801E57
:10F02000911E142D032DF22CEE24EA0CFB1C0C1D5A
:10F030001D1D0F940DF220E22093C6008091C000A8
:10F0400086FFFCCF8091C00080648093C000C65DC5
:10F05000DE4F8881CA52D1400F940DF230E23093D6
:10F06000C6008091C00086FFFCCF8091C000806404
:10F070008093C000C45DDE4F8881CC52D1400F9494
:10F080000DF240E24093C6008091C00086FFFCCFA5
:10F090008091C00080648093C000C55DDE4F888190
:10F0A000CB52D1400F940DF250E25093C6008091A4
:10F0B000C00086FFFCCF8091C00080648093C000B8
:10F0C0008FEFE8168FEFF80680E0080780E018075A
:10F0D00031F484E092EE60E00F94C2F1DFC0D80119
:10F0E000C7018070907CA070B0708050904CA040A0
:10F0F000B040D1F52FEF3FE340E050E0E222F322B1
:10F1000004231523CA5DDE4FA880B980CA80DB8046
:10F11000C652D140AE0CBF1CC01ED11EAA0CBB1CD7
:10F12000CC1CDD1C8EE092EE60E00F94C2F1BB2798
:10F13000A12F902F8F2D0F940DF28E2D0F940DF285
:10F1400030E23093C6008091C00086FFFCCF8091F2
:10F15000C00080648093C0004EE34093C60080915D
:10F16000C00086FFFCCF87C08EE09EEFA0E0B0E03D
:10F17000E822F9220A231B239CE0E91694E9F90608
:10F1800090E0090790E0190709F088C0C45DDE4FE0
:10F19000A881CC52D140EA2EFF2400E010E0102FCD
:10F1A0000F2DFE2CEE24C55DDE4FB881CB52D14031
:10F1B000EB0EF11C011D111DD601C501817090706F
:10F1C000A070B070DC0199278827E80EF91E0A1F8D
:10F1D0001B1F20EF30E040E050E0A222B322C42207
:10F1E000D52241E1AA0CBB1CCC1CDD1C4A95D1F7F1
:10F1F000EA0CFB1C0C1D1D1D81E090E0A0E0B0E0BE
:10F20000282239224A225B2235E1220C331C441C7D
:10F21000551C3A95D1F7E20CF31C041D151D57013E
:10F220006801AA0CBB1CCC1CDD1C85E192EE60E0E1
:10F230000F94C2F1C801AA27BB270F940DF2BB2778
:10F24000A12F902F8F2D0F940DF28E2D0F940DF274
:10F2500090E29093C6008091C00086FFFCCF809121
:10F26000C00080648093C000AEE3A093C60080918C
:10F27000C00086FFFCCF8091C00080648093C000F6
:10F28000C601AA27BB270F940DF2BB27AD2D9C2DDD
:10F290008B2D0F940DF28A2D0F940DF20F94DCF14B
:10F2A000CC5DDE4FE881F981C452D140F99709F471
:10F2B0004DCBF4E0EF2EF12C012D112D6E0C7F1CA7
:10F2C000801E911EF2CD83E093EE62E00F94F5F183
:10F2D0008AE192EE60E00F94C2F18091C00087FF56
:10F2E000FCCF1091C6001F751093C6008091C0001E
:10F2F00086FFFCCF8091C00080648093C0000F9493
:10F30000DCF1812F81548A3108F036C1163409F4BA
:10F3100095C0173490F4133409F44EC0143430F40B
:10F320001134F1F0123409F01DC130C0143409F465
:10F3300059C0153409F016C16BC01A3409F4C4C0A1
:10F340001B3438F4173409F48FC0183409F00AC19B
:10F35000A1C01B3409F4D2C01C3409F003C1E8C0B9
:10F360008FEF81B90DC082B1809582B980E090E0C5
:10F37000E0EDF7E03197F1F70196883C9105C1F790
:10F380008091C00087FFEFCF12B8EFC08FEF84B934
:10F390000DC085B1809585B980E090E0E0EDF7E0A3
:10F3A0003197F1F70196883C9105C1F78091C00033
:10F3B00087FFEFCF15B8D9C08FEF87B90DC088B1DF
:10F3C000809588B980E090E0E0EDF7E03197F1F7C3
:10F3D0000196883C9105C1F78091C00087FFEFCF6F
:10F3E00018B8C3C08FEF8AB90DC08BB180958BB9A7
:10F3F00080E090E0E0EDF7E03197F1F70196883C8E
:10F400009105C1F78091C00087FFEFCF1BB8ADC059
:10F410008FEF8DB90DC08EB180958EB980E090E0F0
:10F42000E0EDF7E03197F1F70196883C9105C1F7DF
:10F430008091C00087FFEFCF1EB897C08FEF80BBD1
:10F440000DC081B3809581BB80E090E0E0EDF7E0F6
:10F450003197F1F70196883C9105C1F78091C00082
:10F4600087FFEFCF11BA81C08FEF83BB0DC084B38C
:10F47000809584BB80E090E0E0EDF7E03197F1F714
:10F480000196883C9105C1F78091C00087FFEFCFBE
:10F4900014BA6BC08FEF809301010FC080910201FD
:10F4A00080958093020180E090E0E0EDF7E03197F5
:10F4B000F1F70196883C9105C1F78091C00087FF64
:10F4C000EDCF1092020151C08FEF809304010FC065
:10F4D0008091050180958093050180E090E0E0ED4A
:10F4E000F7E03197F1F70196883C9105C1F78091DB
:10F4F000C00087FFEDCF1092050137C08FEF8093DA
:10F5000007010FC08091080180958093080180E079
:10F5100090E0E0EDF7E03197F1F70196883C910536
:10F52000C1F78091C00087FFEDCF109208011DC088
:10F530008FEF80930A010FC080910B01809580931B
:10F540000B0180E090E0E0EDF7E03197F1F70196F4
:10F55000883C9105C1F78091C00087FFEDCF1092E4
:10F560000B0103C085E292EEEEC98091C00087FFD7
:10F57000FCCF8091C600EAC988E392EEE4C98CE131
:10F5800091EEE1C988249924933011F1943028F444
:10F59000913089F09230B8F408C0953061F195301F
:10F5A000F0F0963009F048C043C02B3109F042C951
:10F5B00091E06BE13FC96227C15DDE4F2883CF52E6
:10F5C000D14092E037C9B22FA0E0622793E032C960
:10F5D000822F90E0A82BB92B622794E02BC92E3004
:10F5E00009F039C3622795E0C05DDE4F19821882A9
:10F5F000C053D1401FC9E1E0F0E0EC0FFD1FC05D3A
:10F60000DE4F08811981C053D140E00FF11F2083E4
:10F610000F5F1F4FC05DDE4F19830883C053D14079
:10F6200062270A171B0709F005C9D80196E002C92D
:10F63000261709F010C303C0973009F0FBC87724E0
:10F640009981933109F412C19431C8F4963009F4C8
:10F65000D8C0973050F4923009F406C1933009F4C1
:10F660006DC0913009F059C253C0913109F477C08F
:10F67000923108F0BBC0903109F04FC2F5C098310B
:10F6800009F487C0993150F4953109F4EFC09531F0
:10F6900008F4C6C1963109F040C2C2C19A3109F4DA
:10F6A0006CC09A3108F491C09B3109F45BC09D3164
:10F6B00009F033C29D81903359F48F81882311F46E
:10F6C0009EE11CC0813011F091E018C098E916C08D
:10F6D000892F807591F0903539F4E0E0F0E089E011
:10F6E0008093570094910AC0983539F4E3E0F0E034
:10F6F00089E080935700949101C090E01A821B82A8
:10F700008D818C831D829E831F8227E030E009C299
:10F710001A8288E08B8381E48C8386E58D8382E581
:10F720008E8389E48F8383E5888780E589878FE5E9
:10F730008A8782E38B872BE030E0F3C18A818139AD
:10F7400041F0823941F0803911F48FE005C080E04A
:10F7500003C082E001C08AE01A828B8344C0772410
:10F76000739482C08D81882311F48EE12CC0813086
:10F7700011F081E028C088E926C01A82E1E0F0E0BB
:10F7800089E08093570084918B831C8224E030E0D1
:10F79000C8C18B81803589F48C81883039F4E2E0EE
:10F7A000F0E089E08093570084910DC0E0E0F0E044
:10F7B00089E080935700849106C0E3E0F0E089E09F
:10F7C0008093570084911A82DFCF8D81836C99E0FA
:10F7D000E1E0F0E0082E90935700E89507B600FCB2
:10F7E000FDCF1A821B8223E030E09BC180EC8A832C
:10F7F000CE5CDE4F188219821A821B82C253D1401E
:10F800008EC18A8190E0A0E0B0E0582F44273327D2
:10F8100022278B8190E0A0E0B0E0DC0199278827C7
:10F82000282B392B4A2B5B2B8D8190E0A0E0B0E098
:10F83000282B392B4A2B5B2B8C8190E0A0E0B0E089
:10F84000BA2FA92F982F8827282B392B4A2B5B2BCF
:10F85000220F331F441F551FC05EDE4F288339839C
:10F860004A835B83C052D1401A8259C13A81C95C34
:10F87000DE4F3883C753D140CA5CDE4F1882C6536F
:10F88000D1408B81C82EDD24CA5CDE4F488159816E
:10F89000C653D140C42AD52A933109F082C0CE5C28
:10F8A000DE4F88819981AA81BB81C253D1408050AB
:10F8B000904CA340B04030F583E0CE5CDE4FE88052
:10F8C000F9800A811B81C253D140F70100935B008C
:10F8D00080935700E89507B600FCFDCFCE5CDE4F65
:10F8E000088119812A813B81C253D14000501F4FAA
:10F8F0002F4F3F4FCE5CDE4F088319832A833B8313
:10F90000C253D140C05EDE4F488159816A817B81FC
:10F91000C052D140DE011B9631E08C9111962C91A2
:10F9200011971296C75CDE4F2883C953D140C85C3B
:10F93000DE4F1882C853D14090E0C85CDE4FE881AA
:10F94000F981C853D1408E2B9F2B0C01FA01609393
:10F950005B0030935700E89511244E5F5F4F6F4F67
:10F960007F4F0EEFE02E0FEFF02ECE0CDF1CC114F8
:10F97000D10499F685E0C05EDE4F088119812A81A5
:10F980003B81C052D140F80120935B008093570027
:10F99000E89507B600FCFDCF81E180935700E8951C
:10F9A00035C0C05EDE4F88819981AA81BB81C0527B
:10F9B000D140B695A795979587957C018601ABE0D8
:10F9C000AA2EB12CAC0EBD1E0BC0D5016D915D01F0
:10F9D000C7010F947FFE0894E11CF11C01501040F8
:10F9E0000115110591F7A60160E070E0440F551F65
:10F9F000661F771FC05EDE4FE880F9800A811B8199
:10FA0000C052D1404E0D5F1D601F711F1A82C05E33
:10FA1000DE4F488359836A837B83C052D1407FC0C5
:10FA2000FA80C55CDE4FF882CB53D140C65CDE4F16
:10FA30001882CA53D1408B81C82EDD24C65CDE4FAC
:10FA400008811981CA53D140C02AD12A1A828981DA
:10FA5000BE016D5F7F4F843121F59601C05EDE4FA0
:10FA6000E880F9800A811B81C052D1400BBFF701A9
:10FA700087919691DB018C9311969C936E5F7F4FDB
:10FA8000D801C7010296A11DB11DC05EDE4F88835B
:10FA90009983AA83BB83C052D14022503040F1F6F3
:10FAA00036C0C05EDE4F288139814A815B81C052F9
:10FAB000D1400894C108D108760100E010E0089414
:10FAC000C11CD11C0894E11CF11C011D111DE20E8A
:10FAD000F31E041F151F21BDBB27A52F942F832FB5
:10FAE00082BD2F5F3F4F4F4F5F4FF89A80B5DB01CC
:10FAF0008D93BD012E153F054007510761F7C05E8C
:10FB0000DE4F288339834A835B83C052D1409601FC
:10FB10002D5F3F4FFB01108204C080EC8A8322E0FE
:10FB200030E08BE18093C6008091C00086FFFCCF5F
:10FB30008091C00080648093C000C15DDE4FF88179
:10FB4000CF52D140F093C6008091C00086FFFCCF19
:10FB50008091C00080648093C000432F3093C60022
:10FB60008091C00086FFFCCF8091C00080648093AC
:10FB7000C000922F2093C6008091C00086FFFCCF6A
:10FB80008091C00080648093C0008EE08093C600A6
:10FB90008091C00086FFFCCF8091C000806480937C
:10FBA000C00065E1C15DDE4FE880CF52D1406E25D7
:10FBB00069276427FE01319610C090819093C6009A
:10FBC0008091C00086FFFCCF31968091C000806498
:10FBD0008093C0006927215030402115310569F715
:10FBE0006093C6008091C00086FFFCCF8091C0006A
:10FBF00080648093C00085B1805885B9772081F4F6
:10FC0000C15DDE4F0881CF52D1400F5FC15DDE4F35
:10FC10000883CF52D14090E0A0E0B0E00D941AF4F8
:10FC200027982F9880E090E020ED37E0F901319798
:10FC3000F1F7019684369105C9F700008091C00064
:10FC40008D7F8093C00081E180935700E895EE2777
:10FC5000FF270994FFCF90E00D941AF497FB092E2B
:10FC600007260AD077FD04D02ED006D000201AF443
:10FC7000709561957F4F0895F6F7909581959F4F08
:10FC80000895A1E21A2EAA1BBB1BFD010DC0AA1FDD
:10FC9000BB1FEE1FFF1FA217B307E407F50720F0F5
:10FCA000A21BB30BE40BF50B661F771F881F991F70
:10FCB0001A9469F760957095809590959B01AC01B9
:10FCC000BD01CF010895AA1BBB1B51E107C0AA1FAC
:10FCD000BB1FA617B70710F0A61BB70B881F991FED
:10FCE0005A95A9F780959095BC01CD010895F99991
:10FCF000FECF92BD81BDF89A992780B50895262F31
:10FD0000F999FECF1FBA92BD81BD20BD0FB6F89400
:0EFD1000FA9AF99A0FBE01960895F894FFCF63
:00000001FF
