:020000040000FA
:100000000C9477010C945F0C0C94340C0C94090C38
:100010000C94DE0B0C94B30B0C94880B0C945D0BBE
:100020000C94320B0C94A8010C94A8010C94A80118
:100030000C94A8010C94A8010C94A8010C94A8019C
:100040000C94A8010C94A8010C94A8010C94A8018C
:100050000C94A8010C94A8010C94A8010C94E80A33
:100060000C94A8010C94B40C0C948A0C0C94A80168
:100070000C94A8010C94A8010C94A8010C94A8015C
:100080000C94A8010C94A8010C94A8010C94A8014C
:100090000C94A8010C94A8010C94A8010C94A8013C
:1000A0000C94A8010C94A8010C94A8010C94A8012C
:1000B0000C94A8010C94A8010C94A8010C94A8011C
:1000C0000C94A8010C94A8010C94A8010C94A8010C
:1000D0000C94A8010C94A8010C94A8010C94A801FC
:1000E0000C94A8010C9452030C94DD050C946E043E
:1000F0000C9493030C940A020C94EA0C0C9485095A
:100100000C941B060C94270A0C9424030C942F02C5
:100110000C9422070C946B030C943E030C94EA0598
:100120000C9404020C94EF010C94F5010C94C90793
:100130000C9489030C9410060C94B4040C940B03D7
:100140000C9426020C9436030C9410030C94E006D5
:100150000C942A020C9422020C9475030C941D0436
:100160000C942D0A0C945C030C944D070C941A0308
:100170000C942E030C945A040C947F030C941C02D0
:100180000C949D030C94300A0C94FD010C94E90529
:100190000C9403030C9448030C9430020C941E043A
:1001A0000C94F9010C94780A0C9401050C944B04FE
:1001B0000C9401020C942A0A0C9418020C940E025E
:1001C0000C947C040C9434020C9414020000210062
:1001D000240027002A002D00300033000101000018
:1001E000040107010A0100002200250028002B005D
:1001F0002E003100340002010000050108010B014E
:10020000000020002300260029002C002F003200CF
:1002100000010000030106010901050505050705A8
:1002200008080808020202020A0A08080404040472
:10023000010101010101010103030303030303039E
:10024000040707070C0C0C0C0C0C0C0C020202022D
:1002500006060606060606060B0B0B0B0B0B0B0B16
:1002600001021020200808102040102040800201C8
:1002700002010804020101020408102040808040AD
:1002800020100804020180040201804020100804AC
:10029000020108040201010204081020408001024A
:1002A00004081020408000000A0B02090C0D0E0803
:1002B000070304010000000000000000000000002F
:1002C000000000000000000000000000000000002E
:1002D00000001211100000000000000000000000EB
:1002E000000000000000000000000000EA0C1124E3
:1002F0001FBECFEFD1E2DEBFCDBF00E00CBF12E0EA
:10030000A0E0B2E0ECE7F8E200E00BBF02C007902B
:100310000D92A835B107D9F724E0A8E5B2E001C0F5
:100320001D92A231B207E1F711E0C7E7D1E000E08A
:1003300006C021970109802FFE010E940F13C637C6
:10034000D10780E00807A9F70E94840D0C943C14A3
:100350000C940000FC01A089B18982E08C93A485F3
:10036000B5851C92A685B7858FE38C93108EA489E2
:10037000B58986E08C93A289B3898C9180618C9336
:10038000A289B3898C9188608C93A289B3898C915E
:1003900080688C930288F389E02D80818F7D808333
:1003A00008958150823108F05AC0E82FF0E0882784
:1003B000E352FE4F8F4F0C940F13FD010102EF012A
:1003C000F501F9012F0204020A020E0214021802BA
:1003D0001C02220226022F022A02300234028091DD
:1003E00080008F77809380000895809180008F7DBA
:1003F000F9CF80918000877FF5CF84B58F7784BD5A
:10040000089584B58F7DFBCF8091B0008F77809366
:10041000B00008958091B0008F7DF9CF8091900059
:100420008F77809390000895809190008F7DF9CF11
:1004300080919000877FF5CF8091A0008F77809387
:10044000A00008958091A0008F7DF9CF8091A00039
:10045000877FF5CF809120018F77809320010895C9
:10046000809120018F7DF9CF80912001877FF5CF8A
:10047000CF93DF93282F30E0F901EA55FD4F8491A7
:10048000F901E05AFD4FD491F901E65EFD4FC491A8
:10049000CC23A1F081110E94D101EC2FF0E0EE0FEE
:1004A000FF1FE050FE4FA591B491EC91ED2381E048
:1004B00090E009F480E0DF91CF91089580E090E032
:1004C000FACF1F93CF93DF93282F30E0F901EA553D
:1004D000FD4F8491F901E05AFD4FD491F901E65E98
:1004E000FD4FC491CC23A9F0162F81110E94D10198
:1004F000EC2FF0E0EE0FFF1FEA51FE4FA591B491F3
:100500008FB7F894EC91111108C0D095DE23DC93DD
:100510008FBFDF91CF911F910895DE2BF8CFCF933E
:10052000DF9390E0FC01E05AFD4F2491865E9D4FE1
:10053000FC0184918823C9F090E0880F991FFC0189
:10054000E453FE4FA591B491FC01EA51FE4FC591D1
:10055000D49161110DC09FB7F8948C91209582239E
:100560008C938881282328839FBFDF91CF910895A2
:10057000623051F49FB7F8943C91822F8095832389
:100580008C93E8812E2BEFCF8FB7F894EC912E2B24
:100590002C938FBFEACF1F93CF93DF93182FEB01DC
:1005A00061E00E948F02209739F460E0812FDF9193
:1005B000CF911F910C946102CF3FD10511F461E0FE
:1005C000F5CFE12FF0E0EA55FD4FE491E150E23143
:1005D00008F0B3C0F0E08827EF50FD4F8F4F0C9428
:1005E0000F1303030B0310031A0324039D032E03AD
:1005F00036033E03480352035C036B0375039D03FC
:100600007F038903930384B5806884BDC7BDDF91F0
:10061000CF911F91089584B5806284BDC8BDF7CF86
:1006200080918000806880938000D0938900C0937F
:100630008800EDCF80918000806280938000D0930D
:100640008B00C0938A00E3CF809180008860809304
:100650008000D0938D00C0938C00D9CF8091B000E2
:1006600080688093B000C093B300D1CF8091B00078
:1006700080628093B000C093B400C9CF8091900095
:10068000806880939000D0939900C0939800BFCF6A
:1006900080919000806280939000D0939B00C093E3
:1006A0009A00B5CF80919000886080939000D0939D
:1006B0009D00C0939C00ABCF8091A0008068809388
:1006C000A0008091A0008F7B8093A000D093A90010
:1006D000C093A8009CCF8091A00080628093A0006E
:1006E000D093AB00C093AA0092CF8091A000886005
:1006F0008093A000D093AD00C093AC0088CF8091D0
:100700002001806880932001D0932901C0932801A3
:100710007ECF80912001806280932001D0932B01B5
:10072000C0932A0174CF80912001886080932001BA
:10073000D0932D01C0932C016ACFC038D1050CF0A5
:100740003ECF33CF863308F0865320917B00982F1D
:100750009870277F922B90937B00877080648093A2
:100760007C0080917A00806480937A0080917A0086
:1007700086FDFCCF80917800909179000895CF9309
:10078000DF93009791F1EC0162307105C1F02CF418
:100790006130710529F161E01AC063307105B1F073
:1007A00064307105C1F760E00E948F0260E08C2F19
:1007B0000E9461028C2FDF91CF910C94A20360E024
:1007C0000E948F0260E08C2F0E94610262E08C2FF9
:1007D0000E948F0261E08C2FDF91CF910C94610217
:1007E00061E00E948F0260E0F6CFDF91CF91089523
:1007F0003FB7F89480919B0290919C02A0919D023A
:10080000B0919E0226B5A89B05C02F3F19F0019616
:10081000A11DB11D3FBFBA2FA92F982F8827BC015A
:10082000CD01620F711D811D911D42E0660F771F82
:10083000881F991F4A95D1F708950895AF92BF92E6
:10084000CF92DF92EF92FF920F931F93CF93DF939C
:100850006C017B018B01040F151FEB015E01AE18CB
:10086000BF08C017D10759F06991D601ED91FC91ED
:100870000190F081E02DC6011995892B79F7C5010A
:10088000DF91CF911F910F91FF90EF90DF90CF906C
:10089000BF90AF900895FC01538D448D252F30E01B
:1008A000842F90E0821B930B541710F0CF9608957D
:1008B00001970895FC01918D828D981761F0A28DAA
:1008C000AE0FBF2FB11D5D968C91928D9F5F9F7370
:1008D000928F90E008958FEF9FEF0895FC01918D26
:1008E000828D981731F0828DE80FF11D858D90E093
:1008F00008958FEF9FEF0895FC01918D228D892F30
:1009000090E0805C9F4F821B91098F739927089517
:100910008FE693E00E947C0421E0892B09F420E01B
:10092000822F0895FC01A48DA80FB92FB11DA35AE1
:10093000BF4F2C91848D90E001968F739927848FFF
:10094000A689B7892C93A089B1898C918370806422
:100950008C93938D848D981306C00288F389E02DC3
:1009600080818F7D80830895EF92FF920F931F9374
:10097000CF93DF93EC0181E0888F9B8D8C8D981352
:100980001AC0E889F989808185FF15C09FB7F8945E
:10099000EE89FF896083E889F989808183708064AA
:1009A00080839FBF81E090E0DF91CF911F910F91F5
:1009B000FF90EF900895F62E0B8D10E00F5F1F4F04
:1009C0000F731127E02E8C8D8E110CC00FB607FC13
:1009D000FACFE889F989808185FFF5CFCE010E94A1
:1009E0009204F1CFEB8DEC0FFD2FF11DE35AFF4F79
:1009F000F0829FB7F8940B8FEA89FB89808180622F
:100A0000CFCFCF93DF93EC01888D8823B9F0AA89EB
:100A1000BB89E889F9898C9185FD03C0808186FDB9
:100A20000DC00FB607FCF7CF8C9185FFF2CF808108
:100A300085FFEDCFCE010E949204E9CFDF91CF91E7
:100A4000089580E090E0892B29F00E9488048111AC
:100A50000E94000080E090E0892B49F080E090E067
:100A6000892B29F00E94000081110E94000080E083
:100A700090E0892B49F080E090E0892B29F00E94DA
:100A8000000081110E94000080E090E0892B49F075
:100A900080E090E0892B29F00E94000081110C94E5
:100AA00000000895DC018D919C91DC01ED91FC9199
:100AB0000190F081E02D19940F931F93CF93DF9352
:100AC000FC01EE5BFF4F208131812130310541F186
:100AD00021E030E0318320833296408151814130E2
:100AE000510511F031832083EC010881198161E007
:100AF00070E0F801868197810E94BF0361E070E099
:100B0000F801808591850E94BF0361E070E0F801E3
:100B1000828593850E94BF03CA5BDF4F19821882CA
:100B2000DF91CF911F910F910895CF92DF92EF92B5
:100B3000FF920F931F93CF93DF93C0907802D090D2
:100B40007902A8E5B2E050E040E0F0E0E0E070E0DB
:100B500060E04C155D0544F58D919D919C012E5BE7
:100B60003F4FE901288139812230310559F48C0148
:100B7000005C1F4F7F01DFE0ED22FF24E801F982D6
:100B8000E8823196235031092230310550F4805CDF
:100B90009F4F9B012F703327EC01398328836F5FB0
:100BA0007F4F4F5F5F4FD5CFDF91CF911F910F9157
:100BB000FF90EF90DF90CF900895DC011296ED91B9
:100BC000FC91E05CFF4F8081918180559F4F08959B
:100BD00008950895CF93DF9337FF1FC06F70615062
:100BE0006031D8F4E901D42F606B8091C9029091F3
:100BF000CA020E9452056D2F6F778091C9029091B1
:100C0000CA020E9452056C2F6F778091C9029091A1
:100C1000CA02DF91CF910C945205DF91CF910895D4
:100C2000DC0112968D919C91DC01ED91FC9101907B
:100C3000F081E02D1994FF920F931F93CF93DF93D0
:100C4000EC01F42E89018A819B81DC01ED91FC91FC
:100C50000190F081E02D19958A819B81DC01ED9155
:100C6000FC910190F081E02D6F2D199517FD0FC0BB
:100C70008A819B81DC01ED91FC910190F081E02D56
:100C8000602FDF91CF911F910F91FF901994DF9109
:100C9000CF911F910F91FF900895AF92BF92CF9285
:100CA000DF92EF92FF920F931F93CF93DF935C013C
:100CB0008AE7C82E82E0D82E8B01000F111F0A0D83
:100CC0001B1DD601CD91DD916D01209759F1E88171
:100CD000F9810280F381E02D60EF70E0CE0119957B
:100CE000E881F9810280F381E02D6EE370E0CE01AE
:100CF00019957501E881F9810280F381E02DE016F4
:100D0000F10639F0D7016D917D917D01CE011995E4
:100D1000F1CF67EF70E0CE011995BEE8CB16B2E0D7
:100D2000DB0679F6DF91CF911F910F91FF90EF9045
:100D3000DF90CF90BF90AF9008950F931F93CF9304
:100D4000DF93CDB7DEB7C85CD1090FB6F894DEBF2C
:100D50000FBECDBF8C01DC011296ED91FC9181E0BC
:100D600090E09A83898386AD97AD9C838B83EE5BFD
:100D7000FF4F808191819E838D8363E070E0CE017F
:100D800001960E944D062FB7F8948091970290919A
:100D90009802A0919902B0919A022FBFF80187831F
:100DA0009087A187B2871386C853DF4F0FB6F89498
:100DB000DEBF0FBECDBFDF91CF911F910F91089580
:100DC000CF93DF93EC010E949D061C861E861D8634
:100DD000DF91CF9108950F931F93CF93DF93EC0191
:100DE000FC01EE5BFF4F82E090E0918380833296BE
:100DF000208131812230310511F091838083088177
:100E0000198163E070E0F801868197810E94BF0339
:100E100061E070E0F801808591850E94BF0361E088
:100E200070E0F801828593850E94BF03CE0104968D
:100E30009B838A830E94E006DF91CF911F910F91DF
:100E40000C949505CF93DF93EC010E949D068EE6EE
:100E500090E0998B888B88EE93E09B8B8A8B1E8A1F
:100E60001F8A188E198E1D8E1C8E1AA219A21EA200
:100E70001DA218A61FA22FB7F894809197029091F7
:100E80009802A0919902B0919A022FBF8F83988700
:100E9000A987BA87DF91CF9108950F931F93CF93BE
:100EA000DF93CDB7DEB7C85CD1090FB6F894DEBFCB
:100EB0000FBECDBFFC018FB7F894409197025091BF
:100EC00098026091990270919A028FBF87819085F4
:100ED000A185B285481B590B6A0B7B0B85819681D6
:100EE000092E000CAA0BBB0B481759076A077B0792
:100EF00070F4138680E0C853DF4F0FB6F894DEBF5E
:100F00000FBECDBFDF91CF911F910F9108958385C3
:100F10008111F1CF8F010280F381E02D8BE090E011
:100F20009A83898386AD97AD9C838B8362E070E062
:100F3000CE0101960E944D0681E0D8011B968C934C
:100F4000DACFCF92DF92EF92FF920F931F93CF935E
:100F5000DF938C017B016A01CAE7D2E08991999104
:100F6000009771F0DC01ED91FC910190F081E02D92
:100F70009601A701B8011995B2E0CE38DB0771F7E9
:100F8000DF91CF911F910F91FF90EF90DF90CF9065
:100F90000895CF92DF92EF92FF920F931F93CF931A
:100FA000DF93EC01E881F9810284F385E02D199546
:100FB000EA81FB810190F081E02D86810E94A203ED
:100FC0009C010196C888D9888C159D050CF46C018C
:100FD000D98AC88AC9010197EA89FB89E817F90704
:100FE0000CF4FC01FB8BEA8B0D2C000CEE08FF08C7
:100FF000032E000C440B550B2C193D094E095F09BB
:10100000AFEFB3E00E940C119F01FF0F440B550B93
:101010002C193D094E095F090E94ED108C8D9D8DA4
:10102000B901681B790BCB0177FF03C091958195BE
:1010300091096BA17CA13D8F2C8FEE8DEE2341F0A9
:10104000681779070CF076C01E8E1AA219A214C078
:1010500068177907D4F389A19AA16F8D78A16817D1
:1010600079071CF001969AA389A389A19AA1681710
:10107000790711F481E08E8FCE88DF88E88CF98CB7
:10108000B901330F880B990B0E94ED11A70196014E
:101090000E9448112C853D854E855F850E947E12F9
:1010A000A70196010E9449116B017C01CE8ADF8A5B
:1010B000E88EF98E20E030E0A9010E94791220E04C
:1010C00030E040E05FE387FD3EC0C701B6010E940B
:1010D00049110E94B5118B85882361F18C818111A2
:1010E00037C08B0123E0159507952A95E1F717FF87
:1010F00002C010E000E00038110514F00FE710E026
:101100008DA19EA18017910799F0E881F981068051
:10111000F781E02DCE0119957C01E881F9810480E9
:10112000F581E02DCE011995A801B7010E94A10714
:101130001EA30DA3DF91CF911F910F91FF90EF9010
:10114000DF90CF900895C701B6010E944811C1CF2A
:1011500084E0660F771F8A95E1F77B01E894E7F852
:10116000FF248B01000F012F001F110B17FF02C07E
:1011700010E000E00038110514F00FE710E08FA137
:1011800098A5E816F90629F48DA19EA1081719075C
:1011900099F0E881F9810084F185E02DCE0119955F
:1011A0006C01E881F9810480F581E02DCE0119956B
:1011B000A701B6010E94A1078DA19EA108171907DA
:1011C00099F0E881F9810680F781E02DCE0119952B
:1011D0006C01E881F9810480F581E02DCE0119953B
:1011E000A801B6010E94A1071EA30DA3F8A6EFA2B5
:1011F000A1CFCF93DF93EC0164E070E08E819F81FB
:101200000E94BF0370E060E0888599850E94BF035B
:1012100061E070E08A859B85DF91CF910C94BF03DC
:10122000CF93DF93EC01FC01EE5BFF4F83E090E096
:10123000918380833296208131812330310511F0F2
:1012400091838083888199810E94F908CE01439619
:101250009B838A830E942207DF91CF910C9495058E
:10126000CF93DF93DC01ED91FC913097A1F1EC017C
:1012700080810E943802FE01E85BFF4F892B51F10B
:1012800081E080833497808191818230910551F093
:101290008330910599F00197F1F4CE01DF91CF9160
:1012A0000C945C05FE01EE5BFF4F808191810297FB
:1012B00091F0CE01DF91CF910C94EB06FE01EE5B35
:1012C000FF4F80819181039731F0CE01DF91CF9163
:1012D0000C9410091082DF91CF910895CF93DF9382
:1012E000EC0164E070E08E819F810E94BF0361E0A9
:1012F00070E0888599850E94BF0361E070E08A856F
:101300009B85DF91CF910C94BF030F931F93CF93D5
:10131000DF9302E912E0F801C081D181E0919002EF
:10132000F09191021382128270E060E080810E944D
:10133000CB02CE010E945C05FE01EA5BFF4F1182E9
:101340001082CE010E943009F801C281D381E09160
:101350009002F09191021382128270E060E080812D
:101360000E94CB02CE010E945C05FE01EA5BFF4FAA
:1013700011821082CE01DF91CF911F910F910C94B9
:101380003009CF93DF93EC0162E00E948F0261E0AD
:101390008C2F0E946102C230D10581F485E899E06A
:1013A000909301028093000280916A008C7F81609B
:1013B00080936A00EC9ADF91CF910895C330D105F4
:1013C00071F485E899E09093030280930202809182
:1013D0006A00837F846080936A00ED9AECCFCE012F
:1013E0004297049740F787E18C1B883020F7E82F5D
:1013F000F0E0EE0FFF1FE050FE4F25E839E03183AB
:1014000020838630A1F08730D1F0853041F0809183
:1014100069008F7C806180936900EA9ACCCF8091CB
:1014200069008F73806480936900EB9AC4CF8091C8
:101430006A008F7C806180936A00EE9ABCCF8091B5
:101440006A008F73806480936A00EF9AB4CF8BE256
:1014500090E008958BE090E0089580E490E0089596
:1014600080E290E0089590E080E008958F929F924E
:10147000AF92BF92CF92DF92EF92FF920F931F93A2
:10148000CF93DF937C014B015A0169018CE090E01E
:101490000E941713EC01998288821B821A82BD82F6
:1014A000AC82DF82CE82198708871B861A8663E0AA
:1014B00070E0C4010E94BF0363E070E08A819B81F9
:1014C0000E94BF0363E070E08C819D810E94BF0396
:1014D000F701D183C083DF91CF911F910F91FF90CE
:1014E000EF90DF90CF90BF90AF909F908F90089536
:1014F0000F931F93CF93DF93EC01E881F98102846E
:10150000F385E02D1995EA81FB810190F081E02DB2
:1015100086810E9438022D853E85892B09F04CC0BA
:101520002431310524F42F5F3F4F3E872D878C8572
:10153000811121C08D859E8544970CF444C081E0C3
:101540008C878B858823B9F0E881F9810680F78143
:10155000E02DCE0119958C01E881F9810480F58197
:10156000E02DCE0119954FE750E0B8010E94A10788
:101570008C85882341F18D859E85181619061CF1EE
:101580001C868B858823F9F0E881F9810680F78134
:10159000E02DCE0119958C01E881F9810480F58157
:1015A000E02DCE01199550E040E0B801DF91CF91D8
:1015B0001F910F910C94A107121613060CF0B7CFD0
:1015C00021503109B2CFDF91CF911F910F91089532
:1015D0001F920F920FB60F9211242F933F938F9368
:1015E0009F93AF93BF938091970290919802A0919F
:1015F0009902B0919A023091960223E0230F2D3781
:1016000058F50196A11DB11D209396028093970273
:1016100090939802A0939902B0939A0280919B02B2
:1016200090919C02A0919D02B0919E020196A11DF5
:10163000B11D80939B0290939C02A0939D02B09356
:101640009E02BF91AF919F918F913F912F910F90EB
:101650000FBE0F901F90189526E8230F0296A11D2C
:10166000B11DD2CF1F920F920FB60F9211240BB65D
:101670000F922F933F934F935F936F937F938F932B
:101680009F93AF93BF93EF93FF93E0910E02F0917E
:101690000F021995FF91EF91BF91AF919F918F919B
:1016A0007F916F915F914F913F912F910F900BBE62
:1016B0000F900FBE0F901F9018951F920F920FB6AC
:1016C0000F9211240BB60F922F933F934F935F937A
:1016D0006F937F938F939F93AF93BF93EF93FF93FA
:1016E000E0910C02F0910D021995FF91EF91BF91DD
:1016F000AF919F918F917F916F915F914F913F91AA
:101700002F910F900BBE0F900FBE0F901F9018954A
:101710001F920F920FB60F9211240BB60F922F93B8
:101720003F934F935F936F937F938F939F93AF9369
:10173000BF93EF93FF93E0910202F091030219959A
:10174000FF91EF91BF91AF919F918F917F916F9199
:101750005F914F913F912F910F900BBE0F900FBE55
:101760000F901F9018951F920F920FB60F92112491
:101770000BB60F922F933F934F935F936F937F938B
:101780008F939F93AF93BF93EF93FF93E0910002EA
:10179000F09101021995FF91EF91BF91AF919F9147
:1017A0008F917F916F915F914F913F912F910F900A
:1017B0000BBE0F900FBE0F901F9018951F920F92A7
:1017C0000FB60F9211240BB60F922F933F934F93A6
:1017D0005F936F937F938F939F93AF93BF93EF9399
:1017E000FF93E0910A02F0910B021995FF91EF919E
:1017F000BF91AF919F918F917F916F915F914F9129
:101800003F912F910F900BBE0F900FBE0F901F9026
:1018100018951F920F920FB60F9211240BB60F92CC
:101820002F933F934F935F936F937F938F939F93E8
:10183000AF93BF93EF93FF93E0910802F0910902F9
:101840001995FF91EF91BF91AF919F918F917F91EA
:101850006F915F914F913F912F910F900BBE0F9021
:101860000FBE0F901F9018951F920F920FB60F92F8
:1018700011240BB60F922F933F934F935F936F9367
:101880007F938F939F93AF93BF93EF93FF93E091D9
:101890000602F09107021995FF91EF91BF91AF9168
:1018A0009F918F917F916F915F914F913F912F9178
:1018B0000F900BBE0F900FBE0F901F9018951F92A8
:1018C0000F920FB60F9211240BB60F922F933F93E6
:1018D0004F935F936F937F938F939F93AF93BF9338
:1018E000EF93FF93E0910402F09105021995FF91A7
:1018F000EF91BF91AF919F918F917F916F915F9188
:101900004F913F912F910F900BBE0F900FBE0F90F4
:101910001F9018951F920F920FB60F9211240BB6BD
:101920000F922F933F934F935F936F937F938F9378
:101930009F93AF93BF93EF93FF938FE693E00E9443
:101940009204FF91EF91BF91AF919F918F917F9101
:101950006F915F914F913F912F910F900BBE0F9020
:101960000FBE0F901F9018951F920F920FB60F92F7
:1019700011240BB60F922F938F939F93EF93FF93A6
:10198000E0917F03F09180038081E0918503F091E5
:10199000860382FD1DC09081809188038F5F8F73C5
:1019A00020918903821741F0E0918803F0E0E1592A
:1019B000FC4F958F80938803FF91EF919F918F91BA
:1019C0002F910F900BBE0F900FBE0F901F90189588
:1019D0008081F2CFEFE6F3E01382128288EE93E08B
:1019E000A0E0B0E084839583A683B7838AE492E085
:1019F0009183808385EC90E09587848784EC90E0E8
:101A00009787868780EC90E0918B808B81EC90E0CB
:101A1000938B828B82EC90E0958B848B86EC90E0AC
:101A2000978B868B118E128E138E148EF0930D046D
:101A3000E0930C04EFE9F2E011821082138212822B
:101A400015821482178216821186108613861286DA
:101A50001586148617861686118A108A138A128AAA
:101A6000158A148A178A168A118E108E138E128E7A
:101A7000158E148E178E168E11A210A213A212A20A
:101A800015A214A217A216A211A610A68CE094E02B
:101A900093A782A714A615A616A613AA12AA15AA7A
:101AA00014AA8FEF9FEF97AB86AB91AF80AF83E027
:101AB0008093D90213AE14AE15AE16AE10925E032B
:101AC000EEEDF2E080E8DF011D928A95E9F71092D1
:101AD00061031092620310926303109264031092E8
:101AE00065031092660310926703109268031092C8
:101AF000690310926A0310926B0310926C031092A8
:101B00006D0310926E030895CF93DF9300D000D041
:101B100000D01F92CDB7DEB7789484B5826084BDC3
:101B200084B5816084BD85B5826085BD85B58160E1
:101B300085BD80916E00816080936E00109281005F
:101B4000809181008260809381008091810081601A
:101B500080938100809180008160809380008091DB
:101B6000B10084608093B1008091B0008160809367
:101B7000B0008091910082608093910080919100EB
:101B800081608093910080919000816080939000AB
:101B90008091A10082608093A1008091A10081606A
:101BA0008093A1008091A00081608093A00080912B
:101BB00021018260809321018091210181608093C5
:101BC00021018091200181608093200180917A0021
:101BD000846080937A0080917A00826080937A009A
:101BE00080917A00816080937A0080917A00806889
:101BF00080937A001092C100E091C902F091CA026C
:101C0000808191810E94AA011092CB021092CD0294
:101C10001092CC021092D4021092D3021092D202EF
:101C20001092D1028FEF9FEF9093D6028093D5024E
:101C30009093D8028093D7022FB7F894809197029F
:101C400090919802A0919902B0919A022FBF80932F
:101C5000610390936203A0936303B09364031092B3
:101C60005E031092DB021092DA021092DC021092F4
:101C7000DD021092600310925F038091D90281709F
:101C8000826081608093D90284E090E00E94171303
:101C90009A838983DC0113961C921E9212978AE222
:101CA00090E08D939C9361E00E948F0270E060E071
:101CB000E981FA8180810E94CB0229813A813093A7
:101CC00091022093900270E060E0D9018C910E9413
:101CD000CB02E981FA811382128282E9C82E82E066
:101CE000D82EF12CE12C98EEA92E93E0B92E2AE102
:101CF000222E22E0322E3DEC432E3CEC532E652C5E
:101D00003DE3732E42E0842E912C89E490E00E9402
:101D100017139A838983DC0111961C921E921396E5
:101D20001C921E92129718961C9218971A96BC92A3
:101D3000AE921997FC0113861486158616861786AF
:101D40009783868335822482108A128A118A0496A8
:101D50000E94E006A981BA8157961C92579759961E
:101D6000BC92AE925897FD01128E138E148E158E72
:101D7000168EB68BA58B2AE232E0348B238B5F96CE
:101D80004D925D926D927C92929798961C921E92C3
:101D9000979711A612A613A614A616A615A610AA02
:101DA00017A621E021AB80E197E293AB82AB15AAA5
:101DB00014AA97AA86AA11AE10AE13AE12AECD0128
:101DC00043960E942207A981BA81DD961C921E9239
:101DD000DC97DF961C921E92DE97FD01E05CFF4FC0
:101DE00011821082329611821082329611821082F4
:101DF00032961182108232961082809178029091F0
:101E000079028031910584F4FC01EE0FFF1FE85A3E
:101E1000FD4FB183A083DF969C938E93DE9701964E
:101E20009093790280937802F60129813A81219377
:101E300031936F0131E0E316F10409F454C106E176
:101E400010E026E330E04AE150E069E170E089818A
:101E50009A810E94360A89819A810E945C05EA94DF
:101E6000EF2809F03CC182E190E00E94C10982E0C4
:101E700090E00E94C10983E190E00E94C10984E0E2
:101E800090E00E9417132AE332E0DC0111963C93A4
:101E90002E932FE633E013963C932E9312972091C6
:101EA0008E0230918F022A3031056CF4F901EE0F69
:101EB000FF1FE658FD4F918380832F5F3F4F309384
:101EC0008F0220938E0282E090E00E94171322E49A
:101ED00032E0FC013183208320918E0230918F0209
:101EE0002A3031056CF4F901EE0FFF1FE658FD4F63
:101EF000918380832F5F3F4F30938F0220938E0218
:101F00008FE693E00E94AA010E94F8034B015C0156
:101F100068EEC62E63E0D62EE12CF12C0E94F80369
:101F2000681979098A099B09683E73408105910502
:101F3000A8F3F1E0CF1AD108E108F10828EE820EEB
:101F400023E0921EA11CB11CC114D104E104F104D0
:101F500029F745E0442E512C54E0252E312C32E94E
:101F6000632E32E0732ED301ED91FD913D01FA878E
:101F7000E9875F01F2E4AF0EB11CD5018D919C9110
:101F8000019709F01EC189859A850E943009E9856B
:101F9000FA85E85BFF4FFC83EB83808129853A85D6
:101FA0002A5B3F4F6901882309F48DC0D9018D91C7
:101FB0009C918938B3E19B0720F40196F901918344
:101FC0008083D6018D919C918838934109F07EC021
:101FD000E985FA85808191810E946E09A985BA857B
:101FE0000D90BC91A02DBA83A983E0919002F0914D
:101FF0009102228133813E832D8388248A9423E0B9
:10200000922EF12CE12C0091900210919102D801B6
:102010008C91F701E170FF27F887EF83E0FE6EC037
:102020006FEF70E00E94CB02D80113965C924E9243
:102030001297A981BA8116968C910E94A203EF8112
:10204000F885EF2B09F062C0881599050CF062C085
:10205000FFEFEF1AFF0A24E6E216F10409F04CC084
:102060006FEF70E0D8018C910E94CB02F80153828F
:102070004282D5018D919C9111970497F9F02D9290
:102080003C92E985FA85EC5BFF4F80819181049752
:1020900011F031822082E985FA85808191810E9448
:1020A0006E0989859A854396A985BA8513969C936E
:1020B0008E9312970E9422070E949505EB81FC8166
:1020C0008081811103C0D6011D921C92B6E96B1666
:1020D000B2E07B0609F047CF0E94210540CFEE24F5
:1020E000E394F12C12CE00E210E028E330E044E269
:1020F00050E063E270E0ABCE4C0185CF70E060E071
:102100000E94CB02F8011382128293CF881699069F
:102110000CF49ECFD8018C91ED81FE81EF2B09F458
:1021200040C06FEF70E00E94CB02D80113965C9222
:102130004E921297E985FA85808191810E94F90873
:10214000A985BA850D90BC91A02DBA83A98384E698
:10215000882E912C10E000E0EE24EA9493E0F92E12
:10216000E981FA8186810E94A2038E159F050CF4F5
:102170007C01081719070CF48C01F1E08F1A910803
:1021800079F7D5018D919C910E191F090B3011051E
:1021900084F0029709F492CF89859A850E94EB0614
:1021A0008DCF70E060E00E94CB02F80113821282B2
:1021B000C1CF039709F482CF89859A850E941009BF
:1021C0007DCFE985FA8582819381DC01ED91FC91D7
:1021D0000190F081E02D199579CF052E97FB1EF423
:1021E00000940E94041157FD07D00E94171107FCAC
:1021F00003D04EF40C9404115095409530952195E0
:102200003F4F4F4F5F4F0895909580957095619522
:102210007F4F8F4F9F4F08950E943911A59F900DBA
:10222000B49F900DA49F800D911D11240895A1E2EB
:102230001A2EAA1BBB1BFD010DC0AA1FBB1FEE1F40
:10224000FF1FA217B307E407F50720F0A21BB30B8B
:10225000E40BF50B661F771F881F991F1A9469F707
:1022600060957095809590959B01AC01BD01CF0163
:102270000895A29FB001B39FC001A39F700D811D5F
:102280001124911DB29F700D811D1124911D08957F
:102290005058BB27AA270E9460110C943F120E943D
:1022A000311238F00E94381220F039F49F3F19F4AF
:1022B00026F40C942E120EF4E095E7FB0C942812F1
:1022C000E92F0E94501258F3BA1762077307840768
:1022D000950720F079F4A6F50C9472120EF4E095AF
:1022E0000B2EBA2FA02D0B01B90190010C01CA01D0
:1022F000A0011124FF27591B99F0593F50F4503E7B
:1023000068F11A16F040A22F232F342F4427585F6C
:10231000F3CF469537952795A795F0405395C9F784
:102320007EF41F16BA0B620B730B840BBAF091503C
:10233000A1F0FF0FBB1F661F771F881FC2F70EC0DB
:10234000BA0F621F731F841F48F4879577956795AE
:10235000B795F7959E3F08F0B0CF9395880F08F09A
:102360009927EE0F9795879508950E94BC11689460
:10237000B1110C94731208950E94581288F09F575F
:1023800098F0B92F9927B751B0F0E1F0660F771F99
:10239000881F991F1AF0BA95C9F714C0B13091F08F
:1023A0000E947212B1E008950C947212672F782F78
:1023B0008827B85F39F0B93FCCF386957795679554
:1023C000B395D9F73EF490958095709561957F4FC0
:1023D0008F4F9F4F0895E89409C097FB3EF4909566
:1023E0008095709561957F4F8F4F9F4F9923A9F0EE
:1023F000F92F96E9BB279395F6958795779567957D
:10240000B795F111F8CFFAF4BB0F11F460FF1BC0C0
:102410006F5F7F4F8F4F9F4F16C0882311F096E953
:1024200011C0772321F09EE8872F762F05C0662301
:1024300071F096E8862F70E060E02AF09A95660FBA
:10244000771F881FDAF7880F9695879597F9089573
:1024500097F99F6780E870E060E008959FEF80EC57
:10246000089500240A9416161706180609060895FA
:1024700000240A9412161306140605060895092E60
:102480000394000C11F4882352F0BB0F40F4BF2BCF
:1024900011F460FF04C06F5F7F4F8F4F9F4F08950F
:1024A00057FD9058440F551F59F05F3F71F0479505
:1024B000880F97FB991F61F09F3F79F087950895EA
:1024C000121613061406551FF2CF4695F1DF08C009
:1024D000161617061806991FF1CF86957105610526
:1024E00008940895E894BB2766277727CB0197F9CE
:1024F00008950E94EB1208F48FEF08950E94911244
:102500000C943F120E94311238F00E94381220F0D1
:10251000952311F00C9428120C942E1211240C9473
:1025200073120E94501270F3959FC1F3950F50E003
:10253000551F629FF001729FBB27F00DB11D639F75
:10254000AA27F00DB11DAA1F649F6627B00DA11D1B
:10255000661F829F2227B00DA11D621F739FB00DC1
:10256000A11D621F839FA00D611D221F749F332731
:10257000A00D611D231F849F600D211D822F762FCA
:102580006A2F11249F5750409AF0F1F088234AF0A7
:10259000EE0FFF1FBB1F661F771F881F9150504013
:1025A000A9F79E3F510580F00C9428120C947312E9
:1025B0005F3FE4F3983ED4F3869577956795B7959A
:1025C000F795E7959F5FC1F7FE2B880F911D9695B4
:1025D000879597F90895990F0008550FAA0BE0E821
:1025E000FEEF16161706E807F907C0F012161306D5
:1025F000E407F50798F0621B730B840B950B39F415
:102600000A2661F0232B242B252B21F408950A267A
:1026100009F4A140A6958FEF811D811D0895EE0F4D
:10262000FF1F881F8BBF0790F691E02D19940F9321
:102630001F93CF93DF938230910510F482E090E0F6
:10264000E0911004F091110430E020E0B0E0A0E04F
:10265000309799F42115310509F44AC0281B390B2C
:1026600024303105D8F58A819B816115710589F186
:10267000FB0193838283FE0111C04081518102815D
:10268000138148175907E0F04817590799F4109734
:1026900061F012960C93129713961C933296CF0109
:1026A000DF91CF911F910F91089500931004109323
:1026B0001104F4CF2115310551F04217530738F0BA
:1026C000A901DB019A01BD01DF01F801C1CFEF01D2
:1026D000F9CF9093110480931004CDCFFE01E20F47
:1026E000F31F819391932250310939832883D7CFE7
:1026F00020910E0430910F04232B41F420911202FB
:102700003091130230930F0420930E042091100295
:10271000309111022115310541F42DB73EB740919A
:10272000140250911502241B350BE0910E04F09118
:102730000F04E217F307A0F42E1B3F0B28173907ED
:1027400078F0AC014E5F5F4F2417350748F04E0F0D
:102750005F1F50930F0440930E04819391939FCF7A
:10276000F0E0E0E09CCFCF93DF930097E9F0FC012D
:10277000329713821282A0911004B0911104ED01DE
:1027800030E020E01097A1F420813181820F931F67
:1027900020910E0430910F042817390709F061C009
:1027A000F0930F04E0930E04DF91CF910895EA01B6
:1027B000CE17DF07E8F54A815B819E01411551057F
:1027C000B1F7E901FB83EA8349915991C40FD51F01
:1027D000EC17FD0761F4808191810296840F951FAB
:1027E000E90199838883828193819B838A83F0E0C6
:1027F000E0E012968D919C9113970097B9F52D9179
:102800003C911197CD010296820F931F20910E04E7
:1028100030910F042817390739F6309751F5109287
:10282000110410921004B0930F04A0930E04BCCFB7
:10283000D383C28340815181840F951FC817D90764
:1028400061F44E5F5F4F88819981480F591F518312
:1028500040838A819B81938382832115310509F00E
:10286000B0CFF0931104E09310049ECFFD01DC0182
:10287000C0CF13821282D7CFF894FFCF1D041D045E
:102880001D041D041D041D041D041D04000012046C
:10289000800000000000780AE006DD052D0A300AFD
:1028A0004D0700000000C9072207DD052A0A270A94
:1028B0004D07000000001B06100600000000EA059E
:1028C000E90500000000B4041E044B0401057C046B
:0428D0005A046E0434
:020000040003F7
:10E000000D9489F10D94B2F10D94B2F10D94B2F129
:10E010000D94B2F10D94B2F10D94B2F10D94B2F1F0
:10E020000D94B2F10D94B2F10D94B2F10D94B2F1E0
:10E030000D94B2F10D94B2F10D94B2F10D94B2F1D0
:10E040000D94B2F10D94B2F10D94B2F10D94B2F1C0
:10E050000D94B2F10D94B2F10D94B2F10D94B2F1B0
:10E060000D94B2F10D94B2F10D94B2F10D94B2F1A0
:10E070000D94B2F10D94B2F10D94B2F10D94B2F190
:10E080000D94B2F10D94B2F10D94B2F10D94B2F180
:10E090000D94B2F10D94B2F10D94B2F10D94B2F170
:10E0A0000D94B2F10D94B2F10D94B2F10D94B2F160
:10E0B0000D94B2F10D94B2F10D94B2F10D94B2F150
:10E0C0000D94B2F10D94B2F10D94B2F10D94B2F140
:10E0D0000D94B2F10D94B2F10D94B2F10D94B2F130
:10E0E0000D94B2F141546D656761323536300041AF
:10E0F000726475696E6F206578706C6F72657220DE
:10E1000073746B3530305632206279204D4C530099
:10E11000426F6F746C6F616465723E004875683F52
:10E1200000436F6D70696C6564206F6E203D200048
:10E130004350552054797065202020203D20005FF9
:10E140005F4156525F415243485F5F3D2000415658
:10E1500052204C696243205665723D20004743437C
:10E160002056657273696F6E203D20004350552024
:10E1700049442020202020203D20004C6F7720663D
:10E18000757365202020203D20004869676820665F
:10E190007573652020203D200045787420667573D6
:10E1A00065202020203D20004C6F636B2066757336
:10E1B000652020203D20004D617220203720323024
:10E1C000313300312E362E3800342E332E350056A2
:10E1D00023202020414444522020206F7020636F70
:10E1E00064652020202020696E73747275637469E1
:10E1F0006F6E2061646472202020496E74657272B3
:10E20000757074006E6F20766563746F7200726A49
:10E210006D702020006A6D70200057686174207056
:10E220006F72743A00506F7274206E6F7420737541
:10E2300070706F72746564004D7573742062652030
:10E2400061206C6574746572002000577269747483
:10E25000696E672045450052656164696E672045B7
:10E26000450045452065727220636E743D00504F35
:10E27000525400303D5A65726F2061646472003FF1
:10E280003D43505520737461747300403D454550C3
:10E29000524F4D207465737400423D426C696E6B41
:10E2A000204C454400453D44756D70204545505215
:10E2B0004F4D00463D44756D7020464C415348001B
:10E2C000483D48656C70004C3D4C69737420492F83
:10E2D0004F20506F72747300513D51756974005234
:10E2E0003D44756D702052414D00563D73686F7707
:10E2F00020696E7465727275707420566563746FF0
:10E30000727300593D506F727420626C696E6B00BD
:10E310002A0011241FBECFEFD1E2DEBFCDBF01E046
:10E320000CBF12E0A0E0B2E0EEE1FDEF03E00BBFB6
:10E3300002C007900D92A030B107D9F712E0A0E01B
:10E34000B2E001C01D92AE30B107E1F70F9460F367
:10E350000D948DFE01E20EBF0FEF0DBF11241FBE05
:10E360000D9460F30D9400F020E030E040ED57E0B4
:10E3700005C0FA013197F1F72F5F3F4F2817390792
:10E38000C0F308959C01260F311DC901A0E0B0E043
:10E390002F5F3F4FABBFFC018791882361F08093D3
:10E3A000C6008091C00086FFFCCF8091C0008064D1
:10E3B0008093C000EACF08958DE08093C6008091DD
:10E3C000C00086FFFCCF8091C00080648093C000B5
:10E3D0008AE08093C6008091C00086FFFCCF8091C8
:10E3E000C00080648093C00008950F94C2F10F9420
:10E3F000DCF10895FC019081992359F09093C600B7
:10E400008091C00086FFFCCF8091C0008064809323
:10E41000C0003196992379F70895282F982F929567
:10E420009F70892F805D8A3308F0895F8093C600D2
:10E430008091C00086FFFCCF8091C00080648093F3
:10E44000C000822F8F70982F905D9A3308F0995FEB
:10E450009093C6008091C00086FFFCCF8091C000E1
:10E4600080648093C00008959C01FB01853691056E
:10E470001CF46330710594F0C90164E670E00F94F8
:10E480002EFE605D7F4F6093C6008091C00086FFC6
:10E49000FCCF8091C00080648093C0002B30310598
:10E4A00014F43297B4F0C90164E670E00F942EFEC4
:10E4B0006AE070E00F942EFE605D7F4F6093C600AF
:10E4C0008091C00086FFFCCF8091C0008064809363
:10E4D000C000C9016AE070E00F942EFEC0968093E0
:10E4E000C6008091C00086FFFCCF8091C000806490
:10E4F0008093C00008951F93182F8EE692EE60E07F
:10E500000F94C2F11093C6008091C00086FFFCCF2B
:10E510008091C00080648093C0000F94DCF11F9153
:10E5200008952F923F924F925F926F927F928F92B7
:10E530009F92AF92BF92CF92DF92EF92FF920F9392
:10E540001F93DF93CF93CDB7DEB762970FB6F894E2
:10E55000DEBF0FBECDBF382E622ECA01DB015C01CB
:10E560006D01772420E2222E2E010894411C511CBB
:10E570008BC081E0A81680E0B80681E0C80680E084
:10E58000D80628F0C601AA27BB270F940DF2BB2797
:10E59000AD2D9C2D8B2D0F940DF28A2D0F940DF225
:10E5A0002092C6008091C00086FFFCCF8091C00001
:10E5B00080648093C0009DE29093C6008091C0006B
:10E5C00086FFFCCF8091C00080648093C0002092C1
:10E5D000C6008091C00086FFFCCF8091C00080649F
:10E5E0008093C00019828601750188249924A1E0D6
:10E5F0003A1651F03A1620F0B2E03B1661F409C029
:10E600000BBFF701779007C0C7010F9477FE782EF4
:10E6100002C0F7017080872D0F940DF22092C60082
:10E620008091C00086FFFCCF8091C0008064809301
:10E63000C000872D8052F401EF70F0708F3520F408
:10E64000E40DF51D708204C0E40DF51D8EE280839B
:10E650000894E11CF11C011D111D0894811C911CE2
:10E6600090E18916910409F0C2CF80E190E0A0E02A
:10E67000B0E0A80EB91ECA1EDB1E198AC2010F9493
:10E68000FAF10F94DCF16A94662009F072CF629679
:10E690000FB6F894DEBF0FBECDBFCF91DF911F91B3
:10E6A0000F91FF90EF90DF90CF90BF90AF909F9031
:10E6B0008F907F906F905F904F903F902F90089534
:10E6C0002F923F924F925F926F927F928F929F9282
:10E6D000AF92BF92CF92DF92EF92FF920F931F9370
:10E6E000DF93CF93CDB7DEB7CD53D1400FB6F894BB
:10E6F000DEBF0FBECDBF01E20EBF0FEF0DBF94B75F
:10E70000F894A89514BE80916000886180936000A1
:10E7100010926000789493FF05C0E0910002F091A0
:10E7200001021995279A2F9A8091C00082608093E8
:10E73000C00080E18093C40088E18093C1000000A4
:10E74000EE24FF24870144E0A42EB12CCC24DD2448
:10E7500024C0C5010197F1F70894E11CF11C011DCB
:10E76000111D21E2E2162EE4F20620E0020720E06D
:10E77000120718F031E0C32ED12CC801B70127ECE5
:10E780003BE140E050E00F9441FE611571058105C9
:10E79000910519F485B1805885B98091C00087FD35
:10E7A00003C0C114D104A9F2A6014F5F5F4FC25E3E
:10E7B000DE4F59834883CE51D140C25EDE4F8881FF
:10E7C0009981CE51D140019711F00D9410FEC05D9A
:10E7D000DE4F19821882C053D14060E0C15DDE4F28
:10E7E0001882CF52D14088249924C35DDE4F19820C
:10E7F0001882CD52D140C05EDE4F188219821A8233
:10E800001B82C052D140CE5CDE4F188219821A8220
:10E810001B82C253D140EE24FF2487010BBFF701B6
:10E8200007911691C45CDE4F19830883CC53D14005
:10E830000D940BFEC25EDE4F28813981CE51D1404E
:10E840002130310509F52091C600C25EDE4F1982E4
:10E850001882CE51D14022C02F5F3F4F4F4F5F4FA4
:10E86000213082E138078AE7480780E0580780F0C6
:10E87000C45CDE4FE881F981CC53D140EF5FFF4F9C
:10E8800019F0EE27FF27099420E030E040E050E047
:10E890008091C00087FFE0CF2091C600C35DDE4FAE
:10E8A00048815981CD52D1404F5F5F4FC35DDE4FEC
:10E8B00059834883CD52D140213209F063C64A3092
:10E8C000510508F05FC60894811C911C53E0851621
:10E8D000910409F059C600E010E018C081E280936D
:10E8E000C6008091C00086FFFCCF8091C00080648C
:10E8F0008093C0002F5F3F4F2931310579F70F9486
:10E90000DCF10F5F1F4F0530110519F020E030E0FA
:10E91000E5CF10920A0210920B0210920C02109294
:10E920000D02109206021092070210920802109235
:10E930000902109202021092030210920402109235
:10E9400005028FEE90EE60E00F94F5F180E191EE1C
:10E9500060E00F94C2F18091C00087FFFCCF9091DE
:10E96000C600903608F09F759032B8F09093C600BC
:10E970008091C00086FFFCCF8091C00080648093AE
:10E98000C000A0E2A093C6008091C00086FFFCCF2B
:10E990008091C00080648093C000983409F4D7C18E
:10E9A0009934B8F4923409F459C1933458F490333B
:10E9B00019F1903308F4E3C59F33A1F1903409F0C5
:10E9C000DEC5BDC0953409F470C1963409F0D7C5D1
:10E9D00098C1923509F42BC2933538F49C3409F46C
:10E9E000F5C1913509F0CBC518C2963509F445C279
:10E9F000993509F0C4C567C483E792EE62E00F94CD
:10EA0000F5F110920602109207021092080210927D
:10EA1000090210920A0210920B0210920C0210923C
:10EA20000D0213C18FE792EE62E00F94F5F18FEEC5
:10EA300090EE60E00F94F5F181E291EE60E00F94CA
:10EA4000C2F187EB91EE60E00F94F5F180E391EE77
:10EA500060E00F94C2F184EE90EE60E00F94F5F167
:10EA60008FE391EE60E00F94C2F186E090E061E008
:10EA700070E00F9434F20F94DCF18DE591EE60E0DC
:10EA80000F94C2F189EC91EE60E00F94F5F18EE401
:10EA900091EE60E00F94C2F183EC91EE60E00F9490
:10EAA000F5F18CE691EE60E00F94C2F18EE10F94E7
:10EAB0000DF288E90F940DF281E00F940DF20F949E
:10EAC000DCF18BE791EE60E00F94C2F119E0E0E039
:10EAD000F0E010935700E4918E2F0F940DF20F94F5
:10EAE000DCF18AE891EE60E00F94C2F1E3E0F0E03F
:10EAF00010935700E4918E2F0F940DF20F94DCF1D8
:10EB000089E991EE60E00F94C2F1E2E0F0E0109349
:10EB10005700E4918E2F0F940DF20F94DCF188EAE8
:10EB200091EE60E00F94C2F1E1E0F0E01093570045
:10EB30001491812F0F940DF20F94DCF107CF8BE825
:10EB400092EE62E00F94F5F18BE492EE60E00F94A8
:10EB5000F5F10F94DCF100E010E019C0C8016F2D51
:10EB60000F947FFEFF2031F489E492EE60E00F9471
:10EB7000C2F10BC0F092C6008091C00086FFFCCFAE
:10EB80008091C00080648093C0000F5F1F4FC80158
:10EB900081519F41A0E0B0E0ABBFFC01F790BAE229
:10EBA000FB1621F0E2E000301E07C1F60F94DCF105
:10EBB0000F94DCF187E592EE60E00F94F5F10F948D
:10EBC000DCF1CC24DD2400E010E01EC0C8010F946D
:10EBD00077FEF82E882331F489E492EE60E00F94FA
:10EBE000C2F10BC08093C6008091C00086FFFCCFAD
:10EBF0008091C00080648093C000FE1419F00894D6
:10EC0000C11CD11C0F5F1F4FC80181519F41A0E063
:10EC1000B0E0ABBFFC01E790FAE2EF1621F022E092
:10EC20000030120799F60F94DCF10F94DCF182E6C4
:10EC300092EE60E00F94C2F1C60161E070E00F94C3
:10EC400034F20F94DCF10F94DCF110920202109276
:10EC50000302109204021092050278CE89E992EE26
:10EC600062E00F94F5F1279A2F9A16C02F9880E052
:10EC700090E0E0EDF7E03197F1F7019684369105E9
:10EC8000C1F72F9A80E090E0E0EDF7E03197F1F7DF
:10EC9000019684369105C1F78091C00087FFE6CFC9
:10ECA0008091C00087FFFCCF64C485EA92EE62E0E9
:10ECB0000F94F5F140910202509103026091040219
:10ECC0007091050281E020E10F9491F2809102029F
:10ECD00090910302A0910402B091050280509F4FD1
:10ECE000AF4FBF4F8093020290930302A0930402A0
:10ECF000B093050280509041A040B04008F426CE69
:10ED0000A4CF83EB92EE62E00F94F5F140910602FE
:10ED100050910702609108027091090280E020E1A1
:10ED20000F9491F28091060290910702A09108023F
:10ED3000B091090280509F4FAF4FBF4F80930602A2
:10ED400090930702A0930802B0930902FFCD80ECD4
:10ED500092EE62E00F94F5F183E792EE60E00F949B
:10ED6000F5F18FE792EE60E00F94F5F18BE892EE0B
:10ED700060E00F94F5F189E992EE60E00F94F5F10F
:10ED800085EA92EE60E00F94F5F183EB92EE60E09D
:10ED90000F94F5F180EC92EE60E00F94F5F187ECC2
:10EDA00092EE60E00F94F5F188ED92EE60E00F9442
:10EDB000F5F18FED92EE60E00F94F5F18AEE92EEB0
:10EDC00060E00F94F5F183E093EEBDCD87EC92EE19
:10EDD00062E00F94F5F181E40F947BF282E40F94EA
:10EDE0007BF283E40F947BF284E40F947BF285E45E
:10EDF0000F947BF286E40F947BF287E40F947BF20E
:10EE000088E40F947BF28AE40F947BF28BE40F94F6
:10EE10007BF28CE40F947BF299CD88ED92EE62E068
:10EE20000F94F5F1772473948824992409C48FED05
:10EE300092EE62E00F94F5F140910A0250910B02BC
:10EE400060910C0270910D0282E020E10F9491F22A
:10EE500080910A0290910B02A0910C02B0910D02D8
:10EE600080509F4FAF4FBF4F80930A0290930B0289
:10EE7000A0930C02B0930D0269CD8AEE92EE62E08F
:10EE80000F94F5F184EE90EE60E00F94F5F18FECC5
:10EE900091EE60E00F94F5F1662477244301CC5D98
:10EEA000DE4F19821882C452D140D401C301B695F5
:10EEB000A79597958795CA5DDE4F88839983AA8326
:10EEC000BB83C652D140CC5DDE4FA881B981C4520C
:10EED000D1401196CC5DDE4FB983A883C452D14096
:10EEE000CD0162E070E00F9434F2B0E2B093C6005E
:10EEF0008091C00086FFFCCF8091C0008064809329
:10EF0000C000EDE2E093C6008091C00086FFFCCF18
:10EF10008091C00080648093C000F0E2F093C6004E
:10EF20008091C00086FFFCCF8091C00080648093F8
:10EF3000C000CA5DDE4FE880F9800A811B81C6529D
:10EF4000D140BB27A12F902F8F2D0F940DF2CA5DBA
:10EF5000DE4F8881C652D1400F940DF2B0E2FB2EF5
:10EF6000F092C6008091C00086FFFCCF8091C00067
:10EF700080648093C0000DE30093C6008091C000C0
:10EF800086FFFCCF8091C00080648093C00010E2B7
:10EF90001093C6008091C00086FFFCCF8091C00016
:10EFA00080648093C0008BBEF3012791C65DDE4F65
:10EFB0002883CA52D140A22EBB24CC24DD2408943D
:10EFC000611C711C811C911C8BBEF3018791282E42
:10EFD0003324442455240894611C711C811C911C09
:10EFE0008BBEF3013791C55DDE4F3883CB52D140E4
:10EFF0000894611C711C811C911C8BBEF30147910C
:10F00000C45DDE4F4883CC52D140ADEFEA2EAFEF66
:10F01000FA2EAFEF0A2FAFEF1A2F6E0C7F1C801E57
:10F02000911E142D032DF22CEE24EA0CFB1C0C1D5A
:10F030001D1D0F940DF220E22093C6008091C000A8
:10F0400086FFFCCF8091C00080648093C000C65DC5
:10F05000DE4F8881CA52D1400F940DF230E23093D6
:10F06000C6008091C00086FFFCCF8091C000806404
:10F070008093C000C45DDE4F8881CC52D1400F9494
:10F080000DF240E24093C6008091C00086FFFCCFA5
:10F090008091C00080648093C000C55DDE4F888190
:10F0A000CB52D1400F940DF250E25093C6008091A4
:10F0B000C00086FFFCCF8091C00080648093C000B8
:10F0C0008FEFE8168FEFF80680E0080780E018075A
:10F0D00031F484E092EE60E00F94C2F1DFC0D80119
:10F0E000C7018070907CA070B0708050904CA040A0
:10F0F000B040D1F52FEF3FE340E050E0E222F322B1
:10F1000004231523CA5DDE4FA880B980CA80DB8046
:10F11000C652D140AE0CBF1CC01ED11EAA0CBB1CD7
:10F12000CC1CDD1C8EE092EE60E00F94C2F1BB2798
:10F13000A12F902F8F2D0F940DF28E2D0F940DF285
:10F1400030E23093C6008091C00086FFFCCF8091F2
:10F15000C00080648093C0004EE34093C60080915D
:10F16000C00086FFFCCF87C08EE09EEFA0E0B0E03D
:10F17000E822F9220A231B239CE0E91694E9F90608
:10F1800090E0090790E0190709F088C0C45DDE4FE0
:10F19000A881CC52D140EA2EFF2400E010E0102FCD
:10F1A0000F2DFE2CEE24C55DDE4FB881CB52D14031
:10F1B000EB0EF11C011D111DD601C501817090706F
:10F1C000A070B070DC0199278827E80EF91E0A1F8D
:10F1D0001B1F20EF30E040E050E0A222B322C42207
:10F1E000D52241E1AA0CBB1CCC1CDD1C4A95D1F7F1
:10F1F000EA0CFB1C0C1D1D1D81E090E0A0E0B0E0BE
:10F20000282239224A225B2235E1220C331C441C7D
:10F21000551C3A95D1F7E20CF31C041D151D57013E
:10F220006801AA0CBB1CCC1CDD1C85E192EE60E0E1
:10F230000F94C2F1C801AA27BB270F940DF2BB2778
:10F24000A12F902F8F2D0F940DF28E2D0F940DF274
:10F2500090E29093C6008091C00086FFFCCF809121
:10F26000C00080648093C000AEE3A093C60080918C
:10F27000C00086FFFCCF8091C00080648093C000F6
:10F28000C601AA27BB270F940DF2BB27AD2D9C2DDD
:10F290008B2D0F940DF28A2D0F940DF20F94DCF14B
:10F2A000CC5DDE4FE881F981C452D140F99709F471
:10F2B0004DCBF4E0EF2EF12C012D112D6E0C7F1CA7
:10F2C000801E911EF2CD83E093EE62E00F94F5F183
:10F2D0008AE192EE60E00F94C2F18091C00087FF56
:10F2E000FCCF1091C6001F751093C6008091C0001E
:10F2F00086FFFCCF8091C00080648093C0000F9493
:10F30000DCF1812F81548A3108F036C1163409F4BA
:10F3100095C0173490F4133409F44EC0143430F40B
:10F320001134F1F0123409F01DC130C0143409F465
:10F3300059C0153409F016C16BC01A3409F4C4C0A1
:10F340001B3438F4173409F48FC0183409F00AC19B
:10F35000A1C01B3409F4D2C01C3409F003C1E8C0B9
:10F360008FEF81B90DC082B1809582B980E090E0C5
:10F37000E0EDF7E03197F1F70196883C9105C1F790
:10F380008091C00087FFEFCF12B8EFC08FEF84B934
:10F390000DC085B1809585B980E090E0E0EDF7E0A3
:10F3A0003197F1F70196883C9105C1F78091C00033
:10F3B00087FFEFCF15B8D9C08FEF87B90DC088B1DF
:10F3C000809588B980E090E0E0EDF7E03197F1F7C3
:10F3D0000196883C9105C1F78091C00087FFEFCF6F
:10F3E00018B8C3C08FEF8AB90DC08BB180958BB9A7
:10F3F00080E090E0E0EDF7E03197F1F70196883C8E
:10F400009105C1F78091C00087FFEFCF1BB8ADC059
:10F410008FEF8DB90DC08EB180958EB980E090E0F0
:10F42000E0EDF7E03197F1F70196883C9105C1F7DF
:10F430008091C00087FFEFCF1EB897C08FEF80BBD1
:10F440000DC081B3809581BB80E090E0E0EDF7E0F6
:10F450003197F1F70196883C9105C1F78091C00082
:10F4600087FFEFCF11BA81C08FEF83BB0DC084B38C
:10F47000809584BB80E090E0E0EDF7E03197F1F714
:10F480000196883C9105C1F78091C00087FFEFCFBE
:10F4900014BA6BC08FEF809301010FC080910201FD
:10F4A00080958093020180E090E0E0EDF7E03197F5
:10F4B000F1F70196883C9105C1F78091C00087FF64
:10F4C000EDCF1092020151C08FEF809304010FC065
:10F4D0008091050180958093050180E090E0E0ED4A
:10F4E000F7E03197F1F70196883C9105C1F78091DB
:10F4F000C00087FFEDCF1092050137C08FEF8093DA
:10F5000007010FC08091080180958093080180E079
:10F5100090E0E0EDF7E03197F1F70196883C910536
:10F52000C1F78091C00087FFEDCF109208011DC088
:10F530008FEF80930A010FC080910B01809580931B
:10F540000B0180E090E0E0EDF7E03197F1F70196F4
:10F55000883C9105C1F78091C00087FFEDCF1092E4
:10F560000B0103C085E292EEEEC98091C00087FFD7
:10F57000FCCF8091C600EAC988E392EEE4C98CE131
:10F5800091EEE1C988249924933011F1943028F444
:10F59000913089F09230B8F408C0953061F195301F
:10F5A000F0F0963009F048C043C02B3109F042C951
:10F5B00091E06BE13FC96227C15DDE4F2883CF52E6
:10F5C000D14092E037C9B22FA0E0622793E032C960
:10F5D000822F90E0A82BB92B622794E02BC92E3004
:10F5E00009F039C3622795E0C05DDE4F19821882A9
:10F5F000C053D1401FC9E1E0F0E0EC0FFD1FC05D3A
:10F60000DE4F08811981C053D140E00FF11F2083E4
:10F610000F5F1F4FC05DDE4F19830883C053D14079
:10F6200062270A171B0709F005C9D80196E002C92D
:10F63000261709F010C303C0973009F0FBC87724E0
:10F640009981933109F412C19431C8F4963009F4C8
:10F65000D8C0973050F4923009F406C1933009F4C1
:10F660006DC0913009F059C253C0913109F477C08F
:10F67000923108F0BBC0903109F04FC2F5C098310B
:10F6800009F487C0993150F4953109F4EFC09531F0
:10F6900008F4C6C1963109F040C2C2C19A3109F4DA
:10F6A0006CC09A3108F491C09B3109F45BC09D3164
:10F6B00009F033C29D81903359F48F81882311F46E
:10F6C0009EE11CC0813011F091E018C098E916C08D
:10F6D000892F807591F0903539F4E0E0F0E089E011
:10F6E0008093570094910AC0983539F4E3E0F0E034
:10F6F00089E080935700949101C090E01A821B82A8
:10F700008D818C831D829E831F8227E030E009C299
:10F710001A8288E08B8381E48C8386E58D8382E581
:10F720008E8389E48F8383E5888780E589878FE5E9
:10F730008A8782E38B872BE030E0F3C18A818139AD
:10F7400041F0823941F0803911F48FE005C080E04A
:10F7500003C082E001C08AE01A828B8344C0772410
:10F76000739482C08D81882311F48EE12CC0813086
:10F7700011F081E028C088E926C01A82E1E0F0E0BB
:10F7800089E08093570084918B831C8224E030E0D1
:10F79000C8C18B81803589F48C81883039F4E2E0EE
:10F7A000F0E089E08093570084910DC0E0E0F0E044
:10F7B00089E080935700849106C0E3E0F0E089E09F
:10F7C0008093570084911A82DFCF8D81836C99E0FA
:10F7D000E1E0F0E0082E90935700E89507B600FCB2
:10F7E000FDCF1A821B8223E030E09BC180EC8A832C
:10F7F000CE5CDE4F188219821A821B82C253D1401E
:10F800008EC18A8190E0A0E0B0E0582F44273327D2
:10F8100022278B8190E0A0E0B0E0DC0199278827C7
:10F82000282B392B4A2B5B2B8D8190E0A0E0B0E098
:10F83000282B392B4A2B5B2B8C8190E0A0E0B0E089
:10F84000BA2FA92F982F8827282B392B4A2B5B2BCF
:10F85000220F331F441F551FC05EDE4F288339839C
:10F860004A835B83C052D1401A8259C13A81C95C34
:10F87000DE4F3883C753D140CA5CDE4F1882C6536F
:10F88000D1408B81C82EDD24CA5CDE4F488159816E
:10F89000C653D140C42AD52A933109F082C0CE5C28
:10F8A000DE4F88819981AA81BB81C253D1408050AB
:10F8B000904CA340B04030F583E0CE5CDE4FE88052
:10F8C000F9800A811B81C253D140F70100935B008C
:10F8D00080935700E89507B600FCFDCFCE5CDE4F65
:10F8E000088119812A813B81C253D14000501F4FAA
:10F8F0002F4F3F4FCE5CDE4F088319832A833B8313
:10F90000C253D140C05EDE4F488159816A817B81FC
:10F91000C052D140DE011B9631E08C9111962C91A2
:10F9200011971296C75CDE4F2883C953D140C85C3B
:10F93000DE4F1882C853D14090E0C85CDE4FE881AA
:10F94000F981C853D1408E2B9F2B0C01FA01609393
:10F950005B0030935700E89511244E5F5F4F6F4F67
:10F960007F4F0EEFE02E0FEFF02ECE0CDF1CC114F8
:10F97000D10499F685E0C05EDE4F088119812A81A5
:10F980003B81C052D140F80120935B008093570027
:10F99000E89507B600FCFDCF81E180935700E8951C
:10F9A00035C0C05EDE4F88819981AA81BB81C0527B
:10F9B000D140B695A795979587957C018601ABE0D8
:10F9C000AA2EB12CAC0EBD1E0BC0D5016D915D01F0
:10F9D000C7010F947FFE0894E11CF11C01501040F8
:10F9E0000115110591F7A60160E070E0440F551F65
:10F9F000661F771FC05EDE4FE880F9800A811B8199
:10FA0000C052D1404E0D5F1D601F711F1A82C05E33
:10FA1000DE4F488359836A837B83C052D1407FC0C5
:10FA2000FA80C55CDE4FF882CB53D140C65CDE4F16
:10FA30001882CA53D1408B81C82EDD24C65CDE4FAC
:10FA400008811981CA53D140C02AD12A1A828981DA
:10FA5000BE016D5F7F4F843121F59601C05EDE4FA0
:10FA6000E880F9800A811B81C052D1400BBFF701A9
:10FA700087919691DB018C9311969C936E5F7F4FDB
:10FA8000D801C7010296A11DB11DC05EDE4F88835B
:10FA90009983AA83BB83C052D14022503040F1F6F3
:10FAA00036C0C05EDE4F288139814A815B81C052F9
:10FAB000D1400894C108D108760100E010E0089414
:10FAC000C11CD11C0894E11CF11C011D111DE20E8A
:10FAD000F31E041F151F21BDBB27A52F942F832FB5
:10FAE00082BD2F5F3F4F4F4F5F4FF89A80B5DB01CC
:10FAF0008D93BD012E153F054007510761F7C05E8C
:10FB0000DE4F288339834A835B83C052D1409601FC
:10FB10002D5F3F4FFB01108204C080EC8A8322E0FE
:10FB200030E08BE18093C6008091C00086FFFCCF5F
:10FB30008091C00080648093C000C15DDE4FF88179
:10FB4000CF52D140F093C6008091C00086FFFCCF19
:10FB50008091C00080648093C000432F3093C60022
:10FB60008091C00086FFFCCF8091C00080648093AC
:10FB7000C000922F2093C6008091C00086FFFCCF6A
:10FB80008091C00080648093C0008EE08093C600A6
:10FB90008091C00086FFFCCF8091C000806480937C
:10FBA000C00065E1C15DDE4FE880CF52D1406E25D7
:10FBB00069276427FE01319610C090819093C6009A
:10FBC0008091C00086FFFCCF31968091C000806498
:10FBD0008093C0006927215030402115310569F715
:10FBE0006093C6008091C00086FFFCCF8091C0006A
:10FBF00080648093C00085B1805885B9772081F4F6
:10FC0000C15DDE4F0881CF52D1400F5FC15DDE4F35
:10FC10000883CF52D14090E0A0E0B0E00D941AF4F8
:10FC200027982F9880E090E020ED37E0F901319798
:10FC3000F1F7019684369105C9F700008091C00064
:10FC40008D7F8093C00081E180935700E895EE2777
:10FC5000FF270994FFCF90E00D941AF497FB092E2B
:10FC600007260AD077FD04D02ED006D000201AF443
:10FC7000709561957F4F0895F6F7909581959F4F08
:10FC80000895A1E21A2EAA1BBB1BFD010DC0AA1FDD
:10FC9000BB1FEE1FFF1FA217B307E407F50720F0F5
:10FCA000A21BB30BE40BF50B661F771F881F991F70
:10FCB0001A9469F760957095809590959B01AC01B9
:10FCC000BD01CF010895AA1BBB1B51E107C0AA1FAC
:10FCD000BB1FA617B70710F0A61BB70B881F991FED
:10FCE0005A95A9F780959095BC01CD010895F99991
:10FCF000FECF92BD81BDF89A992780B50895262F31
:10FD0000F999FECF1FBA92BD81BD20BD0FB6F89400
:0EFD1000FA9AF99A0FBE01960895F894FFCF63
:00000001FF
