:100000000C9473010C94A4010C94A4010C94A4010D
:100010000C94A4010C94A4010C94A4010C94A401CC
:100020000C94A4010C94A4010C94A4010C94A401BC
:100030000C94A4010C94A4010C94A4010C94A401AC
:100040000C94A4010C94A4010C94A4010C94A4019C
:100050000C94A4010C94A4010C94A4010C94FC082D
:100060000C94A4010C9470090C9446090C94A401FE
:100070000C94A4010C94A4010C94A4010C94A4016C
:100080000C94A4010C94A4010C94A4010C94A4015C
:100090000C94A4010C94A4010C94A4010C94A4014C
:1000A0000C94A4010C94A4010C94A4010C94A4013C
:1000B0000C94A4010C94A4010C94A4010C94A4012C
:1000C0000C94A4010C94A4010C94A4010C94A4011C
:1000D0000C94A4010C94A4010C94A4010C94A4010C
:1000E0000C94A4010C9461040C94F1010C9431065D
:1000F0000C9467030C942A030C9432030C947B0336
:100100000C9444030C9406020C94A6090C948304EA
:100110000C942B020C9422020C9430020C94F901E2
:100120000C943D080C940C030C9499030C94250436
:100130000C94FD010C9463060C94BB040C942C02EB
:100140000C94C3050C9400020C94EC050C94FF0273
:100150000C948F030C944E030C9452040C941603CD
:100160000C9408050C948C080C9418020C947103E0
:100170000C9458030C9410020C940A020C94EB019A
:100180000C9420030C9432060C9458060C944008EE
:100190000C9485030C9426020C943A080C94BD062A
:1001A0000C9475040C943A030C94F5010C9410060D
:1001B0000C9437080C9405060C9407030C94140255
:1001C0000C941E0200002100240027002A002D00AC
:1001D0003000330001010000040107010A010000A2
:1001E0002200250028002B002E00310034000201DF
:1001F0000000050108010B0100002000230026007B
:1002000029002C002F00320000010000030106012C
:10021000090105050505070508080808020202028C
:100220000A0A080804040404010101010101010192
:100230000303030303030303040707070C0C0C0C5D
:100240000C0C0C0C02020202060606060606060646
:100250000B0B0B0B0B0B0B0B0102102020080810D3
:100260002040102040800201020108040201010226
:1002700004081020408080402010080402018004FF
:10028000020180402010080402010804020101025A
:100290000408102040800102040810204080000063
:1002A0000A0B02090C0D0E080703040100000000F0
:1002B000000000000000000000000000000000003E
:1002C00000000000000000000000121110000000FB
:1002D000000000000000000000000000000000001E
:1002E00000000000A60911241FBECFEFD1E2DEBF3F
:1002F000CDBF00E00CBF12E0A0E0B2E0E8EEF4E217
:1003000000E00BBF02C007900D92AC34B107D9F7E3
:1003100024E0ACE4B2E001C01D92A630B207E1F7E0
:1003200011E0C3E7D1E000E006C021970109802F6A
:10033000FE010E944511C237D10780E00807A9F7E6
:100340000E94400A0C9472120C940000FC01A089D7
:10035000B18982E08C93A485B5851C92A685B7856A
:100360008FE38C93108EA489B58986E08C93A28943
:10037000B3898C9180618C93A289B3898C918860B8
:100380008C93A289B3898C9180688C930288F389BD
:10039000E02D80818F7D808308958150823108F027
:1003A0005AC0E82FF0E08827E752FE4F8F4F0C9499
:1003B0004511F901FD01EB01F101F5012B020002EC
:1003C00006020A021002140218021E0222022B0266
:1003D00026022C023002809180008F77809380006B
:1003E0000895809180008F7DF9CF80918000877F74
:1003F000F5CF84B58F7784BD089584B58F7DFBCF0D
:100400008091B0008F778093B00008958091B00004
:100410008F7DF9CF809190008F7780939000089521
:10042000809190008F7DF9CF80919000877FF5CFEC
:100430008091A0008F778093A00008958091A00004
:100440008F7DF9CF8091A000877FF5CF809120012B
:100450008F77809320010895809120018F7DF9CFBF
:1004600080912001877FF5CFCF93DF93282F30E055
:10047000F901E256FD4F8491F901E85AFD4FD491FC
:10048000F901EE5EFD4FC491CC23A1F081110E94D1
:10049000CD01EC2FF0E0EE0FFF1FE850FE4FA591CD
:1004A000B491EC91ED2381E090E009F480E0DF91DC
:1004B000CF91089580E090E0FACF1F93CF93DF9320
:1004C000282F30E0F901E256FD4F8491F901E85AF6
:1004D000FD4FD491F901EE5EFD4FC491CC23A9F0FC
:1004E000162F81110E94CD01EC2FF0E0EE0FFF1FBF
:1004F000E252FE4FA591B4918FB7F894EC9111118F
:1005000008C0D095DE23DC938FBFDF91CF911F9180
:100510000895DE2BF8CFCF93DF9390E0FC01E85AEB
:10052000FD4F24918E5E9D4FFC0184918823C9F07C
:1005300090E0880F991FFC01EC53FE4FA591B491F8
:10054000FC01E252FE4FC591D49161110DC09FB7DD
:10055000F8948C91209582238C938881282328837A
:100560009FBFDF91CF910895623051F49FB7F89407
:100570003C91822F809583238C93E8812E2BEFCFA3
:100580008FB7F894EC912E2B2C938FBFEACF1F934B
:10059000CF93DF93182FEB0161E00E948B0220972D
:1005A00039F460E0812FDF91CF911F910C945D02AF
:1005B000CF3FD10511F461E0F5CFE12FF0E0E25635
:1005C000FD4FE491E150E23108F0B3C0F0E088273C
:1005D000E351FD4F8F4F0C944511FF0207030C03AD
:1005E0001603200399032A0332033A0344034E03FC
:1005F00058036703710399037B0385038F0384B555
:10060000806884BDC7BDDF91CF911F91089584B5E7
:10061000806284BDC8BDF7CF8091800080688093E0
:100620008000D0938900C0938800EDCF8091800036
:10063000806280938000D0938B00C0938A00E3CFC8
:1006400080918000886080938000D0938D00C0935B
:100650008C00D9CF8091B00080688093B000C093A7
:10066000B300D1CF8091B00080628093B000C0937E
:10067000B400C9CF80919000806880939000D0939F
:100680009900C0939800BFCF8091900080628093C2
:100690009000D0939B00C0939A00B5CF80919000BA
:1006A000886080939000D0939D00C0939C00ABCF56
:1006B0008091A00080688093A0008091A0008F7B33
:1006C0008093A000D093A900C093A8009CCF8091F4
:1006D000A00080628093A000D093AB00C093AA00DA
:1006E00092CF8091A00088608093A000D093AD004D
:1006F000C093AC0088CF8091200180688093200156
:10070000D0932901C09328017ECF8091200180627F
:1007100080932001D0932B01C0932A0174CF809144
:100720002001886080932001D0932D01C0932C017B
:100730006ACFC038D1050CF03ECF33CF863308F0F6
:10074000865320917B00982F9870277F922B90934F
:100750007B008770806480937C0080917A00806445
:1007600080937A0080917A0086FDFCCF809178009A
:10077000909179000895CF93DF93009791F1EC0168
:1007800062307105C1F02CF46130710529F161E02E
:100790001AC063307105B1F064307105C1F760E0D3
:1007A0000E948B0260E08C2F0E945D028C2FDF91F3
:1007B000CF910C949E0360E00E948B0260E08C2F2E
:1007C0000E945D0262E08C2F0E948B0261E08C2F00
:1007D000DF91CF910C945D0261E00E948B0260E09A
:1007E000F6CFDF91CF9108953FB7F89480918F02B3
:1007F00090919002A0919102B091920226B5A89B8F
:1008000005C02F3F19F00196A11DB11D3FBFBA2FA2
:10081000A92F982F8827BC01CD01620F711D811D62
:10082000911D42E0660F771F881F991F4A95D1F7E7
:1008300008952FB7F89460918B0270918C0280918B
:100840008D0290918E022FBF0895AF92BF92CF92EA
:10085000DF92EF92FF920F931F93CF93DF936C0180
:100860007B018B01040F151FEB015E01AE18BF0861
:10087000C017D10759F06991D601ED91FC91019013
:10088000F081E02DC6011995892B79F7C501DF911B
:10089000CF911F910F91FF90EF90DF90CF90BF907D
:1008A000AF900895FC01538D448D252F30E0842FA7
:1008B00090E0821B930B541710F0CF960895019788
:1008C0000895FC01918D828D981761F0A28DAE0F75
:1008D000BF2FB11D5D968C91928D9F5F9F73928FFC
:1008E00090E008958FEF9FEF0895FC01918D828D28
:1008F000981731F0828DE80FF11D858D90E00895F5
:100900008FEF9FEF0895FC01918D228D892F90E04C
:10091000805C9F4F821B91098F739927089583E60E
:1009200093E00E94830421E0892B09F420E0822FC8
:100930000895FC01A48DA80FB92FB11DA35ABF4F74
:100940002C91848D90E001968F739927848FA689CE
:10095000B7892C93A089B1898C91837080648C9322
:10096000938D848D981306C00288F389E02D8081D1
:100970008F7D80830895EF92FF920F931F93CF9303
:10098000DF93EC0181E0888F9B8D8C8D98131AC0CA
:10099000E889F989808185FF15C09FB7F894EE89B1
:1009A000FF896083E889F98980818370806480830E
:1009B0009FBF81E090E0DF91CF911F910F91FF9059
:1009C000EF900895F62E0B8D10E00F5F1F4F0F7301
:1009D0001127E02E8C8D8E110CC00FB607FCFACFBC
:1009E000E889F989808185FFF5CFCE010E949904BD
:1009F000F1CFEB8DEC0FFD2FF11DE35AFF4FF0828D
:100A00009FB7F8940B8FEA89FB8980818062CFCFF2
:100A1000CF93DF93EC01888D8823B9F0AA89BB8935
:100A2000E889F9898C9185FD03C0808186FD0DC020
:100A30000FB607FCF7CF8C9185FFF2CF808185FF41
:100A4000EDCFCE010E949904E9CFDF91CF910895B7
:100A500080E090E0892B29F00E948F0481110E9490
:100A6000000080E090E0892B49F080E090E0892B45
:100A700029F00E94000081110E94000080E090E0B7
:100A8000892B49F080E090E0892B29F00E9400003A
:100A900081110E94000080E090E0892B49F080E005
:100AA00090E0892B29F00E94000081110C94000035
:100AB0000895DC018D919C91DC01ED91FC910190F8
:100AC000F081E02D1994CF93DF93EC0188816623A8
:100AD00059F06FEF70E00E94C70285E090E09B83C1
:100AE0008A83DF91CF91089570E060E00E94C70291
:100AF0001B821A82F6CFCF92DF92EF92FF920F9372
:100B00001F93CF93DF93C0906C02D0906D02ACE442
:100B1000B2E050E040E0F0E0E0E070E060E04C1572
:100B20005D0544F58D919D919C012E5B3F4FE90140
:100B3000288139812230310559F48C01005C1F4F26
:100B40007F01DFE0ED22FF24E801F982E88231969F
:100B5000235031092230310550F4805C9F4F9B01B6
:100B60002F703327EC01398328836F5F7F4F4F5FEE
:100B70005F4FD5CFDF91CF911F910F91FF90EF90F5
:100B8000DF90CF9008950F931F93CF93DF93EC01E5
:100B90000E9419040F81188529853A85AB01BC0193
:100BA000401B510B620B730B8D819E81092E000C33
:100BB000AA0BBB0B481759076A077B0738F41B863B
:100BC00080E0DF91CF911F910F9108958B85811166
:100BD000F8CF81E08B87F5CFDC011296ED91FC9187
:100BE000E05CFF4F8081918180559F4F089508956B
:100BF000CF93DF93EC010E9419046F837887898774
:100C00009A871B86DF91CF910895CF93DF93EC01F4
:100C10000E94F8051C861E861D86DF91CF910895DF
:100C2000CF93DF93EC010E94F80582E390E0998B6B
:100C3000888B88EE93E09B8B8A8B1E8A1F8A188E86
:100C4000198E1D8E1C8E1F8E1E8E19A218A20E9438
:100C500019046AA37BA38CA39DA31EA2DF91CF914D
:100C600008950895CF93DF9337FF1FC06F706150D1
:100C70006031D8F4E901D42F606B8091BD0290916E
:100C8000BE020E9459056D2F6F778091BD02909131
:100C9000BE020E9459056C2F6F778091BD02909122
:100CA000BE02DF91CF910C945905DF91CF91089549
:100CB000DC0112968D919C91DC01ED91FC910190EB
:100CC000F081E02D1994FF920F931F93CF93DF9340
:100CD000EC01F42E89018A819B81DC01ED91FC916C
:100CE0000190F081E02D19958A819B81DC01ED91C5
:100CF000FC910190F081E02D6F2D199517FD0FC02B
:100D00008A819B81DC01ED91FC910190F081E02DC5
:100D1000602FDF91CF911F910F91FF901994DF9178
:100D2000CF911F910F91FF900895CF92DF92EF9294
:100D3000FF920F931F93CF93DF938C017B016A0186
:100D4000CEE6D2E089919991009771F0DC01ED91A6
:100D5000FC910190F081E02D9601A701B801199551
:100D6000B2E0C238DB0771F7DF91CF911F910F918D
:100D7000FF90EF90DF90CF9008958F929F92AF9267
:100D8000BF92CF92DF92EF92FF920F931F93CF9378
:100D9000DF93EC01E881F9810284F385E02D199558
:100DA000EA81FB810190F081E02D86810E949E0303
:100DB0009C010196C888D9888C159D050CF46C019E
:100DC000D98AC88AC9010197EA89FB89E817F90716
:100DD0000CF4FC01FB8BEA8B0D2C000CEE08FF08D9
:100DE000032E000C440B550B2C193D094E095F09CD
:100DF000AFEFB3E00E94350F9F01FF0F440B550B7F
:100E00002C193D094E095F090E94160F69018901DD
:100E10008EA1882399F18EA1811156C0DD8ECC8ED2
:100E20008E889F88A88CB98CB601DD0C880B990B35
:100E30000E942310A50194010E94790F2C853D8505
:100E40004E855F850E94D810A50194010E947A0FFB
:100E50006B017C01CE8ADF8AE88EF98E20E030E0DB
:100E6000A9010E94D31087FF49C020E030E040E094
:100E70005FE3C701B6010E94790F48C08C8D9D8D3C
:100E80008217930744F681E08EA30E9419046AA397
:100E90007BA38CA39DA32FA138A54901330FAA08DA
:100EA000BB08681579058A059B050CF0B4CFDF9166
:100EB000CF911F910F91FF90EF90DF90CF90BF9057
:100EC000AF909F908F9008958C8D9D8D0817190776
:100ED0000CF0A4CF1EA20E9419046AA37BA38CA3CA
:100EE0009DA32FA138A58901330F220B330B601767
:100EF0007107820793070CF091CFD9CF20E030E043
:100F000040E05FE3C701B6010E947A0F0E94EB0F39
:100F10008B85882361F28C8181112AC08B0123E0AB
:100F2000159507952A95E1F717FF02C010E000E03C
:100F30000038110514F00FE710E08E8D9F8D80179B
:100F4000910799F0E881F9810680F781E02DCE01C3
:100F500019957C01E881F9810480F581E02DCE01AD
:100F60001995A801B7010E9495061F8F0E8F9FCF7C
:100F700084E0660F771F8A95E1F77B01E894E7F834
:100F8000FF248B01000F012F001F110B17FF02C060
:100F900010E000E00038110514F00FE710E088A120
:100FA00099A1E816F90629F48E8D9F8D0817190767
:100FB00099F0E881F9810084F185E02DCE01199541
:100FC0006C01E881F9810480F581E02DCE0119954D
:100FD000A701B6010E9495068E8D9F8D08171907EF
:100FE00099F0E881F9810680F781E02DCE0119950D
:100FF0006C01E881F9810480F581E02DCE0119951D
:10100000A801B6010E9495061F8F0E8FF9A2E8A2D3
:101010004ECFCF93DF93EC0164E070E08E819F812F
:101020000E94BB0361E070E0888599850E94BB0344
:1010300061E070E08A859B85DF91CF910C94BB03C2
:10104000CF93DF93EC0161E070E08E819F810E947D
:10105000BB0361E070E0888599850E94BB0361E075
:1010600070E08A859B85DF91CF910C94BB038BE266
:1010700090E008958BE090E0089580E490E008957A
:1010800080E290E0089590E080E008956F927F9272
:101090008F929F92AF92BF92CF92DF92EF92FF9288
:1010A0000F931F93CF93DF936C014B015A013901CA
:1010B0008CE090E00E944D11EC0199828882BB8205
:1010C000AA827D826C821F830E83F986E8861B8646
:1010D0001A8663E070E0C4010E94BB0362E070E026
:1010E0008A819B810E94BB0363E070E08C819D81BB
:1010F0000E94BB03F601D183C083DF91CF911F9182
:101100000F91FF90EF90DF90CF90BF90AF909F90A6
:101110008F907F906F9008950F931F93CF93DF93DD
:10112000EC01E881F9810284F385E02D1995EA81CB
:10113000FB810190F081E02D86810E9434022D8593
:101140003E85892B09F04CC02431310524F42F5FF2
:101150003F4F3E872D878C85811121C08D859E85CF
:1011600044970CF444C081E08C878B858823B9F0C8
:10117000E881F9810680F781E02DCE0119958C0177
:10118000E881F9810480F581E02DCE0119954FE7C2
:1011900050E0B8010E9495068C85882341F18D8529
:1011A0009E85181619061CF11C868B858823F9F07C
:1011B000E881F9810680F781E02DCE0119958C0137
:1011C000E881F9810480F581E02DCE01199550E088
:1011D00040E0B801DF91CF911F910F910C949506DB
:1011E000121613060CF0B7CF21503109B2CFDF91A0
:1011F000CF911F910F9108951F920F920FB60F92EA
:1012000011242F933F938F939F93AF93BF9380911C
:101210008B0290918C02A0918D02B0918E02309140
:101220008A0223E0230F2D3758F50196A11DB11D29
:1012300020938A0280938B0290938C02A0938D025C
:10124000B0938E0280918F0290919002A0919102B2
:10125000B09192020196A11DB11D80938F029093CF
:101260009002A0939102B0939202BF91AF919F918F
:101270008F913F912F910F900FBE0F901F90189557
:1012800026E8230F0296A11DB11DD2CF1F920F9207
:101290000FB60F9211240BB60F922F933F934F93DB
:1012A0005F936F937F938F939F93AF93BF93EF93CE
:1012B000FF9383E693E00E949904FF91EF91BF9121
:1012C000AF919F918F917F916F915F914F913F91DE
:1012D0002F910F900BBE0F900FBE0F901F9018957F
:1012E0001F920F920FB60F9211240BB60F922F93ED
:1012F0008F939F93EF93FF93E0917303F0917403A7
:101300008081E0917903F0917A0382FD1DC0908184
:1013100080917C038F5F8F7320917D03821741F052
:10132000E0917C03F0E0ED59FC4F958F80937C03B6
:10133000FF91EF919F918F912F910F900BBE0F9086
:101340000FBE0F901F9018958081F2CFE3E6F3E077
:101350001382128288EE93E0A0E0B0E0848395834C
:10136000A683B7838EE392E09183808385EC90E03F
:101370009587848784EC90E09787868780EC90E05F
:10138000918B808B81EC90E0938B828B82EC90E050
:10139000958B848B86EC90E0978B868B118E128ECA
:1013A000138E148EF0930104E0930004E3E9F2E05D
:1013B0001182108213821282158214821782168281
:1013C0001186108613861286158614861786168651
:1013D000118A108A138A128A158A148A178A168A21
:1013E000118E108E138E128E158E148E178E168EF1
:1013F00011A210A213A212A215A214A217A216A241
:1014000011A610A680E094E093A782A714A615A6C3
:1014100016A613AA12AA15AA14AA8FEF9FEF97ABCC
:1014200086AB91AF80AF83E08093CD0213AE14AE54
:1014300015AE16AE10925203E2EDF2E080E8DF0145
:101440001D928A95E9F71092550310925603109257
:101450005703109258031092590310925A03109296
:101460005B0310925C0310925D0310925E03109276
:101470005F0310926003109261031092620308955B
:10148000CF93DF9300D000D0CDB7DEB7789484B58A
:10149000826084BD84B5816084BD85B5826085BD70
:1014A00085B5816085BD80916E00816080936E00FE
:1014B00010928100809181008260809381008091F0
:1014C00081008160809381008091800081608093A1
:1014D00080008091B10084608093B1008091B00061
:1014E00081608093B0008091910082608093910030
:1014F0008091910081608093910080919000816043
:10150000809390008091A10082608093A1008091DF
:10151000A10081608093A1008091A00081608093F0
:10152000A00080912101826080932101809121019E
:10153000816080932101809120018160809320014E
:1015400080917A00846080937A0080917A00826032
:1015500080937A0080917A00816080937A008091F4
:101560007A00806880937A001092C100E091BD02F9
:10157000F091BE02808191810E94A6011092BF026B
:101580001092C1021092C0021092C8021092C702BB
:101590001092C6021092C5028FEF9FEF9093CA027D
:1015A0008093C9029093CC028093CB020E941904CD
:1015B0006093550370935603809357039093580399
:1015C000109252031092CF021092CE021092D002CB
:1015D0001092D10210925403109253038091CD02C5
:1015E0008170826081608093CD0284E090E00E94EF
:1015F0004D119A838983DC0113961C921E921297D7
:1016000086E290E08D939C9361E00E948B0270E0F3
:1016100060E0E981FA8180810E94C70229813A81D4
:10162000309385022093840260E0C9010E94630523
:1016300086E892E09A838983D12CC12C18EE212E62
:1016400013E0312E0DEC402E0CEC502E652C0DE3EA
:10165000702E89E490E00E944D119E838D83DC0101
:1016600011961C921E9213961C921E921297189617
:101670001C9218971A963C922E921997FC01138689
:101680001486158616861786978386832EE032E0A9
:1016900035832483108A128A118A04960E940506D3
:1016A000AD81BE8157961C92579759963C922E92C7
:1016B0005897FD01128E138E148E158E168EB68BD2
:1016C000A58B2EE132E0348B238B5F964D925D9299
:1016D0006D927C92929798961C921E92979711A663
:1016E00012A613A614A616A615A610AA17A612AA25
:1016F00011AA14AA13AAD5961D921D921D921C928E
:10170000D897D9961C92D997E2E0F0E0DB96FC934B
:10171000EE93DA97CD0143960E941006AD81BE810B
:10172000DD961C921E92DC97DF961C921E92DE972D
:10173000FD01E05CFF4F118210824D01B2E48B0E7F
:10174000911CF40111821082AD80BE80F4E4AF0ED2
:10175000B11CD5011D921C92ED81FE81EA5BFF4F09
:10176000FC83EB8311821082ED81FE81E85BFF4FE9
:10177000108280916C0290916D02803191059CF4F1
:10178000FC01EE0FFF1FE45BFD4F2D813E81318395
:101790002083D901DF969C938E93DE9701969093D8
:1017A0006D0280936C02E981FA812D813E81219343
:1017B0003193FA83E98331E0C316D10409F474C18B
:1017C000E7E1EE2EF12C06E310E029E130E048E1FC
:1017D00050E066E170E08D819E810E944608D40150
:1017E0008D919C9111970197B1F0E1E0F0E0ED93BC
:1017F000FC93D5018D919C911197019711F0ED9378
:10180000FC93ED81FE81808191810E942008AB8153
:10181000BC811D921C92CA94CD2809F041C184E07C
:1018200090E00E944D112EE232E0FC0131832083D2
:1018300023E633E0338322832091820230918302B6
:101840002A3031056CF4F901EE0FFF1FE259FD4F0C
:10185000918380832F5F3F4F3093830220938202D6
:1018600082E090E00E944D1126E332E0DC012D93EE
:101870003C9320918202309183022A3031056CF42E
:10188000F901EE0FFF1FE259FD4F918380832F5F17
:101890003F4F309383022093820283E693E00E94BD
:1018A000A6010E94F4034B015C0148EEC42E43E004
:1018B000D42EE12CF12C0E94F403681979098A09CD
:1018C0009B09683E734081059105A8F3B1E0CB1AEE
:1018D000D108E108F108E8EE8E0EE3E09E1EA11C9F
:1018E000B11CC114D104E104F10429F726E832E067
:1018F0003C832B83AB81BC81ED91FD91BC83AB8399
:10190000FE83ED830190F081E02D84810E943402FA
:101910000D811E810E5B1F4F892B29F5ED80FE8006
:10192000F6E4EF0EF11CD7011D921C92F8018081A4
:1019300091810197F1F081E090E091838083ED81C6
:10194000FE81EC5BFF4F208131812130310511F0A8
:1019500091838083AD81BE818D919C910E942008EE
:10196000F70111821082D8018D919C91019709F0A5
:10197000ADC1AD81BE81ED91FC911197A85BBF4FC8
:101980007D01309749F080810E943402892B09F44F
:1019900097C021E0F7012083F70180812D813E81EE
:1019A0002A5B3F4F3A832983882309F44AC1D9012E
:1019B0008D919C918131B7E29B0720F40196F9014A
:1019C00091838083A981BA818D919C9180319742C6
:1019D00009F03BC1ED81FE81808191810E9409085F
:1019E000AD81BE814D905C90C0908402D090850204
:1019F000F60182809380312C66246A9433E0732E42
:101A0000B12CA12C632D6170C6010E946305D20127
:101A100016968C910E949E03A0FC55C086159705D2
:101A20000CF055C0FFEFAF1ABF0A3394232D21707D
:101A3000322E3C0134E6A316B10421F76FEF70E0BB
:101A4000D6018C910E94C70225E030E0F601338375
:101A50002283D8018D919C911197049709F4EDC0D0
:101A6000E4E0F0E0ED93FC93ED81FE81EC5BFF4F51
:101A700080819181049721F024E030E0318320833C
:101A8000AD81BE818D919C910E9409088D819E81BE
:101A90004396ED81FE81938382830E941006CBC022
:101AA000CC24C394D12CD5CD7FE1E72EF12C07E3D4
:101AB00010E021E230E040E250E06EE170E08BCED9
:101AC000D7011C9269CF681679060CF4ABCF61E0A0
:101AD000892809F460E0C6010E946305ED81FE815A
:101AE000808191810E940908AD81BE81AD90BC903A
:101AF000F6016280738094E6C92ED12C512C412CC2
:101B000022242A9423E0322ED50116968C910E942D
:101B10009E03821593050CF41C01481659060CF41B
:101B20002C0180908402909085020E94BE0E60E09D
:101B3000C4010E9463058BE891E00197F1F7B1E0E1
:101B4000CB1AD10809F7C0908402D0908502B30166
:101B5000770C880B990B0E9423104B015C0120E04D
:101B600030E0A9010E94D31018160CF077C020E0D5
:101B700030E040EA50E4C501B4010E94E60F87FD61
:101B800006C0812C912C80EAA82E80E4B82EC501D5
:101B9000B4010E94EB0FF6017383628320E030E012
:101BA0004CE452E4C501B4010E94D8100E94EB0F2E
:101BB000D6018C910E94C70242185308F801808117
:101BC0009181B3E04B1651040CF44CC00297A9F17B
:101BD00022E030E031832083ED81FE81EC5BFF4F1A
:101BE00080819181029711F031832083AD81BE8184
:101BF0000D911C9163E070E0F801868197810E944D
:101C0000BB0361E070E0D80118968D919C910E9411
:101C1000BB0361E070E0F801828593850E94BB03FD
:101C20008D819E810496AD81BE8113969C938E9387
:101C300012970E9405060E947B05F70180818111A1
:101C400004C0A981BA811D921C92EB81FC81EA58E3
:101C5000F24009F04FCE0E94280548CE812C912CED
:101C6000540195CF039749F323E030E0318320837B
:101C7000ED81FE81EC5BFF4F80819181039711F034
:101C800031832083AD81BE810D911C9164E070E0B1
:101C9000F801868197810E94BB0370E060E0D80163
:101CA00018968D919C910E94BB0361E070E0F80151
:101CB000828593850E94BB038D819E814396AD8171
:101CC000BE8113969C938E931297E7CEED81FE8191
:101CD00082819381DC01ED91FC910190F081E02DF6
:101CE0001995B3CF8F929F92AF92BF92CF92DF920E
:101CF000EF92FF92CF93DF93EC01688179818A8123
:101D00009B81611571058105910521F464E279EDEE
:101D10008BE597E02DE133EF41E050E00E94160F94
:101D200049015A019B01AC01A7EAB1E40E94350FB9
:101D30006B017C01ACEEB4EFA50194010E94430F4E
:101D4000C60ED71EE81EF91EF7FE06C081E0C81AAF
:101D5000D108E10880E8F80AC882D982EA82FB82C9
:101D6000C701B6019F77DF91CF91FF90EF90DF9091
:101D7000CF90BF90AF909F908F9008958F929F9239
:101D8000AF92BF92CF92DF92EF92FF9260910002EA
:101D90007091010280910202909103026115710518
:101DA0008105910521F464E279ED8BE597E02DE161
:101DB00033EF41E050E00E94160F49015A019B01A8
:101DC000AC01A7EAB1E40E94350F6B017C01ACEED7
:101DD000B4EFA50194010E94430FC60ED71EE81E62
:101DE000F91EF7FE06C081E0C81AD108E10880E8B4
:101DF000F80AC0920002D0920102E0920202F09230
:101E00000302C701B6019F77FF90EF90DF90CF905C
:101E1000BF90AF909F908F90089560930002709351
:101E2000010280930202909303020895052E97FB0E
:101E30001EF400940E942D0F57FD07D00E94480FFA
:101E400007FC03D04EF40C942D0F5095409530951F
:101E500021953F4F4F4F5F4F089590958095709516
:101E600061957F4F8F4F9F4F08950E946A0FA59FE6
:101E7000900DB49F900DA49F800D911D1124089585
:101E8000B7FF0C94350F0E94350F821B930B0895FA
:101E9000A1E21A2EAA1BBB1BFD010DC0AA1FBB1F6E
:101EA000EE1FFF1FA217B307E407F50720F0A21BE0
:101EB000B30BE40BF50B661F771F881F991F1A944D
:101EC00069F760957095809590959B01AC01BD0177
:101ED000CF010895A29FB001B39FC001A39F700DD1
:101EE000811D1124911DB29F700D811D1124911D22
:101EF00008955058BB27AA270E94910F0C9499105F
:101F00000E948B1038F00E94921020F039F49F3F0D
:101F100019F426F40C9488100EF4E095E7FB0C9469
:101F20008210E92F0E94AA1058F3BA1762077307AC
:101F30008407950720F079F4A6F50C94CC100EF4E4
:101F4000E0950B2EBA2FA02D0B01B90190010C01C9
:101F5000CA01A0011124FF27591B99F0593F50F4E1
:101F6000503E68F11A16F040A22F232F342F442739
:101F7000585FF3CF469537952795A795F040539531
:101F8000C9F77EF41F16BA0B620B730B840BBAF001
:101F90009150A1F0FF0FBB1F661F771F881FC2F76C
:101FA0000EC0BA0F621F731F841F48F48795779580
:101FB0006795B795F7959E3F08F0B0CF9395880F3A
:101FC00008F09927EE0F9795879508950E945E1067
:101FD00008F481E008950E94F20F6894B1110C9406
:101FE000CD1008950E94B21088F09F5798F0B92F35
:101FF0009927B751B0F0E1F0660F771F881F991F3E
:102000001AF0BA95C9F714C0B13091F00E94CC1003
:10201000B1E008950C94CC10672F782F8827B85F13
:1020200039F0B93FCCF3869577956795B395D9F795
:102030003EF490958095709561957F4F8F4F9F4F9F
:102040000895E89409C097FB3EF4909580957095AB
:1020500061957F4F8F4F9F4F9923A9F0F92F96E9F4
:10206000BB279395F695879577956795B795F11169
:10207000F8CFFAF4BB0F11F460FF1BC06F5F7F4F06
:102080008F4F9F4F16C0882311F096E911C0772318
:1020900021F09EE8872F762F05C0662371F096E821
:1020A000862F70E060E02AF09A95660F771F881FF0
:1020B000DAF7880F9695879597F90895990F000894
:1020C000550FAA0BE0E8FEEF16161706E807F9070A
:1020D000C0F012161306E407F50798F0621B730BA5
:1020E000840B950B39F40A2661F0232B242B252B26
:1020F00021F408950A2609F4A140A6958FEF811DC9
:10210000811D089597F99F6780E870E060E0089569
:102110009FEF80EC089500240A94161617061806FF
:102120000906089500240A941216130614060506DB
:102130000895092E0394000C11F4882352F0BB0F6C
:1021400040F4BF2B11F460FF04C06F5F7F4F8F4FCF
:102150009F4F089557FD9058440F551F59F05F3F0A
:1021600071F04795880F97FB991F61F09F3F79F0B9
:1021700087950895121613061406551FF2CF46953B
:10218000F1DF08C0161617061806991FF1CF8695BD
:102190007105610508940895E894BB2766277727A1
:1021A000CB0197F908950E945E1008F48FEF08950F
:1021B0000E94EB100C9499100E948B1038F00E9432
:1021C000921020F0952311F00C9482100C9488103A
:1021D00011240C94CD100E94AA1070F3959FC1F3A6
:1021E000950F50E0551F629FF001729FBB27F00DC5
:1021F000B11D639FAA27F00DB11DAA1F649F66271A
:10220000B00DA11D661F829F2227B00DA11D621F68
:10221000739FB00DA11D621F839FA00D611D221F22
:10222000749F3327A00D611D231F849F600D211D06
:10223000822F762F6A2F11249F5750409AF0F1F089
:1022400088234AF0EE0FFF1FBB1F661F771F881FF2
:1022500091505040A9F79E3F510580F00C94821098
:102260000C94CD105F3FE4F3983ED4F386957795B8
:102270006795B795F795E7959F5FC1F7FE2B880F98
:10228000911D9695879597F90895EE0FFF1F881F6A
:102290008BBF0790F691E02D19940F931F93CF9366
:1022A000DF938230910510F482E090E0E091040425
:1022B000F091050430E020E0B0E0A0E0309799F420
:1022C0002115310509F44AC0281B390B243031058A
:1022D000D8F58A819B816115710589F1FB01938392
:1022E0008283FE0111C04081518102811381481710
:1022F0005907E0F04817590799F4109761F01296C2
:102300000C93129713961C933296CF01DF91CF91C5
:102310001F910F9108950093040410930504F4CFC6
:102320002115310551F04217530738F0A901DB019F
:102330009A01BD01DF01F801C1CFEF01F9CF909300
:10234000050480930404CDCFFE01E20FF31F8193B7
:1023500091932250310939832883D7CF20910204E9
:1023600030910304232B41F420910602309107029F
:10237000309303042093020420910402309105025B
:102380002115310541F42DB73EB740910802509117
:102390000902241B350BE0910204F0910304E217BB
:1023A000F307A0F42E1B3F0B2817390778F0AC0178
:1023B0004E5F5F4F2417350748F04E0F5F1F509355
:1023C000030440930204819391939FCFF0E0E0E0F7
:1023D0009CCFCF93DF930097E9F0FC0132971382F3
:1023E0001282A0910404B0910504ED0130E020E0D8
:1023F0001097A1F420813181820F931F2091020454
:10240000309103042817390709F061C0F0930304E1
:10241000E0930204DF91CF910895EA01CE17DF0720
:10242000E8F54A815B819E0141155105B1F7E9014B
:10243000FB83EA8349915991C40FD51FEC17FD071F
:1024400061F4808191810296840F951FE90199833F
:102450008883828193819B838A83F0E0E0E01296F7
:102460008D919C9113970097B9F52D913C911197FF
:10247000CD010296820F931F209102043091030434
:102480002817390739F6309751F510920504109244
:102490000404B0930304A0930204BCCFD383C2838B
:1024A00040815181840F951FC817D90761F44E5F91
:1024B0005F4F88819981480F591F518340838A81DA
:1024C0009B81938382832115310509F0B0CFF0936E
:1024D0000504E09304049ECFFD01DC01C0CF13820C
:0824E0001282D7CFF894FFCF60
:1024E80001000000000006048000000000008C08C5
:1024F8000506EC053D084008C30500000000BD06C0
:102508001006EC053A083708C3050000000063060A
:102518005806000000003206310600000000BB0427
:0C252800250452040805830461047504B6
:00000001FF
