:100000000C9451010C9482010C9482010C94820195
:100010000C9482010C9482010C9482010C94820154
:100020000C9482010C9482010C9482010C94820144
:100030000C9482010C9482010C9482010C94820134
:100040000C9482010C9482010C9482010C94820124
:100050000C9482010C9482010C9482010C94D407BC
:100060000C9482010C9448080C941E080C94820194
:100070000C9482010C9482010C9482010C948201F4
:100080000C9482010C9482010C9482010C948201E4
:100090000C9482010C9482010C9482010C948201D4
:1000A0000C9482010C9482010C9482010C948201C4
:1000B0000C9482010C9482010C9482010C948201B4
:1000C0000C9482010C9482010C9482010C948201A4
:1000D0000C9482010C9482010C9482010C94820194
:1000E0000C9482010C9409020C94AC050C9400024F
:1000F0000C94EE010C947C030C94F4040C94FF0417
:100100000C94E8010C942C030C948A030C940402C4
:100110000C94DB040C9459030C94CF010C945205FD
:100120000C94D7010C94D3010C9421050C94120764
:100130000C940F070C947E080C9418070C94F6018D
:100140000C94FC010C9464070C94E4010C94C2031D
:100150000C94C9010C94DB010C940E020C94DE018A
:100160000C9447050C940F040C9468030C94B2048F
:100170000C94F2010C9415070C940A020C942005BF
:1001800000002100240027002A002D003000330049
:1001900001010000040107010A01000022002500FE
:1001A00028002B002E003100340002010000050160
:1001B00008010B01000020002300260029002C006C
:1001C0002F003200000100000301060109010505AE
:1001D0000505070508080808020202020A0A0808BD
:1001E00004040404010101010101010103030303EB
:1001F00003030303040707070C0C0C0C0C0C0C0C7A
:100200000202020206060606060606060B0B0B0B8A
:100210000B0B0B0B010210202008081020401020AF
:1002200040800201020108040201010204081020BA
:1002300040808040201008040201800402018040B8
:100240002010080402010804020101020408102021
:100250004080010204081020408000000A0B0209BF
:100260000C0D0E0807030401000000000000000050
:10027000000000000000000000000000000000007E
:10028000000000000000121110000000000000003B
:10029000000000000000000000000000000000005E
:1002A0007E0811241FBECFEFD1E2DEBFCDBF00E03C
:1002B0000CBF12E0A0E0B2E0E6E7FFE100E00BBF18
:1002C00002C007900D92A834B107D9F724E0A8E442
:1002D000B2E001C01D92A030B207E1F711E0C1E524
:1002E000D1E000E006C021970109802FFE010E94A5
:1002F0008C0EC035D10780E00807A9F70E941809C5
:100300000C94B90F0C940000FC01A089B18982E023
:100310008C93A485B5851C92A685B7858FE38C93B5
:10032000108EA489B58986E08C93A289B3898C91BB
:1003300080618C93A289B3898C9188608C93A28907
:10034000B3898C9180688C930288F389E02D808139
:100350008F7D808308958150823108F05AC0E82F44
:10036000F0E08827E954FE4F8F4F0C948C0ED70194
:10037000DB01C901CF01D3010902DE01E401E8017B
:10038000EE01F201F601FC010002090204020A0278
:100390000E02809180008F77809380000895809175
:1003A00080008F7DF9CF80918000877FF5CF84B565
:1003B0008F7784BD089584B58F7DFBCF8091B00089
:1003C0008F778093B00008958091B0008F7DF9CF32
:1003D000809190008F778093900008958091900095
:1003E0008F7DF9CF80919000877FF5CF8091A0001D
:1003F0008F778093A00008958091A0008F7DF9CF22
:100400008091A000877FF5CF809120018F77809326
:1004100020010895809120018F7DF9CF80912001E6
:10042000877FF5CFCF93DF93282F30E0F901E65A8D
:10043000FD4F8491F901EC5EFD4FD491F901E25337
:10044000FE4FC491CC23A1F081110E94AB01EC2F8F
:10045000F0E0EE0FFF1FEC54FE4FA591B491EC912C
:10046000ED2381E090E009F480E0DF91CF910895E1
:1004700080E090E0FACF1F93CF93DF93282F30E0F6
:10048000F901E65AFD4F8491F901EC5EFD4FD491DC
:10049000F901E253FE4FC491CC23A9F0162F81112C
:1004A0000E94AB01EC2FF0E0EE0FFF1FE656FE4F6F
:1004B000A591B4918FB7F894EC91111108C0D09523
:1004C000DE23DC938FBFDF91CF911F910895DE2B48
:1004D000F8CFCF93DF9390E0FC01EC5EFD4F2491C9
:1004E00082539E4FFC0184918823C9F090E0880FCD
:1004F000991FFC01E058FE4FA591B491FC01E6560E
:10050000FE4FC591D49161110DC09FB7F8948C91A5
:10051000209582238C938881282328839FBFDF9195
:10052000CF910895623051F49FB7F8943C91822F97
:10053000809583238C93E8812E2BEFCF8FB7F8948F
:10054000EC912E2B2C938FBFEACF863308F0865385
:1005500020917B00982F9870277F922B90937B009F
:100560008770806480937C0080917A00806480939F
:100570007A0080917A0086FDFCCF8091780090917E
:1005800079000895CF93DF93009791F1EC016230E9
:100590007105C1F02CF46130710529F161E01AC0D8
:1005A00063307105B1F064307105C1F760E00E94FD
:1005B000690260E08C2F0E943B028C2FDF91CF916B
:1005C0000C94A50260E00E94690260E08C2F0E94FA
:1005D0003B0262E08C2F0E94690261E08C2FDF9168
:1005E000CF910C943B0261E00E94690260E0F6CF7B
:1005F000DF91CF9108953FB7F8948091890290914F
:100600008A02A0918B02B0918C0226B5A89B05C0EE
:100610002F3F19F00196A11DB11D3FBFBA2FA92F81
:10062000982F8827BC01CD01620F711D811D911D7E
:1006300042E0660F771F881F991F4A95D1F70895EA
:100640002FB7F8946091850270918602809187029D
:10065000909188022FBF0895AF92BF92CF92DF9200
:10066000EF92FF920F931F93CF93DF936C017B0167
:100670008B01040F151FEB015E01AE18BF08C017F8
:10068000D10759F06991D601ED91FC910190F0816B
:10069000E02DC6011995892B79F7C501DF91CF911E
:1006A0001F910F91FF90EF90DF90CF90BF90AF9090
:1006B0000895FC01538D448D252F30E0842F90E068
:1006C000821B930B541710F0CF960895019708954D
:1006D000FC01918D828D981761F0A28DAE0FBF2F16
:1006E000B11D5D968C91928D9F5F9F73928F90E06C
:1006F00008958FEF9FEF0895FC01918D828D9817DB
:1007000031F0828DE80FF11D858D90E008958FEF17
:100710009FEF0895FC01918D228D892F90E0805CE0
:100720009F4F821B91098F73992708958DE593E060
:100730000E948A0321E0892B09F420E0822F08958A
:10074000FC01A48DA80FB92FB11DA35ABF4F2C9146
:10075000848D90E001968F739927848FA689B7893D
:100760002C93A089B1898C91837080648C93938D34
:10077000848D981306C00288F389E02D80818F7DD7
:1007800080830895EF92FF920F931F93CF93DF938F
:10079000EC0181E0888F9B8D8C8D98131AC0E889BD
:1007A000F989808185FF15C09FB7F894EE89FF898C
:1007B0006083E889F98980818370806480839FBF2A
:1007C00081E090E0DF91CF911F910F91FF90EF902A
:1007D0000895F62E0B8D10E00F5F1F4F0F7311273A
:1007E000E02E8C8D8E110CC00FB607FCFACFE88975
:1007F000F989808185FFF5CFCE010E94A003F1CF5A
:10080000EB8DEC0FFD2FF11DE35AFF4FF0829FB7E8
:10081000F8940B8FEA89FB8980818062CFCFCF93D8
:10082000DF93EC01888D8823B9F0AA89BB89E88918
:10083000F9898C9185FD03C0808186FD0DC00FB6BE
:1008400007FCF7CF8C9185FFF2CF808185FFEDCF3C
:10085000CE010E94A003E9CFDF91CF91089580E0FF
:1008600090E0892B29F00E94960381110E940000DC
:1008700080E090E0892B49F080E090E0892B29F01E
:100880000E94000081110E94000080E090E0892B0E
:1008900049F080E090E0892B29F00E94000081114E
:1008A0000E94000080E090E0892B49F080E090E019
:1008B000892B29F00E94000081110C9400000895FA
:1008C000DC018D919C91DC01ED91FC910190F08116
:1008D000E02D1994CF92DF92EF92FF920F931F9326
:1008E000CF93DF93C0906802D0906902A8E4B2E091
:1008F00050E040E0F0E0E0E070E060E04C155D05C5
:1009000044F58D919D919C012E5B3F4FE90128811B
:1009100039812230310559F48C01005C1F4F7F0171
:10092000DFE0ED22FF24E801F982E88231962350CE
:1009300031092230310550F4805C9F4F9B012F70AC
:100940003327EC01398328836F5F7F4F4F5F5F4F01
:10095000D5CFDF91CF911F910F91FF90EF90DF9056
:10096000CF9008950F931F93CF93DF93EC010E94D4
:1009700020030F81188529853A85AB01BC01401BF6
:10098000510B620B730B8D819E81092E000CAA0BFB
:10099000BB0B481759076A077B0738F41B8680E0B2
:1009A000DF91CF911F910F9108958B858111F8CF21
:1009B00081E08B87F5CFDC011296ED91FC91E05C34
:1009C000FF4F8081918180559F4F08950895CF9367
:1009D000DF93EC010E9420036F83788789879A87D1
:1009E0001B86DF91CF910895CF93DF93EC010E9496
:1009F000E7041C861E861D86DF91CF910895CF9354
:100A0000DF93EC010E94E70482E390E0998B888BEE
:100A100088EE93E09B8B8A8B1E8A1F8A188E198E14
:100A20001D8E1C8E1F8E1E8E19A218A20E942003DE
:100A30006AA37BA38CA39DA31EA2DF91CF910895EF
:100A40000895CF93DF9337FF1FC06F7061506031FF
:100A5000D8F4E901D42F606B8091B7029091B8026D
:100A60000E9460046D2F6F778091B7029091B80259
:100A70000E9460046C2F6F778091B7029091B8024A
:100A8000DF91CF910C946004DF91CF910895DC0148
:100A900012968D919C91DC01ED91FC910190F08179
:100AA000E02D1994FF920F931F93CF93DF93EC01E6
:100AB000F42E89018A819B81DC01ED91FC910190EA
:100AC000F081E02D19958A819B81DC01ED91FC91EB
:100AD0000190F081E02D6F2D199517FD0FC08A81CF
:100AE0009B81DC01ED91FC910190F081E02D602F64
:100AF000DF91CF911F910F91FF901994DF91CF91CA
:100B00001F910F91FF900895CF92DF92EF92FF9285
:100B10000F931F93CF93DF938C017B016A01CAE689
:100B2000D2E089919991009771F0DC01ED91FC91EF
:100B30000190F081E02D9601A701B8011995B2E06E
:100B4000CE37DB0771F7DF91CF911F910F91FF90A7
:100B5000EF90DF90CF9008958F929F92AF92BF92C7
:100B6000CF92DF92EF92FF920F931F93CF93DF9379
:100B7000EC01E881F9810284F385E02D1995EA8181
:100B8000FB810190F081E02D86810E94A5029C01ED
:100B90000196C888D9888C159D050CF46C01D98AFA
:100BA000C88AC9010197EA89FB89E817F9070CF49B
:100BB000FC01FB8BEA8B0D2C000CEE08FF08032ECA
:100BC000000C440B550B2C193D094E095F09AFEF82
:100BD000B3E00E94890C9F01FF0F440B550B2C19A9
:100BE0003D094E095F090E946A0C690189018EA1C5
:100BF000882399F18EA1811156C0DD8ECC8E8E880E
:100C00009F88A88CB98CB601DD0C880B990B0E94CB
:100C10006A0DA50194010E94C50C2C853D854E8569
:100C20005F850E94FB0DA50194010E94C60C6B011B
:100C30007C01CE8ADF8AE88EF98E20E030E0A901BF
:100C40000E94F60D87FF49C020E030E040E05FE3FE
:100C5000C701B6010E94C50C48C08C8D9D8D8217BE
:100C6000930744F681E08EA30E9420036AA37BA32E
:100C70008CA39DA32FA138A54901330FAA08BB0857
:100C8000681579058A059B050CF0B4CFDF91CF91EB
:100C90001F910F91FF90EF90DF90CF90BF90AF909A
:100CA0009F908F9008958C8D9D8D081719070CF0DB
:100CB000A4CF1EA20E9420036AA37BA38CA39DA3A2
:100CC0002FA138A58901330F220B330B6017710751
:100CD000820793070CF091CFD9CF20E030E040E0BD
:100CE0005FE3C701B6010E94C60C0E94320D8B85DE
:100CF000882361F28C8181112AC08B0123E0159534
:100D000007952A95E1F717FF02C010E000E00038D0
:100D1000110514F00FE710E08E8D9F8D801791075D
:100D200099F0E881F9810680F781E02DCE011995CF
:100D30007C01E881F9810480F581E02DCE011995CF
:100D4000A801B7010E9484051F8F0E8F9FCF84E0FA
:100D5000660F771F8A95E1F77B01E894E7F8FF2497
:100D60008B01000F012F001F110B17FF02C010E0B5
:100D700000E00038110514F00FE710E088A199A1F8
:100D8000E816F90629F48E8D9F8D0817190799F03A
:100D9000E881F9810084F185E02DCE0119956C017F
:100DA000E881F9810480F581E02DCE011995A70134
:100DB000B6010E9484058E8D9F8D0817190799F042
:100DC000E881F9810680F781E02DCE0119956C014B
:100DD000E881F9810480F581E02DCE011995A80103
:100DE000B6010E9484051F8F0E8FF9A2E8A24ECF94
:100DF000CF93DF93EC0161E070E08E819F810E94D0
:100E0000C20261E070E0888599850E94C20261E0BB
:100E100070E08A859B85DF91CF910C94C2028BE2B2
:100E200090E008958BE090E0089580E490E00895CC
:100E300080E290E0089590E080E008956F927F92C4
:100E40008F929F92AF92BF92CF92DF92EF92FF92DA
:100E50000F931F93CF93DF936C014B015A0139011C
:100E60008CE090E00E94940EEC0199828882BB8213
:100E7000AA827D826C821F830E83F986E8861B8698
:100E80001A8663E070E0C4010E94C20262E070E072
:100E90008A819B810E94C20263E070E08C819D8107
:100EA0000E94C202F601D183C083DF91CF911F91CE
:100EB0000F91FF90EF90DF90CF90BF90AF909F90F9
:100EC0008F907F906F9008950F931F93CF93DF9330
:100ED000EC01E881F9810284F385E02D1995EA811E
:100EE000FB810190F081E02D86810E9412022D8508
:100EF0003E85892B09F04CC02431310524F42F5F45
:100F00003F4F3E872D878C85811121C08D859E8521
:100F100044970CF444C081E08C878B858823B9F01A
:100F2000E881F9810680F781E02DCE0119958C01C9
:100F3000E881F9810480F581E02DCE0119954FE714
:100F400050E0B8010E9484058C85882341F18D858D
:100F50009E85181619061CF11C868B858823F9F0CE
:100F6000E881F9810680F781E02DCE0119958C0189
:100F7000E881F9810480F581E02DCE01199550E0DA
:100F800040E0B801DF91CF911F910F910C9484053F
:100F9000121613060CF0B7CF21503109B2CFDF91F2
:100FA000CF911F910F9108951F920F920FB60F923C
:100FB00011242F933F938F939F93AF93BF9380916F
:100FC000850290918602A0918702B09188023091AB
:100FD000840223E0230F2D3758F50196A11DB11D82
:100FE000209384028093850290938602A0938702C7
:100FF000B09388028091890290918A02A0918B021D
:10100000B0918C020196A11DB11D8093890290932D
:101010008A02A0938B02B0938C02BF91AF919F91F3
:101020008F913F912F910F900FBE0F901F901895A9
:1010300026E8230F0296A11DB11DD2CF1F920F9259
:101040000FB60F9211240BB60F922F933F934F932D
:101050005F936F937F938F939F93AF93BF93EF9320
:10106000FF938DE593E00E94A003FF91EF91BF9164
:10107000AF919F918F917F916F915F914F913F9130
:101080002F910F900BBE0F900FBE0F901F901895D1
:101090001F920F920FB60F9211240BB60F922F933F
:1010A0008F939F93EF93FF93E0916D03F0916E0305
:1010B0008081E0917303F091740382FD1DC09081E3
:1010C000809176038F5F8F7320917703821741F0B1
:1010D000E0917603F0E0E35AFC4F958F809376031E
:1010E000FF91EF919F918F912F910F900BBE0F90D9
:1010F0000FBE0F901F9018958081F2CFEDE5F3E0C1
:101100001382128288EE93E0A0E0B0E0848395839E
:10111000A683B7838AE392E09183808385EC90E095
:101120009587848784EC90E09787868780EC90E0B1
:10113000918B808B81EC90E0938B828B82EC90E0A2
:10114000958B848B86EC90E0978B868B118E128E1C
:10115000138E148EF093FB03E093FA03EDE8F2E0B4
:1011600011821082138212821582148217821682D3
:1011700011861086138612861586148617861686A3
:10118000118A108A138A128A158A148A178A168A73
:10119000118E108E138E128E158E148E178E168E43
:1011A00011A210A213A212A215A214A217A216A293
:1011B00011A610A68AEF93E093A782A714A615A6FE
:1011C00016A613AA12AA15AA14AA8FEF9FEF97AB1F
:1011D00086AB91AF80AF83E08093C70213AE14AEAD
:1011E00015AE16AE10924C03ECECF2E080E8DF0195
:1011F0001D928A95E9F710924F03109250031092B6
:101200005103109252031092530310925403109200
:1012100055031092560310925703109258031092E0
:10122000590310925A0310925B0310925C030895C5
:10123000CF93DF9300D000D0CDB7DEB7789484B5DC
:10124000826084BD84B5816084BD85B5826085BDC2
:1012500085B5816085BD80916E00816080936E0050
:101260001092810080918100826080938100809142
:1012700081008160809381008091800081608093F3
:1012800080008091B10084608093B1008091B000B3
:1012900081608093B0008091910082608093910082
:1012A0008091910081608093910080919000816095
:1012B000809390008091A10082608093A100809132
:1012C000A10081608093A1008091A0008160809343
:1012D000A0008091210182608093210180912101F1
:1012E00081608093210180912001816080932001A1
:1012F00080917A00846080937A0080917A00826085
:1013000080937A0080917A00816080937A00809146
:101310007A00806880937A001092C100E091B70251
:10132000F091B802808191810E9484011092B902EB
:101330001092BB021092BA021092C2021092C10225
:101340001092C0021092BF028FEF9FEF9093C402E1
:101350008093C3029093C6028093C5020E9420032B
:1013600060934F0370935003809351039093520303
:1013700010924C031092C9021092C8021092CA0235
:101380001092CB0210924E0310924D038091C7022F
:101390008170826081608093C70284E090E00E9447
:1013A000940EDC0113961C921E92129726E230E0F6
:1013B0002D933C9361E086E20E94690261E086E23F
:1013C0000E94690260E086E20E943B0261E086E2E0
:1013D0000E94690260E086E20E943B02E0E8F2E0DF
:1013E000FA83E983D12CC12C18EE212E13E0312E83
:1013F0000DEC402E0CEC502E652C0DE3702E89E484
:1014000090E00E94940E9E838D83DC0111961C92C5
:101410001E9213961C921E92129718961C92189761
:101420001A963C922E921997FC0113861486158603
:1014300016861786978386832AE032E035832483D5
:10144000108A128A118A04960E94F404AD81BE812A
:1014500057961C92579759963C922E925897FD0199
:10146000128E138E148E158E168EB68BA58B2AE1D6
:1014700032E0348B238B5F964D925D926D927C921D
:10148000929798961C921E92979711A612A613A651
:1014900014A616A615A610AA17A612AA11AA14AA6F
:1014A00013AAD5961D921D921D921C92D897D9967B
:1014B0001C92D997E2E0F0E0DB96FC93EE93DA978A
:1014C000CD0143960E94FF04AD81BE81DD961C9242
:1014D0001E92DC97DF961C921E92DE97FD01E05C67
:1014E000FF4F118210824D01B2E48B0E911CF4016A
:1014F00011821082AD80BE80F4E4AF0EB11CD50124
:101500001D921C92ED81FE81EA5BFF4FFC83EB8311
:1015100011821082ED81FE81E85BFF4F1082809185
:10152000680290916902803191059CF4FC01EE0FF4
:10153000FF1FE85BFD4F2D813E8131832083D90160
:10154000DF969C938E93DE97019690936902809329
:101550006802E981FA812D813E8121933193FA83DA
:10156000E98331E0C316D10409F424C177E1E72E01
:10157000F12C06E310E029E130E048E150E066E1BB
:1015800070E08D819E810E941E07D4018D919C91F7
:1015900011970197B1F0E1E0F0E0ED93FC93D501F4
:1015A0008D919C911197019711F0ED93FC93ED8132
:1015B000FE81808191810E94F806AB81BC811D92E1
:1015C0001C92CA94CD2809F0F1C084E090E00E94FA
:1015D000940E2AE232E0FC01318320832DE533E0D2
:1015E0003383228320917E0230917F022A3031059D
:1015F0006CF4F901EE0FFF1FE659FD4F91838083D4
:101600002F5F3F4F30937F0220937E0282E090E075
:101610000E94940E22E332E0DC012D933C93209152
:101620007E0230917F022A3031056CF4F901EE0F11
:10163000FF1FE659FD4F918380832F5F3F4F30930B
:101640007F0220937E028DE593E00E9484010E9438
:10165000FB024B015C0128EEC22E23E0D22EE12CCE
:10166000F12C0E94FB02681979098A099B09683EDE
:10167000734081059105A8F3B1E0CB1AD108E108C8
:10168000F108E8EE8E0EE3E09E1EA11CB11CC11411
:10169000D104E104F10429F792E0892E912C7724FA
:1016A000739480E8C82E82E0D82ED601ED91FD918A
:1016B0006D01FA83E9830190F081E02D84810E941D
:1016C000120229813A812E5B3F4F5901892B21F566
:1016D00009811A810A5B1F4FD8011D921C92F901E2
:1016E000808191810197F1F081E090E09183808386
:1016F000E981FA81EC5BFF4F208131812130310596
:1017000011F091838083A981BA818D919C910E946F
:10171000F806F80111821082D5018D919C910197F4
:1017200009F0CBC0A981BA81ED91FC911197A85B1A
:10173000BF4F7D01309741F080810E941202892BBA
:1017400009F444C0F7017082F701808109811A8190
:101750000A5B1F4F8823F1F0D8018D919C91813154
:10176000B7E29B0720F40196F80191838083D801AA
:101770008D919C918031974281F4E981FA8186AD07
:1017800097AD009731F1019709F45CC0D7018C91B6
:10179000811103C0F80111821082B4E8CB16B2E0C7
:1017A000DB0609F082CF0E942F047BCFCC24C394A8
:1017B000D12C25CE6FE1E62EF12C07E310E021E2DB
:1017C00030E040E250E06EE170E0DBCED7011C92E9
:1017D000BBCFD5018D919C9111970297F1F28D921B
:1017E0009C92E981FA81EC5BFF4F808191810297A5
:1017F00011F091828082E981FA81A080B18063E05A
:1018000070E0D50116968D919C910E94C20261E014
:1018100070E0F501808591850E94C20261E070E070
:10182000D5011A968D919C910E94C20289819A815C
:101830000496E981FA81938382830E94F4040E94D2
:101840006A04A4CFD5018D919C911197039709F457
:10185000A4CF83E090E08D939C93E981FA81EC5BC7
:10186000FF4F208131812330310511F09183808336
:10187000E981FA81A080B18064E070E0D50116961C
:101880008D919C910E94C20270E060E0F50180851C
:1018900091850E94C20261E070E0D5011A968D9197
:1018A0009C910E94C20289819A814396E981FA81C2
:1018B000938382830E94FF04C2CFA981BA811296CA
:1018C0008D919C91DC01ED91FC910190F081E02DD6
:1018D000199563CF052E97FB1EF400940E94810C8E
:1018E00057FD07D00E94940C07FC03D04EF40C94D3
:1018F000810C50954095309521953F4F4F4F5F4F4C
:10190000089590958095709561957F4F8F4F9F4F6B
:1019100008950E94B60CA59F900DB49F900DA49FB2
:10192000800D911D11240895A1E21A2EAA1BBB1B44
:10193000FD010DC0AA1FBB1FEE1FFF1FA217B3079B
:10194000E407F50720F0A21BB30BE40BF50B661FB1
:10195000771F881F991F1A9469F760957095809575
:1019600090959B01AC01BD01CF010895A29FB001EC
:10197000B39FC001A39F700D811D1124911DB29FC3
:10198000700D811D1124911D08955058BB27AA2761
:101990000E94DD0C0C94BC0D0E94AE0D38F00E942C
:1019A000B50D20F039F49F3F19F426F40C94AB0DDB
:1019B0000EF4E095E7FB0C94A50DE92F0E94CD0DE8
:1019C00058F3BA17620773078407950720F079F474
:1019D000A6F50C94EF0D0EF4E0950B2EBA2FA02D6A
:1019E0000B01B90190010C01CA01A0011124FF27CC
:1019F000591B99F0593F50F4503E68F11A16F040C7
:101A0000A22F232F342F4427585FF3CF46953795C5
:101A10002795A795F0405395C9F77EF41F16BA0B8A
:101A2000620B730B840BBAF09150A1F0FF0FBB1F38
:101A3000661F771F881FC2F70EC0BA0F621F731F81
:101A4000841F48F4879577956795B795F7959E3FDE
:101A500008F0B0CF9395880F08F09927EE0F97956F
:101A6000879508950E94390D6894B1110C94F00D7A
:101A700008950E94D50D88F09F5798F0B92F9927A7
:101A8000B751B0F0E1F0660F771F881F991F1AF069
:101A9000BA95C9F714C0B13091F00E94EF0DB1E0D2
:101AA00008950C94EF0D672F782F8827B85F39F0D1
:101AB000B93FCCF3869577956795B395D9F73EF402
:101AC00090958095709561957F4F8F4F9F4F0895AA
:101AD000E89409C097FB3EF49095809570956195C8
:101AE0007F4F8F4F9F4F9923A9F0F92F96E9BB277E
:101AF0009395F695879577956795B795F111F8CFFA
:101B0000FAF4BB0F11F460FF1BC06F5F7F4F8F4F64
:101B10009F4F16C0882311F096E911C0772321F05A
:101B20009EE8872F762F05C0662371F096E8862FF2
:101B300070E060E02AF09A95660F771F881FDAF749
:101B4000880F9695879597F9089597F99F6780E88C
:101B500070E060E008959FEF80EC089500240A94FF
:101B60001616170618060906089500240A94121678
:101B70001306140605060895092E0394000C11F4AB
:101B8000882352F0BB0F40F4BF2B11F460FF04C058
:101B90006F5F7F4F8F4F9F4F089557FD9058440FB1
:101BA000551F59F05F3F71F04795880F97FB991FBC
:101BB00061F09F3F79F08795089512161306140679
:101BC000551FF2CF4695F1DF08C016161706180606
:101BD000991FF1CF86957105610508940895E894E1
:101BE000BB2766277727CB0197F908950E94680ED7
:101BF00008F48FEF08950E940E0E0C94BC0D0E9405
:101C0000AE0D38F00E94B50D20F0952311F00C9424
:101C1000A50D0C94AB0D11240C94F00D0E94CD0D6C
:101C200070F3959FC1F3950F50E0551F629FF0012F
:101C3000729FBB27F00DB11D639FAA27F00DB11D48
:101C4000AA1F649F6627B00DA11D661F829F2227D1
:101C5000B00DA11D621F739FB00DA11D621F839F58
:101C6000A00D611D221F749F3327A00D611D231F2E
:101C7000849F600D211D822F762F6A2F11249F577C
:101C800050409AF0F1F088234AF0EE0FFF1FBB1F7F
:101C9000661F771F881F91505040A9F79E3F51053E
:101CA00080F00C94A50D0C94F00D5F3FE4F3983E8A
:101CB000D4F3869577956795B795F795E7959F5FE8
:101CC000C1F7FE2B880F911D9695879597F908957A
:101CD000990F0008550FAA0BE0E8FEEF161617063D
:101CE000E807F907C0F012161306E407F50798F0A5
:101CF000621B730B840B950B39F40A2661F0232BBE
:101D0000242B252B21F408950A2609F4A140A69539
:101D10008FEF811D811D0895EE0FFF1F881F8BBF60
:101D20000790F691E02D19940F931F93CF93DF93B3
:101D30008230910510F482E090E0E091FE03F09192
:101D4000FF0330E020E0B0E0A0E0309799F42115E7
:101D5000310509F44AC0281B390B24303105D8F568
:101D60008A819B816115710589F1FB0193838283CF
:101D7000FE0111C04081518102811381481759072A
:101D8000E0F04817590799F4109761F012960C93F8
:101D9000129713961C933296CF01DF91CF911F912A
:101DA0000F9108950093FE031093FF03F4CF2115C4
:101DB000310551F04217530738F0A901DB019A01B0
:101DC000BD01DF01F801C1CFEF01F9CF9093FF030F
:101DD0008093FE03CDCFFE01E20FF31F8193919319
:101DE0002250310939832883D7CF2091FC033091C9
:101DF000FD03232B41F42091020230910302309322
:101E0000FD032093FC032091000230910102211573
:101E1000310541F42DB73EB74091040250910502BF
:101E2000241B350BE091FC03F091FD03E217F3074F
:101E3000A0F42E1B3F0B2817390778F0AC014E5F3A
:101E40005F4F2417350748F04E0F5F1F5093FD0377
:101E50004093FC03819391939FCFF0E0E0E09CCF0F
:101E6000CF93DF930097E9F0FC013297138212823F
:101E7000A091FE03B091FF03ED0130E020E0109748
:101E8000A1F420813181820F931F2091FC033091B6
:101E9000FD032817390709F061C0F093FD03E093B3
:101EA000FC03DF91CF910895EA01CE17DF07E8F533
:101EB0004A815B819E0141155105B1F7E901FB8320
:101EC000EA8349915991C40FD51FEC17FD0761F4BE
:101ED000808191810296840F951FE90199838883FF
:101EE000828193819B838A83F0E0E0E012968D915A
:101EF0009C9113970097B9F52D913C911197CD01C5
:101F00000296820F931F2091FC033091FD03281746
:101F1000390739F6309751F51092FF031092FE03FE
:101F2000B093FD03A093FC03BCCFD383C283408155
:101F30005181840F951FC817D90761F44E5F5F4F19
:101F400088819981480F591F518340838A819B81E1
:101F5000938382832115310509F0B0CFF093FF03FD
:101F6000E093FE039ECFFD01DC01C0CF13821282FD
:061F7000D7CFF894FFCF6B
:101F7600000000048000000000006407F404DB0495
:101F860015071807B20400000000AC05FF04DB04C7
:101F960012070F07B20400000000520547050000B3
:101FA60000002105200500000000C2032C03590390
:081FB6000F048A0368037C0399
:00000001FF
